:020000040000FA
:06000000CEEF61F01200DA
:0600080004EF50F01200AD
:060018000CEF50F0120095
:06A00000CEEF61F012003A
:02A00600120046
:06A008002DEF56F01200DE
:02A00E002564C7
:01A01000004F
:01A01100004E
:02A0120012003A
:06A0180036EF56F01200C5
:02A01E0002003E
:10A02000E5C300007B0000000500000011A0000057
:08A030008400000001000000A3
:08A0380058EC55F0FB0EDBCFE4
:10A04000F3FFDB06F35000090AE0A6EC55F0FA0E28
:10A0500011EC56F0F3E1151CF1E1010E01D0000EF8
:10A0600087EF55F058EC55F03B0EE12402E3E16830
:10A07000E652E16E010EDB6A020EDB6AF90EDBCFFF
:10A08000F6FFFA0EDBCFF7FFFB0EDBCFF8FF080081
:10A09000F550DF6EDF5002E1ABEF54F0250EDF5CD0
:10A0A00002E09EEF54F0030EDB6A040EDB6A050E3D
:10A0B000DB6A060EDB6A070EDB6AC0EC54F02D0E7D
:10A0C000DF5C0CE02B0EDF5C09E0200EDF5C06E0BD
:10A0D000230EDF5C03E0300EDF5C1AE1DF50300A54
:10A0E00014E0130A0FE0030A0AE00B0A05E0060A6F
:10A0F000E4E1030EDB80E1D7030EDB82DED7030E43
:10A10000DB84DBD7030EDB86D8D7030EDB88D5D7FD
:10A110002A0EDF5C1BE1BCEC54F00AEC55F010E0B9
:10A12000030EDB8008680968130EDBCF0DF0140EF8
:10A13000DBCF0EF05BEC61F0040E06C0DBFF03D05A
:10A14000130EF3EC54F0C0EC54F00BD0090EDB6AA4
:10A1500061EC55F003E0D5EC55F0FAD7090EF3ECBD
:10A1600054F0030EDBB0DB982E0EDF5C1BE1C0EC7D
:10A1700054F02A0EDF5C0BE1BCEC54F00AEC55F015
:10A1800003E1130E45EC55F0C0EC54F00BD0090E72
:10A19000DB6A61EC55F003E0D5EC55F0FAD7090E17
:10A1A00045EC55F0680EDF5C07E1C0EC54F0680E3A
:10A1B000DF5C1DE1030E18D0740EDF5C17E07A0E31
:10A1C000DF5C14E0480EDF5C06E0540EDF5C03E069
:10A1D0005A0EDF5C02E1020E07D06C0EDF5C03E07A
:10A1E0006A0EDF5C04E1010E98EC55F0C9DBDF502C
:10A1F0006E0A01E17FD31E0A01E192D1200A01E13A
:10A200008FD13F0A01E149D11A0A01E146D10D0A75
:10A2100001E143D1200A01E140D13A0A01E13DD1F7
:10A22000200A01E13AD1260A01E135D10D0A01E106
:10A2300032D11A0A01E1D9D0200A4AE0300A1FE0DF
:10A24000460A0EE0250A01E083D3D950F90FE96EE2
:10A25000FF0EDA20EA6E010EEE5E000EEE5AEE5AA6
:10A26000A6EC55F0250EE66E95DB03E1151C01E129
:10A2700069D3A2EC55F001E26BD3DB2A69D3080E57
:10A28000DB6A040EDB50010806E2040EDB046AEC14
:10A2900055F0DB508BDB080EDB5009E0030EDB5082
:10A2A000010B05E172DB01E04DD3080EDB6A64DBD4
:10A2B000EFCFDFFF1AEC56F003E1151C01E142D3AA
:10A2C000A2EC55F001E3DB2A60DB01E141D33AD394
:10A2D000070EDB5002080FE1E6EC55F0030EADEC83
:10A2E00055F00E0EEECFDBFF0F0EEECFDBFF100EA4
:10A2F000EECFDBFF20D0F70EDBCF17F0F80EDBCF71
:10A3000018F0020E175E000E185AF70E17C0DBFF8A
:10A31000F80E18C0DBFF17C0E9FF18C0EAFF9DEC7C
:10A3200055F0166A0E0E14C0DBFF0F0E15C0DBFFD2
:10A33000100E16C0DBFF0E0EDBCFE6FF0F0EDBCFDD
:10A34000E6FF100EDBCFE6FF36EC61F0E552E5529A
:10A35000E552130E07C0DBFF140E08C0DBFF060E2C
:10A36000DB5005E0130EE1EC55F001E26ADB05EC91
:10A3700056F002E2130E37DBC8EC55F006E0040E8F
:10A38000E1EC55F002E2050E2EDB030EDBB005D04A
:10A39000FCDA01E0D7D2080EDB6A090EDB6A0E0E8A
:10A3A000DBCFF6FF0F0EDBCFF7FF100EDBCFF8FF92
:10A3B0000800F550DF6EDF5014E00BEC56F011E2B0
:10A3C0001AEC56F003E1151C01E1BCD2BBDB01E342
:10A3D000DB2A090EDB2AD9500E0FE96E000ECBDB0B
:10A3E000E7D7D3DA01E1B4D2ADD2C6DA110EEECF9F
:10A3F000DBFF120EEDCFDBFF110EDBCFE6FF120EFF
:10A40000DBCFE6FF28EC61F0E552E552130EF3CF07
:10A41000DBFF140EF4CFDBFF060EDB5004E0130E5F
:10A42000D0DB01E20EDB05EC56F002E2130EDBDAC4
:10A43000AFDB05E0040EC5DB02E2050ED4DA030E45
:10A44000DBB005D0A2DA01E07DD2080EDB6A090E8E
:10A45000DB6A110EDBCFE9FF120EDBCFEAFFEFCF95
:10A46000DFFFDF5014E0D7DB12E2E4DB03E1151C71
:10A4700001E168D267DB01E3DB2A090EDB2A110E5A
:10A48000DB2ADBCFE9FF120EE8E3DB2AE6D77DDA31
:10A4900001E15ED257D2030EDB8E070EDB0410E122
:10A4A00095DB040E5ADB0A0EEECFDBFF0B0EEECF70
:10A4B000DBFF0C0EEECFDBFF0D0EEECFDBFF6CD023
:10A4C000070EDB5003082CE1030EDBAE0DD0B2DA31
:10A4D000020E76DAEFCF14F0156A166A176A14AE18
:10A4E00039D01568166835D0F70EDBCF15F0F80EA9
:10A4F000DBCF16F0020E155E000E165AF70E15C0D1
:10A50000DBFFF80E16C0DBFF15C0E9FF16C0EAFF3F
:10A51000EFCF14F00A0E14C0DBFF0B0EDB6A38D04D
:10A52000070EDB50020809E1030EDBAE04D059DB55
:10A5300016AE10D00ED055DB0DD0030EDBAE12D010
:10A5400079DA020E3DDAF9DA166A176A15AE02D028
:10A5500016681768E2DA0C0E16C0DBFF0D0E17C086
:10A56000DBFF1AD0F70EDBCF16F0F80EDBCF17F0BB
:10A57000020E165E000E175AF70E16C0DBFFF80E1D
:10A5800017C0DBFF16C0E9FF17C0EAFFD6DAC5DA4D
:10A590000C0EDB6A0D0EDB6A060EDB5005E1010EC8
:10A5A000F36E050EF3CFDBFF150EDB6A160EDB6ACA
:10A5B000D950370F146E000EDA20156E390E14C004
:10A5C000DBFF3A0E15C0DBFF380EDB6A080EDB6AD4
:10A5D0000A0EAEDADF50780A12E0200A10E0280AEC
:10A5E0000CE0200A0AE03F0A06E00D0A02E0200A19
:10A5F00008E1020E05D0080E03D0080EDF26100E6B
:10A6000097DA030EDBBE02D0DB92DB94DB50800BCB
:10A6100024E08ADAD890030EEB50000A08E6000E18
:10A62000EE5C000EEE58000EEE58000EEE5815E2ED
:10A6300013DA0B680C680D680E68F0EC60F00A0E17
:10A6400002C0DBFF0B0E03C0DBFF0C0E04C0DBFF00
:10A650000D0E05C0DBFF2D0E08D0030EDBA202D0CD
:10A660002B0E03D0DBA408D0200EF36E170EF3CF11
:10A67000DBFF150EDB2A02D0170EDB6A050EDB505E
:10A6800003E1B7D901E189D0D40E146EC30E156E63
:10A69000000E166E070EDBCF17F0186A196A1A6AD9
:10A6A00017C00BF018C00CF019C00DF01AC00EF056
:10A6B000D3D988EC61F014500224F36E15500320B6
:10A6C000F46E16500420F86EF4CFF7FFF3CFF6FFC8
:10A6D0000800090EF5CFDBFF580EDF5C0FE1610EBD
:10A6E000F36E090E7BD90AE3200E146E090EDBCF40
:10A6F000E7FF1450E75E090EE7CFDBFF070EDBCF65
:10A7000014F0156A166A176A0FDA14C00BF015C038
:10A710000CF016C00DF017C00EF0EECF06F0EECF25
:10A7200007F0EECF08F0EFCF09F088EC61F009C038
:10A73000EDFF08C0EDFF07C0EDFF06C0EFFF390ECB
:10A74000DBCFE9FFDB063A0EDBCFEAFF01E2DB06F7
:10A75000090EDBCFEFFF150EDB2A4BD995E1030E77
:10A76000DBA61DD06F0EDF5C06E1C1D918E3150E24
:10A77000DB285BDA14D0780EDF5C09E0580EDF5C72
:10A7800006E0620EDF5C03E0420EDF5C08E1020ED1
:10A79000F36E160EF3CFDBFF02D0150EDB6A030E4D
:10A7A000DB50100B0EE0040EDBCF14F0050EDB5077
:10A7B000D880145406E2060EDB5003E1040EDB5091
:10A7C00034DA95D90AE2050EDBCFE7FF150EDB5030
:10A7D000E75E050EE7CFDBFF02D0050EDB6A040E55
:10A7E000DBCF14F0160E45D9D880145414E2160E9F
:10A7F000DBCFE6FF150EDBCFE6FF040EDBCFE6FF77
:10A80000050EDB50E552E75CE552D880E754E5528F
:10A81000D880E7545FD9030EDB50010B0BE1080E23
:10A82000DB5008E0B2D801E08DD0080EDB50BED876
:10A83000080EDB6A170EDB5007E088D9170EF1D936
:10A8400003E1151C01E17ED0160EDB5016E07ED927
:10A85000300EE66E9FD802E1151C74E077D9DFCF89
:10A86000E6FFAEEC60F0E552E552E552F4CF15F0AC
:10A870000001F31C02E1151C65E0050EDBCF14F0AE
:10A88000160EDB50D880145409E2050EDBCFE7FF2B
:10A89000160EDB50E75E050EE7CFDBFF300EE66EEF
:10A8A000050ECBD94FE1390EDB2ADBCFE9FF3A0E9B
:10A8B00001E3DB2ADBCFEAFF090EEFCFDBFFDB5042
:10A8C0000EE044D9090EADD902E1151C3BE0390E6A
:10A8D000DB2ADBCFE9FF3A0EEDE3DB2AEBD755D8D5
:10A8E00031E1160EDBCFE6FF080EC3D8E552E724B0
:10A8F0005DD82ED0070EDB50030A1CE0010A14E0DD
:10A90000030A07E07BD9DBCFEEFF020EDBCFEDFFC2
:10A910001FD0F5D8196A17AE02D0186819682CD85C
:10A92000BCD819C0EEFF14D0EAD817BE186824D8D6
:10A93000B4D80ED063D9DBCFEFFF0AD07BD905E1C5
:10A94000151C03E1F368F46810D0FCD801E3DB2A9E
:10A9500079D947EF50F0010EDBCF14F0020EDBCFB8
:10A9600015F014C0F3FF15C0F4FF3B0EE15C02E2EA
:10A97000E16AE552E16ECBD029D9020EADEF55F078
:10A9800061D90800F550DF6E1200200EE66E080E49
:10A990001DEF56F0AEEC60F0E552E552E552F3CF14
:10A9A00014F0F4CF15F00001F31C1200146E156AB8
:10A9B000D950010F4DD91450EE261550ED2212003A
:10A9C000185E000E195AF70E18C0DBFFF80E19C0FA
:10A9D000DBFF18C0E9FF19C0EAFF1200DBCFF4FF6C
:10A9E000F350F45C1200DB50E76E040EE7CFDBFFA0
:10A9F00012000A0EDBCF14F00B0EDBCF15F00C0E9D
:10AA0000DBCF16F00D0EDBCF17F01450151016101B
:10AA100017101200130EEECFDBFF140EEDCFDBFF8D
:10AA2000130EDBCF14F0140EDBCF15F00001800EF7
:10AA300015141200F70EDBCF18F0F80EDBCF19F06B
:10AA40001200050EDB50E66ED950130F01D9E55206
:10AA5000E750EE6EED6A12000A0EDBCF06F00B0E29
:10AA6000DBCF07F00C0EDBCF08F00D0EDBCF09F0CB
:10AA70001200DBCFE6FF150EDBCFE6FF050EDB5045
:10AA8000E552E724E552E7241200DB50CED8010E50
:10AA9000F36E060EF3CFDBFF1200EE50EFCFEAFFAE
:10AAA000E96E16C0EEFF17C0EEFF18C0EEFF1200F1
:10AAB000D9CFE6FFDACFE6FFE1CFD9FFE2CFDAFF69
:10AAC0001200DFCFE6FFE66AACEC61F0E552E5523A
:10AAD000F3501200E76E080EE7CFDBFF1200EECF57
:10AAE00014F0EECF15F0EFCF16F0176A1200050E36
:10AAF000DBCF14F0150EDB50D88014541200010E79
:10AB0000DBCF16F0020EDBCF17F0186A1200E55209
:10AB1000E5CFDAFFE7CFD9FF12000A0E14C0DBFF42
:10AB20000B0E15C0DBFF1200D9500A0F28EF56F0AC
:10AB3000F36E070EF3CFDBFF1200EECF14F0EFCF72
:10AB400015F01200010EDB2A020E1200FC0EDBCF04
:10AB5000E6FFFD0EDBCFE6FF1200145E000E155A75
:10AB6000F70E14C0DBFFF80E15C0DBFF14C0E9FFC1
:10AB700015C0EAFF1200DA20EA6EEF2AEECFF6FFE8
:10AB8000000EEF22EECFF7FFEF22EECFF8FF12001C
:10AB9000040EDBCFE6FF130EDB50E552E75C9ADFD5
:10ABA000DB5004DF060EDB501200090EDB500A0DED
:10ABB000F350DF24D00FE76E090EE7CFDBFFC0EFC5
:10ABC00054F0DB50F36E050EEEEF54F0F70EDBCFD2
:10ABD00014F0F80EDBCF15F01200DFCFE6FFCAEF5E
:10ABE00054F028DF030EECDE6FEF55F01CEC50F054
:10ABF000E552E552E552E55200091200BDDEEE5085
:10AC0000EFCFEAFFE96E010E1200130EDB50F36E78
:10AC1000040EEEEF54F0040EDB50F36E090EEEEF6F
:10AC200054F0DBCFE6FFCAEF54F0E76E050EE7CF36
:10AC3000DBFF12008BDFEDEF55F0DBCFE6FF86DFA9
:10AC4000F6EF55F0D950F90FE96EFF0EBBEF55F056
:0AAC5000E96E000EDA20EA6E120031
:06AC5A00DACFE4FFE2CFB7
:10AC6000DAFFE652E552E5CFDAFF1100D8CFE4FF74
:10AC7000E0CFE4FFE46EDACFE4FFE2CFDAFFE652A2
:10AC8000E552E5CFDAFFE550E5CFE0FFE5CFD8FFAD
:10AC90001000D7EC5DF042EC5EF077EC5CF0C2ECBB
:10ACA00059F0E66AA7EC5AF0E5521200D9CFE6FF58
:10ACB000E1CFD9FF020EE126BDEC5FF0000901E112
:10ACC000FBD7580EDE6E020EDD6E9B8CDFCF14F0CC
:10ACD000DF06010EDBCF15F001E2DB061450151084
:10ACE00001E0F4D70F0148694969D3DF020EE15C46
:10ACF00002E2E16AE552E16EE552E7CFD9FF1200C8
:10AD0000110EC26E1200D9CFE6FFE1CFD9FFFD0EC2
:10AD1000DBCF14F0FE0EDBCF15F00001800E151412
:10AD20005FE0FD0EDBCF14F0FE0EDBCF15F0153427
:10AD300004E314501808FC0E155444E2FD0EDBCF5A
:10AD400014F0FE0EDBCF15F0153404E314509C080C
:10AD5000FF0E155429E2FD0EDBCF14F0FE0EDBCF03
:10AD600015F0153404E31450F608FF0E15540EE2E6
:10AD7000020EE76EFB0EDBCFE9FFFC0EDBCFEAFF36
:10AD8000E750E926000EEA22200EEF6E030EE76E72
:10AD9000FB0EDBCFE9FFFC0EDBCFEAFFE750E92635
:10ADA000000EEA22200EEF6E040EE76EFB0EDBCFE4
:10ADB000E9FFFC0EDBCFEAFFE750E926000EEA22AE
:10ADC000200EEF6E050EE76EFB0EDBCFE9FFFC0EEB
:10ADD000DBCFEAFFE750E926000EEA22EF6A61D0F6
:10ADE000FD0EDBCF14F0FE0EDBCF15F0D890155022
:10ADF00004E6E80E145C030E155853E2FD0EDBCF9B
:10AE000014F0FE0EDBCF15F0D890155004E6640E5A
:10AE1000145C000E15582AE2FD0EDBCF14F0FE0E76
:10AE2000DBCF15F0D890155004E60A0E145C000E26
:10AE300015580EE2010EE76EFB0EDBCFE9FFFC0EAC
:10AE4000DBCFEAFFE750E926000EEA22200EEF6E84
:10AE5000020EE76EFB0EDBCFE9FFFC0EDBCFEAFF55
:10AE6000E750E926000EEA22200EEF6E030EE76E91
:10AE7000FB0EDBCFE9FFFC0EDBCFEAFFE750E92654
:10AE8000000EEA22200EEF6E040EE76EFB0EDBCF03
:10AE9000E9FFFC0EDBCFEAFFE750E926000EEA22CD
:10AEA000EF6AE552E7CFD9FF1200D9CFE6FFE1CF35
:10AEB000D9FF020EE126FE0EDBCFE6FF3AD8E552BF
:10AEC000F3CFDEFFF4CFDDFFDECFE6FFDDCFE6FF21
:10AED0000E0E146EA00E156E166A14C0E6FF15C095
:10AEE000E6FF16C0E6FFFC0EDBCFE6FFFD0EDBCF74
:10AEF000E6FF09EC60F0176E070EE15E1750FC0EDE
:10AF0000DBCFE6FFFD0EDBCFE6FFDECFE6FFDDCFDA
:10AF1000E6FFF9DEE552E552E552E552020EE15C4C
:10AF200003E200D0E16AE552E16EE552E7CFD9FFD6
:10AF30001200D9CFE6FFE1CFD9FF030EE126020EC2
:10AF4000DF6EFE0EDB50C26EDF5004E0DF50C21435
:10AF5000DF6EFAD7C450E66ED950010FE96EDACF32
:10AF6000EAFFE552E750EE6EED6A010EDBCF14F01A
:10AF7000020EDBCF15F014C015F0146A010E14C0D8
:10AF8000DBFF020E15C0DBFFC350E76E010EDBCF07
:10AF900014F0020EDBCF15F0E7501426000E152238
:10AFA000010E14C0DBFF020E15C0DBFF010EDBCF6C
:10AFB00014F0020EDBCF15F014C0F3FF15C0F4FF40
:10AFC000030EE15C03E200D0E16AE552E16EE55276
:10AFD000E7CFD9FF120081B01FD000017CC014F070
:10AFE0007DC015F07EC016F07FC017F07C2B000EE0
:10AFF0007D237E237F23D8800A0E1454000E15541F
:10B00000000E1654000E175406E27C6B7D6B7E6BAF
:10B010007F6B010E7B6F11D000017B050EE17C512F
:10B020007D117E117F1104E17B6B010E08D005D0EC
:10B030007C07000E7D5B7E5B7F5B000E00D0120004
:10B04000D9CFE6FFE1CFD9FF030EE126FE0EDBCF1D
:10B05000E6FF5AEC5DF0E552DF6EDF50E66ED95048
:10B06000010FE96EDACFEAFFE552E750EE6EED6AC6
:10B07000010EDBCF14F0020EDBCF15F014C015F07B
:10B08000146A010E14C0DBFF020E15C0DBFFFE0EBA
:10B09000DB04E66E5AEC5DF0E552DF6EDF50146EB5
:10B0A000156AD950010FE96EDACFEAFF1450EE2687
:10B0B0001550ED22010EDBCF14F0020EDBCF15F0A0
:10B0C000060ED89015321432E804FBE1010E14C0CC
:10B0D000DBFF020E15C0DBFFFE0EDB5007080BE1A5
:10B0E000010EDBCF14F0020EDBCF15F014C0F3FF1E
:10B0F00015C0F4FF1AD0010EDBCFE6FF020EDBCF46
:10B10000E6FF1DD8E552E552DE52F3CFDEFFF4CF65
:10B11000DDFFDD52010EDBCF14F0020EDBCF15F0A8
:10B1200014C0F3FF15C0F4FF00D0030EE15C02E28F
:10B13000E16AE552E16EE552E7CFD9FF1200D9CFBF
:10B14000E6FFE1CFD9FFFD0EDBCF14F0FE0EDBCF23
:10B1500015F0153404E21450FF08010E15541EE2D8
:10B16000FD0EDBCF14F0FE0EDBCF15F01450FC0EFD
:10B170001512FD0E14C0DBFFFE0E15C0DBFFFD0E29
:10B18000DBCFE6FFFE0EDBCFE6FF17D8E552E55238
:10B19000FD0EF3CFDBFFFE0EF4CFDBFFFD0EDBCFAA
:10B1A00014F0FE0EDBCF15F014C0F3FF15C0F4FF52
:10B1B00000D0E552E7CFD9FF1200D9CFE6FFE1CFAB
:10B1C000D9FFFD0EDB1C146EFE0EDB1C156EFD0E92
:10B1D00014C0DBFFFE0E15C0DBFFD950FD0FE96E7A
:10B1E000FF0EDA20EA6EEE2A000EED22FD0EDBCF16
:10B1F00014F0FE0EDBCF15F0146C151E000E152298
:10B2000014C0F3FF15C0F4FF00D0E552E7CFD9FF1B
:10B210001200D9CFE6FFE1CFD9FF020EE126FD0EE5
:10B22000DBCFE9FFFE0EDBCFEAFF230EEF6E010E50
:10B23000DE6EDD6ADECF14F0DDCF15F0D89015504C
:10B2400004E6140E145C000E155813E2FD0EDBCF5D
:10B2500014F0FE0EDBCF15F0DE501424E96EDD5045
:10B260001520EA6E240EEF6EDF2A010E01E3DB2AC1
:10B27000E1D7FD0EDBCF14F0FE0EDBCF15F0DE5074
:10B280001424E96EDD501520EA6E250EEF6E0A0ECD
:10B29000E76EFD0EDBCFE9FFFE0EDBCFEAFFE750E6
:10B2A000E926000EEA22260EEF6E020EE15C02E2B3
:10B2B000E16AE552E16EE552E7CFD9FF1200D9CF3E
:10B2C000E6FFE1CFD9FF060EE126680EDF6EDE5203
:10B2D000650EDD6E6C0EF36E020EF3CFDBFF6C0EAF
:10B2E000F36E030EF3CFDBFF6F0EF36E040EF3CF9E
:10B2F000DBFF050EDB6A04DDD9DC300EE66EE66AA4
:10B30000D9CFE6FFDACFE6FFE3EC5BF0E552E5529A
:10B31000E552E552F2D7060EE15C02E2E16AE5523F
:0AB32000E16EE552E7CFD9FF1200FD
:06B32A00D9CFE6FFE1CFE0
:10B33000D9FF020EE126FD0EDBCF14F0DB06FE0E78
:10B34000DBCF15F001E2DB061450151011E0DE6AC8
:10B35000DD6ADECF14F0DDCF15F0E30E145C0D0EC8
:10B36000155805E2DF2A010E01E3DB2AF2D7E3D705
:10B37000020EE15C02E2E16AE552E16EE552E7CFDE
:10B38000D9FF1200D9CFE6FFE1CFD9FF060EE126A3
:10B390008D9296928D9096908D8496948A9A939A97
:10B3A0008C92DE6ADE6ADE6ADD6ADD52DD52D9CF5A
:10B3B000E9FFDACFEAFF640EEE5C000EEE58000EF5
:10B3C000EE58000EEE580AE2D9CFE9FFDACFEAFFD5
:10B3D000EE2A000EEE22EE22EE22E9D78C82DE6A01
:10B3E000DE6ADE6ADD6ADD52DD52D9CFE9FFDACFEF
:10B3F000EAFF640EEE5C000EEE58000EEE58000EF2
:10B40000EE580AE2D9CFE9FFDACFEAFFEE2A000EC2
:10B41000EE22EE22EE22E9D7AE0EE66E70D8E552AD
:10B42000DB0EE66E6CD8E552230EE66E68D8E55268
:10B43000D90EE66E64D8E552220EE66E60D8E5526B
:10B44000A10EE66E5CD8E552C80EE66E58D8E552FD
:10B45000DA0EE66E54D8E552120EE66E50D8E5527A
:10B46000A80EE66E4CD8E5523F0EE66E48D8E5527F
:10B47000D50EE66E44D8E552A00EE66E40D8E552F1
:10B48000810EE66E3CD8E552600EE66E38D8E55285
:10B49000D30EE66E34D8E552E66A31D8E552A60EF0
:10B4A000E66E2DD8E552AD0EE66E29D8E5528B0E2C
:10B4B000E66E25D8E552AF0EE66E21D8E5520A0EAB
:10B4C000E66EE66A32DFE552E552A40EE66E17D864
:10B4D000E552400EE66E13D8E552020EE66E0FD826
:10B4E000E552100EE66E0BD8E552060EE15C02E264
:10B4F000E16AE552E16EE552E7CFD9FF1200D9CFFC
:10B50000E6FFE1CFD9FF956AFE0EDB508C6E8D8091
:10B510008D828A9A8D948D928D828D849568E55264
:10B52000E7CFD9FF1200D9CFE6FFE1CFD9FF956A67
:10B53000FE0EDB508C6E8D808D828A8A8D948D926A
:10B540008D828D849568E552E7CFD9FF1200D9CF5F
:10B55000E6FFE1CFD9FF020EE126B00EDF6EB80E96
:10B56000DF5C23E2DFCFE6FFCADFE552020EE66EC4
:10B57000C6DFE552100EE66EC2DFE552010EDB6A51
:10B58000DB50146E156AD890155004E6840E145CD6
:10B59000000E155808E2FE0EDBCFE6FFC4DFE552D1
:10B5A000010EDB2AEDD7DF2ADAD7020EE15C03E2D7
:10B5B00000D0E16AE552E16EE552E7CFD9FF120013
:10B5C000D9CFE6FFE1CFD9FF200E146EFE0EDBCF00
:10B5D000E7FF1450E75EFE0EE7CFDBFFDBCFF6FFA1
:10B5E000F76AF6BEF768050EF702F3CFF7FFF6022B
:10B5F000F3CFF6FFF450F726460EF626BD0EF722DF
:10B600000800F550E66E8FDFE552FE0EDBCFF6FF49
:10B61000F76AF6BEF768050EF702F3CFF7FFF602FA
:10B62000F3CFF6FFF450F726460EF626BD0EF722AE
:10B63000010EF626000EF7220800F550E66E73DFC5
:10B64000E552FE0EDBCFF6FFF76AF6BEF768050E91
:10B65000F702F3CFF7FFF602F3CFF6FFF450F72629
:10B66000460EF626BD0EF722020EF626000EF72233
:10B670000800F550E66E57DFE552FE0EDBCFF6FF11
:10B68000F76AF6BEF768050EF702F3CFF7FFF6028A
:10B69000F3CFF6FFF450F726460EF626BD0EF7223E
:10B6A000030EF626000EF7220800F550E66E3BDF8B
:10B6B000E552FE0EDBCFF6FFF76AF6BEF768050E21
:10B6C000F702F3CFF7FFF602F3CFF6FFF450F726B9
:10B6D000460EF626BD0EF722040EF626000EF722C1
:10B6E0000800F550E66E1FDFE552E66A1CDFE55202
:10B6F00000D0E552E7CFD9FF1200D9CFE6FFE1CF66
:10B70000D9FFE652FD0EDBCFE6FFF9DEE552020E71
:10B71000146EFC0EDBCFE7FF1450E726FC0EE7CFDC
:10B72000DBFFDB500F0BE66EEADEE552FC0EDB388A
:10B730000F0B0F0B100FE66EE2DEE552FE0EDBCFB5
:10B74000E6FF3EDFE55200D0E552E552E7CFD9FFF4
:10B750001200D9CFE6FFE1CFD9FFFC0EDB50B00FCE
:10B76000E76EFC0EE7CFDBFFFB0EDBCFE6FFFC0E48
:10B77000DBCFE6FFFD0EDBCFF6FFFE0EDBCFF7FFE4
:10B780000800F550E66EB9DFE552E552E552FD0ED0
:10B79000DB2ADBCFF6FFFE0E01E3DB2ADBCFF7FF70
:10B7A0000800F5500CE0FD0EDBCFF6FFFE0EDBCF00
:10B7B000F7FF0800F550E66E03DFE552E8D7E552E3
:10B7C000E7CFD9FF1200D9CFE6FFE1CFD9FFFC0EBA
:10B7D000DB50B00FE76EFC0EE7CFDBFFFB0EDBCFDD
:10B7E000E6FFFC0EDBCFE6FFFD0EDBCFE9FFFE0E32
:10B7F000DBCFEAFFEF50E66E80DFE552E552E5521F
:10B80000FD0EDB2ADBCFE9FFFE0E01E3DB2ADBCFF7
:10B81000EAFFEF500BE0FD0EDBCFE9FFFE0EDBCFC2
:10B82000EAFFEF50E66ECCDEE552EAD7E552E7CF0D
:10B83000D9FF1200D9CFE6FFE1CFD9FF050EE126EF
:10B84000030EDB6A040EDB6A020E146EFA0EDBCF07
:10B85000E7FF1450E726FA0EE7CFDBFFF90EDB50C7
:10B86000B00FDF6EFB0EDB50B00FDF5C35E2DFCFD9
:10B87000E6FF45DEE552FA0EDB500F0BE66E3FDECB
:10B88000E552FA0EDB380F0B0F0B1009E66E37DEB0
:10B89000E552010EDB6AFC0EDB50F36E010EDBCFCE
:10B8A000F4FFF350F45C16E2030EDB2A040E01E30E
:10B8B000DB2AFD0EDBCFF6FFDB2AFE0EDBCFF7FF28
:10B8C00001E3DB2A0800F550E66E2DDEE552010E9D
:10B8D000DB2AE1D7DF2AC6D7050EE15C03E200D000
:0EB8E000E16AE552E16EE552E7CFD9FF1200B2
:02B8EE00D9CFB0
:10B8F000E6FFE1CFD9FF030EE12659D8736A820E25
:10B90000726E739C94949396958C7288728A949EAE
:10B91000E66AD0D8E552E76E020EE7CFDBFF000003
:10B92000D950020FE96EDACFEAFFEF50070B020899
:10B9300001E00000140EE66EBDD8E552E76E020E7F
:10B94000E7CFDBFF020EDB96DB88020EDB80DB92AB
:10B95000DB94020EDBCFE6FF140EE66E3AD8E5521A
:10B96000E552010EE66EA6D8E552DE6EDD6A0000F5
:10B97000110EE66E9FD8E552DE6EDD6A0000E66AC3
:10B98000110EE66E26D8E552E5520000110EE66E65
:10B9900091D8E552DE6EDD6A0000030EE15C02E242
:10B9A000E16AE552E16EE552E7CFD9FF1200550E8C
:10B9B000A76EAA0EA76E0E01FF91090ECC6F0A0E9C
:10B9C000D36F170EFB6F550EA76EAA0EA76EFF81E1
:10B9D0001200D9CFE6FFE1CFD9FFE652DF6AFE0EB3
:10B9E000DB50140804E0FE0EDB50340806E1140EB0
:10B9F000E66E60D8E552E00BDF6E8B9EA49EFE0ED5
:10BA0000DB50756EA4AEFED7000000000000000001
:10BA10000000000000000000000000000000000026
:10BA20000000000000000000000000000000000016
:10BA30000000000000000000000000000000000006
:10BA400000000000000000000000000000000000F6
:10BA500000000000000000000000000000000000E6
:10BA600000000000000000000000000000000000D6
:10BA700000000000000000000000000000000000C6
:10BA80000000000000000000A49EFE0EDB500A082B
:10BA900005E1FD0EDB507F0B756E04D0FD0EDB5013
:10BAA000DF10756EA4AEFED78B8EE552E552E7CF60
:10BAB000D9FF1200D9CFE6FFE1CFD9FF8B9EA49E1C
:10BAC000FE0EDB508009756EA4AEFED700000000AC
:10BAD0000000000000000000000000000000000066
:10BAE0000000000000000000000000000000000056
:10BAF0000000000000000000000000000000000046
:10BB00000000000000000000000000000000000035
:10BB10000000000000000000000000000000000025
:10BB20000000000000000000000000000000000015
:10BB30000000000000000000000000000000000005
:10BB4000000000000000000000000000A49E756AD4
:10BB5000A4AEFED78B8E755000D0E552E7CFD9FF4B
:02BB60001200D1
:0EBB6200030EB16EB392B390B396B288B28E5A
:10BB7000B290B292A494B38E12002F0E926E0F0167
:10BB8000E00E486F1F0E496FC18EC19CC70EC114D5
:10BB90000809C16EF80EC1140209C16E498FC29C1A
:10BBA000C29EC30EC2140809C26EC2801200D9DF41
:10BBB000BDEF5DF0D9CFE6FFE1CFD9FF020EE12660
:10BBC000FE0EDB500F0BF36EF346F346C30EC214AA
:10BBD000F310C26EFE0EDB50EA6A800FE96E000EB3
:10BBE000EA22EF503F0BF36EF346F346030EB11417
:10BBF000F310B16EB38EB3820000000000000000AD
:10BC00000000000000000000000000000000000034
:10BC10000000000000000000000000000000000024
:10BC2000B392B2800000000000000000000000009D
:10BC30000000000000000000000000000000000004
:10BC4000000000000000000000000000B2909E9C78
:10BC5000C2829EACFED7C3CFDEFFC4CFDDFFDECFF6
:10BC600014F0DDCF15F014C0F3FF15C0F4FF00D0C1
:10BC7000020EE15C02E2E16AE552E16EE552E7CFD5
:10BC8000D9FF1200D9CFE6FFE1CFD9FF030EE1269D
:10BC9000020EDB6A040EF36E020EDBCFF4FFF350EC
:10BCA000F45C21E22AD8EF6A30D80CE226D8EF50B3
:10BCB0001F0803E122D8EF6A13D01FD8EF2A25D836
:10BCC000F5E30ED02CD80CE218D8EF50E10803E1D0
:10BCD00014D8EF6A05D011D8EF062BD820D8F4E39A
:10BCE000020EDB2AD7D7030EE15C02E2E16AE552DD
:10BCF000E16EE552E7CFD9FF1200020EDB50EA6A8F
:10BD0000800FE96E000EEA22120013D8DECF14F085
:10BD1000DDCF15F0200E145C030E15581200D9CF9C
:10BD2000E9FFDACFEAFF200ED880EE54030EED547F
:10BD30001200020EDBCFE6FF3DDFE552F3CFDEFF60
:06BD4000F4CFDDFF12004C
:0ABD4600000000000000004F0000A4
:10BD50000007000700147F147F14242A7F2A12236F
:10BD60001308646236495522500005030000001C88
:10BD70002241000041221C0014083E081408083E1D
:10BD8000080800503000000808080808006060003B
:10BD90000020100804023E5149453E00427F400009
:10BDA00042615149462141454B311814127F1027F9
:10BDB000454545393C4A4949300171090503364931
:10BDC000494936064949291E0036360000005636D4
:10BDD0000000081422410014141414140041221409
:10BDE000080201510906324979413E7E1111117E46
:10BDF0007F494949363E414141227F4141221C7FD2
:10BE0000494949417F090909013E4149497A7F0869
:10BE100008087F00417F41002040413F017F081416
:10BE200022417F404040407F020C027F7F04081087
:10BE30007F3E4141413E7F090909063E4151215E55
:10BE40007F09192946464949493101017F01013FCE
:10BE50004040403F1F2040201F3F4038403F631478
:10BE600008146307087008076151494543007F4182
:10BE7000410002040810200041417F000402010239
:10BE800004404040404000010204002054545478D3
:10BE90007F484444383844444420384444487F3838
:10BEA00054545418087E0901020C5252523E7F0825
:10BEB00004047800447D40002040443D007F102869
:10BEC000440000417F40007C041804787C0804048E
:10BED0007838444444387C14141408081414187C2A
:10BEE0007C080404084854545420043F4440203C37
:10BEF0004040207C1C2040201C3C4030403C4428DA
:10BF00001028440C5050503C4464544C44000836B3
:10BF1000410000007F0000004136080002010204D9
:01BF2000021E
:0EBF2200000184B122D084838B809490550E50
:10BF3000A76EAA0EA76E0E01FF910E0ED16F550EC1
:10BF4000A76EAA0EA76EFF810F0EBA6ECF0EBA149F
:10BF50000009BA6EBB6A0F01526B800ECB6E040EE5
:10BF6000CA6EA496600E776E7F0E766E1200000188
:10BF7000849184938B8094901200000184A109D055
:10BF80008B50010B04E19450010B01E1010C8491F1
:10BF9000C8DF000184A3C5DFA4A63AD0A496BA5096
:10BFA000300BE842E842E842E842030819E1400E5B
:10BFB000BB5C10E18B909490BA6ACA6A0E01D16B97
:10BFC0000F01526BCB68766A7768A4960001848172
:10BFD0008493010CBB2ACF0EBA140009BA6E000C70
:10BFE000BA0EE96E0F0EEA6EEF50300BE842E842EF
:10BFF000E842E842E82AE850030BF36EF46EF34699
:10C00000F346F346F346CF0EEF14F310EF6EF45001
:02C01000000C22
:0EC01200D9CFE6FFDACFE6FFE1CFD9FFE2CFCC
:10C02000DAFFE652E652E652E652D950F90F146EA4
:10C03000FF0EDA20156E020E14C0DBFF030E15C0D2
:10C04000DBFF020EDBCFE6FF030EDBCFE6FFF90ED0
:10C05000DBCFE6FFFA0EDBCFE6FFFB0EDBCFE6FF22
:10C06000D950FC0FE66EFF0EDA20E66E32EC50F08F
:10C07000146E070EE15C02E2E16AE552E16E1450D3
:10C08000F3CFDEFFF4CFDDFFFC0EDBCFE9FFFD0ECB
:10C09000DBCFEAFFEF6ADECF14F0DDCF15F014C07E
:10C0A000F3FF15C0F4FF040EE15C02E2E16AE55221
:0EC0B000E16EE552E5CFDAFFE7CFD9FF1200CF
:02C0BE001E0E54
:10C0C000F66EA00EF76E000EF86E00010900F55036
:10C0D000706F0900F550716F03E1706701D03DD0BA
:10C0E0000900F5506B6F0900F5506C6F0900F550B1
:10C0F0006D6F09000900F550E96E0900F550EA6E10
:10C10000090009000900F5506E6F0900F5506F6FC6
:10C1100009000900F6CF72F0F7CF73F0F8CF74F092
:10C120006BC0F6FF6CC0F7FF6DC0F8FF00016E53E7
:10C1300002E16F5307E00900F550EE6E6E07F8E27A
:10C140006F07F9D772C0F6FF73C0F7FF74C0F8FF2E
:0CC1500000017007000E715BBFD71200E9
:04C15C00D9CFE6FF52
:10C16000DACFE6FFE1CFD9FFE2CFDAFFFB0EDBCF7C
:10C1700014F0FC0EDBCF15F00001800E15141AE14F
:10C18000FB0EDBCFE9FFFC0EDBCFEAFFEECFF3FFC8
:10C19000EDCFF4FFEE2A000EEF22F3CFE9FFF4CF4C
:10C1A000EAFFFD0EDBCFEFFFEF50156AF36E15C00F
:10C1B000F4FF10D0FB0EDB50FE0806E1FD0EDBCFD6
:10C1C000E6FFDCEC61F005D0FD0EDBCFE6FF03EC13
:10C1D00050F0E552E552E5CFDAFFE7CFD9FF120084
:10C1E00006500B02F3CF02F0F4CF03F00C02F35031
:10C1F0000326000EF420046E06500D02F3500426B0
:10C20000000EF420056E06500E02F350052607506E
:10C210000B02F3500326F4500422000E05220750AF
:10C220000C02F3500426F450052207500D02F3507F
:10C23000052608500B02F3500426F450052208503E
:10C240000C02F350052609500B02F350052612008C
:10C25000FE0EE3CFE9FFFF0EE3CFEAFFF36AF46AD5
:10C26000EE5203E0F34AF42AFBD71200FF0EE3CFAD
:10C27000F8FFE552FF0EE3CFF7FFE552FF0EE3CFE5
:10C28000F6FFE552E66AE66AE66A0900F55209E059
:10C29000FD0EE32A05E1FE0EE32A02E1FF0EE32A8A
:10C2A000F4D7FD0EE3CF07F0FE0EE3CF08F0FF0E4C
:06C2B000E3CF09F01200CB
:0AC2B60009C013F008C012F0085090
:10C2C0000D02F4CF07F0F3CF06F009500E02F4CFC1
:10C2D00009F0F3CF08F00D02F3500726F4500822BE
:10C2E000E86A092212500E02F3500726F450082281
:10C2F000E86A09220EAE81EF61F01250085E135019
:10C30000095A13AE000C0D50085E0E50095A000C6D
:10C31000056A046A036A026A200EE76ED890063640
:10C3200007360836093602360336043605360B5012
:10C33000025C0C5003580D5004580E50055809E388
:10C340000B50025E0C50035A0D50045A0E50055A01
:08C35000062AE72EE4D71200D3
:08C35800F36AF46AFF0EE12410
:10C36000E96EFF0EE220EA6EED6607D02F0EEF6455
:0CC3700004D03A0EEF6001D0F32A120056
:04C37C00C00EF36E8E
:10C3800000EE00F00E0E01D81200EA6002D0EE6A54
:0CC39000FCD7F350E9601200EE6AFCD705
:04C39C001DEE00F0A2
:10C3A0002DEE00F0F86A019C5FEC60F009EC50F0B3
:08C3B0005FEC59F0FBD712000D
:08C3B800FF0EE350ADBA04D002
:10C3C000B06AAC8EAD8A949CADA2FED7AE6EF36E11
:04C3D000F46A1200F9
:0CC3D4003031323334353637383961628D
:05C3E0006364656600C6
:05C3E500000000000053
:01FFF800AA5E
:01FFF900F710
:01FFFA001FE7
:01FFFB00FF06
:01FFFC0063A1
:01FFFD00F80B
:01FFFE008181
:01FFFF00F110
:00000001FF
