:020000040000FA
:0600000013EF67F012008F
:0600080004EF50F01200AD
:060018000CEF50F0120095
:06A0000013EF67F01200EF
:02A00600120046
:06A008001CEF50F01200F5
:06A0180025EF50F01200DC
:02A01E0002003E
:10A0200042CE000000010000D0000000FFCB000085
:08A03000EF0100000100000037
:08A03800DACFE4FFE2CFDAFF0A
:10A04000E652E552E5CFDAFF1100D8CFE4FFE0CFCA
:10A05000E4FFE46EDACFE4FFE2CFDAFFE652E55246
:10A06000E5CFDAFFE550E5CFE0FFE5CFD8FF100000
:10A0700046EC64F0B1EC64F0E6EC62F031EC60F0D8
:10A08000E66A16EC61F0E5521200D9CFE6FFE1CFA7
:10A09000D9FF020EE1262CEC66F0000901E1FBD7A6
:10A0A000580EDE6E020EDD6E9B8CDFCF10F0DF06E9
:10A0B000010EDBCF11F001E2DB061050111001E0C0
:10A0C000F4D70F0148694969D3DF020EE15C02E26F
:10A0D000E16AE552E16EE552E7CFD9FF1200110EB9
:10A0E000C26E1200D9CFE6FFE1CFD9FF030EE12601
:10A0F000020EDF6EFE0EDB50C26EDF5004E0DF505A
:10A10000C214DF6EFAD7C450E66ED950010FE96E63
:10A11000DACFEAFFE552E750EE6EED6A010EDBCFD3
:10A1200010F0020EDBCF11F010C011F0106A010E1A
:10A1300010C0DBFF020E11C0DBFFC350E76E010E43
:10A14000DBCF10F0020EDBCF11F0E7501026000E2F
:10A150001122010E10C0DBFF020E11C0DBFF010E49
:10A16000DBCF10F0020EDBCF11F010C0F3FF11C0F7
:10A17000F4FF030EE15C03E200D0E16AE552E16E18
:10A18000E552E7CFD9FF120081B01FD0010101C114
:10A1900010F002C111F003C112F004C113F0012B41
:10A1A000000E022303230423D8800A0E1054000E4D
:10A1B0001154000E1254000E135406E2016B026B90
:10A1C000036B046B010E006F11D0010100050EE15D
:10A1D000015102110311041104E1006B010E08D0BA
:10A1E00005D00107000E025B035B045B000E00D08C
:10A1F0001200D9CFE6FFE1CFD9FF030EE126FE0E14
:10A20000DBCFE6FFC9EC63F0E552DF6EDF50E66EB0
:10A21000D950010FE96EDACFEAFFE552E750EE6E52
:10A22000ED6A010EDBCF10F0020EDBCF11F010C093
:10A2300011F0106A010E10C0DBFF020E11C0DBFF2F
:10A24000FE0EDB04E66EC9EC63F0E552DF6EDF5014
:10A25000106E116AD950010FE96EDACFEAFF105083
:10A26000EE261150ED22010EDBCF10F0020EDBCFF7
:10A2700011F0060ED89011321032E804FBE1010E05
:10A2800010C0DBFF020E11C0DBFFFE0EDB50070823
:10A290000BE1010EDBCF10F0020EDBCF11F010C08E
:10A2A000F3FF11C0F4FF1AD0010EDBCFE6FF020E60
:10A2B000DBCFE6FF1DD8E552E552DE52F3CFDEFFDD
:10A2C000F4CFDDFFDD52010EDBCF10F0020EDBCF4D
:10A2D00011F010C0F3FF11C0F4FF00D0030EE15CD9
:10A2E00002E2E16AE552E16EE552E7CFD9FF1200E2
:10A2F000D9CFE6FFE1CFD9FFFD0EDBCF10F0FE0E88
:10A30000DBCF11F0113404E21050FF08010E11549C
:10A310001EE2FD0EDBCF10F0FE0EDBCF11F0105071
:10A32000FC0E1112FD0E10C0DBFFFE0E11C0DBFF94
:10A33000FD0EDBCFE6FFFE0EDBCFE6FF17D8E552C2
:10A34000E552FD0EF3CFDBFFFE0EF4CFDBFFFD0E7B
:10A35000DBCF10F0FE0EDBCF11F010C0F3FF11C009
:10A36000F4FF00D0E552E7CFD9FF1200D9CFE6FFC6
:10A37000E1CFD9FFFD0EDB1C106EFE0EDB1C116E53
:10A38000FD0E10C0DBFFFE0E11C0DBFFD950FD0F2C
:10A39000E96EFF0EDA20EA6EEE2A000EED22FD0EC7
:10A3A000DBCF10F0FE0EDBCF11F0106C111E000E93
:10A3B000112210C0F3FF11C0F4FF00D0E552E7CF27
:10A3C000D9FF1200D9CFE6FFE1CFD9FFFD0EDBCFD9
:10A3D000E9FFFE0EDBCFEAFF200EEF6EFB0EDBCFB8
:10A3E000E9FFFC0EDBCFEAFF3E0EEF6EE552E7CF52
:10A3F000D9FF1200D9CFE6FFE1CFD9FF0101055106
:10A4000004E0056B010E066F0FD0065102E0000E4E
:10A4100001D0010E106E055102E0000E01D0010EB8
:10A42000101402E0010E056F066BFD0EDBCF10F07D
:10A43000FE0EDBCF11F010C0F3FF11C0F4FF00D00F
:10A44000E552E7CFD9FF1200180EE66EE66A070E56
:10A45000E66E010EE66E52EC62F0E552E552E55210
:10A46000E552120EE66E010EE66E110EE66E010E5C
:10A47000E66E52EC62F0E552E552E552E552E66ACC
:10A48000030EE66E4A0EE66E010EE66E52EC62F0C8
:10A49000E552E552E552E5523C0EE66E030EE66EDD
:10A4A000510EE66E010EE66E52EC62F0E552E55298
:10A4B000E552E552E66A050EE66E590EE66E010EAD
:10A4C000E66E52EC62F0E552E552E552E5523C0E82
:10A4D000E66E050EE66E600EE66E010EE66E52EC5E
:10A4E00062F0E552E552E552E55212002A0EE66EA0
:10A4F000E66A300EE66E010EE66E52EC62F0E55250
:10A50000E552E552E5521E0EE66E010EE66E1F0E96
:10A51000E66E010EE66E52EC62F0E552E552E5524F
:10A52000E552E66A020EE66E4A0EE66E010EE66E31
:10A5300052EC62F0E552E552E552E552E66A030E4E
:10A54000E66E510EE66E010EE66E52EC62F0E552DA
:10A55000E552E552E552E66A040EE66E590EE66EE5
:10A56000010EE66E52EC62F0E552E552E552E5521C
:10A57000E66A050EE66E600EE66E010EE66E52ECC1
:10A5800062F0E552E552E552E5521200D9CFE6FFFE
:10A59000E1CFD9FFE652390EDF6E2A0EE66EE66A8B
:10A5A000300EE66E010EE66E52EC62F0E552E552B8
:10A5B000E552E5521E0EE66E010EE66E280EE66EC0
:10A5C000010EE66E52EC62F0E552E552E552E552BC
:10A5D000010E0101CC6FCD6B070ECDAF02D0D8902C
:10A5E00003D0CC5D000ECD591CE2E66ACE51CC25DD
:10A5F000E66E660EE66E010EE66E52EC62F0E55215
:10A60000E552E552E552DF500101775D05E1310E7B
:10A61000766F300E776F01D0772BCC2B000ECD23C9
:10A62000DBD700D0E552E552E7CFD9FF12002A0E62
:10A63000E66EE66A300EE66E010EE66E52EC62F0F1
:10A64000E552E552E552E5520C0EE66E010EE66E5D
:10A65000390EE66E010EE66E52EC62F0E552E552FE
:10A66000E552E552E66A030EE66E790EE66E010EDD
:10A67000E66E52EC62F0E552E552E552E5521E0EEE
:10A68000E66E030EE66E790EE66E010EE66E52EC95
:10A6900062F0E552E552E552E5523C0EE66E030EDD
:10A6A000E66E790EE66E010EE66E52EC62F0E55251
:10A6B000E552E552E5525A0EE66E030EE66E790E4D
:10A6C000E66E010EE66E52EC62F0E552E552E5529E
:10A6D000E5520C0EE66E050EE66E7E0EE66E010E7F
:10A6E000E66E52EC62F0E552E552E552E5520101A8
:10A6F0007E2B2A0EE66E050EE66E7E0EE66E010ECF
:10A70000E66E52EC62F0E552E552E552E552010187
:10A710007E2B480EE66E050EE66E7E0EE66E010E90
:10A72000E66E52EC62F0E552E552E552E552010167
:10A730007E2B660EE66E050EE66E7E0EE66E010E52
:10A74000E66E52EC62F0E552E552E552E552010147
:10A75000310E7E6F12002A0EE66EE66A300EE66E4D
:10A76000010EE66E52EC62F0E552E552E552E5521A
:10A770000C0EE66E010EE66E800EE66E010EE66EC3
:10A7800052EC62F0E552E552E552E552240EE66ED7
:10A79000040EE66E920EE66E010EE66E52EC62F06C
:10A7A000E552E552E552E5521200180EE66EE66AF1
:10A7B000A90EE66E010EE66E52EC62F0E552E5522D
:10A7C000E552E552E66A010EE66EB60EE66E010E41
:10A7D000E66E52EC62F0E552E552E552E5521200A7
:10A7E000D9CFE6FFE1CFD9FFE66A16EC61F0E5527A
:10A7F000FD0EDBCF08F0FE0EDBCF09F0050E0818CA
:10A8000001E1095023E0040E081801E109501CE0A1
:10A81000030E081801E1095015E0020E081801E1C5
:10A8200009500EE0010E081801E1095007E0085038
:10A8300001E1095001E00CD007DE0AD057DE08D054
:10A84000A5DE06D0F4DE04D086DF02D0AEDF00D075
:10A85000E552E7CFD9FF1200D9CFE6FFE1CFD9FF0C
:10A86000310EE126DE6ADD6A170EDB6A180EDB6A3E
:10A87000190EDB6A1A0EDB6A1B0EDB6A1C0EDB6A22
:10A880001D0EDB6A1E0EDB6A1F0EDB6A200EDB6A02
:10A89000210EDB6A220EDB6A230EDB6A240EDB6AE2
:10A8A000250EDB6A260EDB6A1ADC45EC50F046EC1E
:10A8B00064F0B1EC64F0C8DD030EE66E49EC64F0C0
:10A8C000E552290EF3CFDBFF2A0EF4CFDBFFE66A59
:10A8D00049EC64F0E5522B0EF3CFDBFF2C0EF4CFE6
:10A8E000DBFF010EE66E49EC64F0E5522D0EF3CF6E
:10A8F000DBFF2E0EF4CFDBFF020EE66E49EC64F0B8
:10A90000E5522F0EF3CFDBFF300EF4CFDBFF110E3D
:10A91000C26E3ADC00090FE0190EDBCFE6FF1A0E1B
:10A92000DBCFE6FF67DDE552E552170EF3CFDBFF25
:10A93000180EF4CFDBFF130EC26E170EDBCF08F03C
:10A94000180EDBCF09F0050E081801E1095001E1EE
:10A95000A5D0040E081801E1095001E182D0030ED0
:10A96000081801E1095060E0020E081801E10950E1
:10A970003EE0010E081801E109501CE0085001E119
:10A98000095001E0A8D0D9CFE9FFDACFEAFFEE50B5
:10A99000ED100DE0170EDBCFE6FF180EDBCFE6FF64
:10A9A0001FDFE552E552250EDB6A260EDB6ADE6A02
:10A9B000DD6A91D0D9CFE9FFDACFEAFF010EEE18B8
:10A9C00001E1ED5010E0170EDBCFE6FF180EDBCFF4
:10A9D000E6FF06DFE552E552010EF36E250EF3CFDA
:10A9E000DBFF260EDB6A010EDE6EDD6A74D0D9CF86
:10A9F000E9FFDACFEAFF020EEE1801E1ED5010E0B8
:10AA0000170EDBCFE6FF180EDBCFE6FFE9DEE552DF
:10AA1000E552020EF36E250EF3CFDBFF260EDB6A46
:10AA2000020EDE6EDD6A57D0D9CFE9FFDACFEAFF3A
:10AA3000030EEE1801E1ED5010E0170EDBCFE6FF3C
:10AA4000180EDBCFE6FFCCDEE552E552030EF36EC7
:10AA5000250EF3CFDBFF260EDB6A030EDE6EDD6A0A
:10AA60003AD0D9CFE9FFDACFEAFF040EEE1801E1C0
:10AA7000ED5010E0170EDBCFE6FF180EDBCFE6FF40
:10AA8000AFDEE552E552040EF36E250EF3CFDBFF89
:10AA9000260EDB6A040EDE6EDD6A1DD0D9CFE9FF1B
:10AAA000DACFEAFF050EEE1801E1ED5010E0170EC7
:10AAB000DBCFE6FF180EDBCFE6FF92DEE552E55274
:10AAC000050EF36E250EF3CFDBFF260EDB6A050EB7
:10AAD000DE6EDD6A00D0D950250FE96EDACFEAFFCD
:10AAE000EE50ED1001E0D2D2190EDBCF08F01A0EB5
:10AAF000DBCF09F0040E081801E1095001E13AD258
:10AB0000030E081801E1095001E1ABD1020E08184B
:10AB100001E1095001E11CD1010E081801E10950C1
:10AB200001E18DD0085001E1095001E0ADD2290EBC
:10AB3000DBCF10F02A0EDBCF11F0D890115004E6D5
:10AB4000580E105C020E115809E2010EF36E190E38
:10AB5000F3CFDBFF1A0EDB6A97D271D02B0EDBCF5F
:10AB600010F02C0EDBCF11F0D890115004E6580EE7
:10AB7000105C020E11581FE2510EE66E010EE66ED9
:10AB80004A0EE66E010EE66E1DDCE552E552E55218
:10AB9000E552170EDBCFE6FF180EDBCFE6FF20DE17
:10ABA000E552E552020EF36E190EF3CFDBFF1A0EDB
:10ABB000DB6A6AD244D02F0EDBCF10F0300EDBCF31
:10ABC00011F0D890115004E6580E105C020E115886
:10ABD00020E2590EE66E010EE66E4A0EE66E010E9A
:10ABE000E66EE2EC51F0E552E552E552E552170E01
:10ABF000DBCFE6FF180EDBCFE6FFF2DDE552E552D4
:10AC0000030EF36E190EF3CFDBFF1A0EDB6A3CD294
:10AC100016D02D0EDBCF10F02E0EDBCF11F0D8901A
:10AC2000115004E6580E105C020E115808E2010E95
:10AC3000F36E190EF3CFDBFF1A0EDB6A25D2290E55
:10AC4000DBCF10F02A0EDBCF11F0D890115004E6C4
:10AC5000580E105C020E115809E2010EF36E190E27
:10AC6000F3CFDBFF1A0EDB6A0FD272D02B0EDBCFD5
:10AC700010F02C0EDBCF11F0D890115004E6580ED6
:10AC8000105C020E115820E2510EE66E010EE66EC7
:10AC90004A0EE66E010EE66EE2EC51F0E552E55228
:10ACA000E552E552170EDBCFE6FF180EDBCFE6FFCD
:10ACB00097DDE552E552020EF36E190EF3CFDBFF7E
:10ACC0001A0EDB6AE1D144D02F0EDBCF10F0300E2C
:10ACD000DBCF11F0D890115004E6580E105C020E34
:10ACE000115820E2590EE66E010EE66E4A0EE66E2F
:10ACF000010EE66EE2EC51F0E552E552E552E55206
:10AD0000170EDBCFE6FF180EDBCFE6FF69DDE5525D
:10AD1000E552030EF36E190EF3CFDBFF1A0EDB6A5A
:10AD2000B3D116D02D0EDBCF10F02E0EDBCF11F0ED
:10AD3000D890115004E6580E105C020E115808E22B
:10AD4000010EF36E190EF3CFDBFF1A0EDB6A9CD1F6
:10AD5000290EDBCF10F02A0EDBCF11F0D890115066
:10AD600004E6580E105C020E115820E24A0EE66E00
:10AD7000010EE66E510EE66E010EE66EE2EC51F04B
:10AD8000E552E552E552E552170EDBCFE6FF180E0D
:10AD9000DBCFE6FF25DDE552E552010EF36E190E1D
:10ADA000F3CFDBFF1A0EDB6A6FD15BD02B0EDBCF4C
:10ADB00010F02C0EDBCF11F0D890115004E6580E95
:10ADC000105C020E115809E2020EF36E190EF3CF59
:10ADD000DBFF1A0EDB6A58D144D02D0EDBCF10F00A
:10ADE0002E0EDBCF11F0D890115004E6580E105CF7
:10ADF000020E115809E2020EF36E190EF3CFDBFFBB
:10AE00001A0EDB6A41D12DD02F0EDBCF10F0300EA1
:10AE1000DBCF11F0D890115004E6580E105C020EF2
:10AE200011581FE2600EE66E010EE66E510EE66EE0
:10AE3000010EE66EE2EC51F0E552E552E552E552C4
:10AE4000170EDBCFE6FF180EDBCFE6FFC9DCE552BD
:10AE5000E552040EF36E190EF3CFDBFF1A0EDB6A18
:10AE600013D1290EDBCF10F02A0EDBCF11F0D890D2
:10AE7000115004E6580E105C020E115809E2030E40
:10AE8000F36E190EF3CFDBFF1A0EDB6AFDD072D022
:10AE90002B0EDBCF10F02C0EDBCF11F0D890115021
:10AEA00004E6580E105C020E115820E2600EE66EA9
:10AEB000010EE66E590EE66E010EE66EE2EC51F002
:10AEC000E552E552E552E552170EDBCFE6FF180ECC
:10AED000DBCFE6FF85DCE552E552040EF36E190E7A
:10AEE000F3CFDBFF1A0EDB6ACFD044D02D0EDBCFC1
:10AEF00010F02E0EDBCF11F0D890115004E6580E52
:10AF0000105C020E115820E24A0EE66E010EE66E4B
:10AF1000590EE66E010EE66EE2EC51F0E552E55296
:10AF2000E552E552170EDBCFE6FF180EDBCFE6FF4A
:10AF300057DCE552E552010EF36E190EF3CFDBFF3D
:10AF40001A0EDB6AA1D016D02F0EDBCF10F0300E18
:10AF5000DBCF11F0D890115004E6580E105C020EB1
:10AF6000115808E2030EF36E190EF3CFDBFF1A0E31
:10AF7000DB6A8AD0290EDBCF10F02A0EDBCF11F06E
:10AF8000D890115004E6580E105C020E115820E2C1
:10AF9000590EE66E010EE66E600EE66E010EE66E6E
:10AFA000E2EC51F0E552E552E552E552170EDBCFE7
:10AFB000E6FF180EDBCFE6FF13DCE552E552030E89
:10AFC000F36E190EF3CFDBFF1A0EDB6A5DD05CD097
:10AFD0002B0EDBCF10F02C0EDBCF11F0D8901150E0
:10AFE00004E6580E105C020E115809E2040EF36ECE
:10AFF000190EF3CFDBFF1A0EDB6A46D045D02D0EBB
:10B00000DBCF10F02E0EDBCF11F0D890115004E6FC
:10B01000580E105C020E115821E2510EE66E010E20
:10B02000E66E600EE66E010EE66EE2EC51F0E55261
:10B03000E552E552E552170EDBCFE6FF180EDBCFE7
:10B04000E6FFF0EC53F0E552E552020EF36E190EF6
:10B05000F3CFDBFF1A0EDB6A17D016D02F0EDBCF33
:10B0600010F0300EDBCF11F0D890115004E6580EDE
:10B07000105C020E115808E2040EF36E190EF3CFA5
:10B08000DBFF1A0EDB6A00D0F8EF5FF0D950250F16
:10B09000E96EDACFEAFF010EEE1801E1ED5001E0B2
:10B0A00020D1030EE66EF9EC50F0E552020EF3CF1C
:10B0B000DBFF030EF4CFDBFF020EDBCF10F0030E3D
:10B0C000DBCF11F0113404E210500A08000E1154C5
:10B0D0001FE2020EDBCF10F0030EDBCF11F01134B4
:10B0E00004E210500208000E11540CE2030EE66E4A
:10B0F000F9EC50F0E552020EF3CFDBFF030EF4CF74
:10B10000DBFFE7D7210EDB2A220E01E3DB2A2DD05D
:10B11000020EDBCF10F0030EDBCF11F0D880115000
:10B1200004E7F60E105CFF0E11581FE2020EDBCF93
:10B1300010F0030EDBCF11F0D880115004E7FE0EA3
:10B14000105CFF0E11580CE2030EE66EF9EC50F0A5
:10B15000E552020EF3CFDBFF030EF4CFDBFFE6D7A1
:10B16000210EDB06220E01E2DB06210EDBCF10F002
:10B17000220EDBCF11F00001800E111404E0210E2D
:10B18000DB6A220EDB6A210EDBCF10F0220EDBCF52
:10B1900011F0113404E210500408000E115407E2BB
:10B1A000040EF36E210EF3CFDBFF220EDB6A230EBB
:10B1B000DBCF10F0240EDBCF11F0210EDB50101886
:10B1C00003E1220EDB50111801E17DD0210EDBCF0F
:10B1D00008F0220EDBCF09F0030E081801E1095038
:10B1E00059E0020E081801E109503AE0010E081872
:10B1F00001E109501BE0085001E1095001E063D072
:10B2000001013E0E4A6F200E516F596F606F170E8D
:10B21000DBCFE6FF180EDBCFE6FFF0EC53F0E55294
:10B22000E552190EDB6A1A0EDB6A4DD00101200EC1
:10B230004A6F3E0E516F200E596F606F170EDBCFB5
:10B24000E6FF180EDBCFE6FFF0EC53F0E552E552D7
:10B25000010EF36E190EF3CFDBFF1A0EDB6A33D04B
:10B260000101200E4A6F516F3E0E596F200E606F24
:10B27000170EDBCFE6FF180EDBCFE6FFF0EC53F046
:10B28000E552E552020EF36E190EF3CFDBFF1A0EF4
:10B29000DB6A19D00101200E4A6F516F596F3E0EC3
:10B2A000606F170EDBCFE6FF180EDBCFE6FFF0EC8A
:10B2B00053F0E552E552030EF36E190EF3CFDBFFA8
:10B2C0001A0EDB6A00D0210EDBCF08F0220EDBCF96
:10B2D00009F0230E08C0DBFF240E09C0DBFFF8EFE6
:10B2E0005FF0D950250FE96EDACFEAFF020EEE18B3
:10B2F00001E1ED5001E011D3130EE66E72EC50F057
:10B30000E552270EF3CFDBFF280EF4CFDBFF3C0E18
:10B31000106E116A270EDBCF08F0280EDBCF09F084
:10B3200010C00DF011C00EF0C7EC66F0190E08C089
:10B33000DBFF1A0E09C0DBFF1D0EDBCF10F01E0E67
:10B34000DBCF11F0190EDB50101803E11A0EDB50A1
:10B35000111865E0190EDBCF10F01A0EDBCF11F0DB
:10B36000D890115004E6060E105C000E115810E241
:10B370000101300E766F310E776F170EDBCFE6FFCF
:10B38000180EDBCFE6FFF0EC53F0E552E5523BD070
:10B39000190EDBCF10F01A0EDBCF11F0D890115040
:10B3A00004E6060E105C000E11581EE3190EDBCFEA
:10B3B00012F01A0EDBCF13F0D890135004E60C0EE7
:10B3C000125C000E135810E20101300E766F370E3A
:10B3D000776F170EDBCFE6FF180EDBCFE6FFF0EC42
:10B3E00053F0E552E5520FD00101310E766F330E66
:10B3F000776F170EDBCFE6FF180EDBCFE6FFF0EC22
:10B4000053F0E552E552190EDBCF08F01A0EDBCFF0
:10B4100009F01D0E08C0DBFF1E0E09C0DBFF1D0E6C
:10B42000DBCF08F01E0EDBCF09F0110E081801E18A
:10B43000095001E15CD2100E081801E1095001E148
:10B4400037D20F0E081801E1095001E112D20E0E99
:10B45000081801E1095001E1EDD10D0E081801E1D4
:10B46000095001E1C8D10C0E081801E1095001E1B1
:10B47000ADD10B0E081801E1095001E192D10A0E7D
:10B48000081801E1095001E16DD1090E081801E128
:10B49000095001E148D1080E081801E1095001E105
:10B4A00023D1070E081801E1095001E108D1060E69
:10B4B000081801E1095001E1EDD0050E081801E17D
:10B4C000095001E1CBD0040E081801E1095001E157
:10B4D0009FD0030E081801E1095074E0020E08180D
:10B4E00001E1095049E0010E081801E109501EE090
:10B4F000085001E1095001E00FD2E66AB20EE66E93
:10B500003E0EE66EECEC61F0E552E552E552E66A7D
:10B51000B30EE66E200EE66EECEC61F0E552E552FD
:10B52000E552190EDB6A1A0EDB6AF6D1E66AB30E33
:10B53000E66E3E0EE66EECEC61F0E552E552E55249
:10B54000E66AB20EE66E200EE66EECEC61F0E552B5
:10B55000E552E552E66AB40EE66E200EE66EECECBD
:10B5600061F0E552E552E552010EF36E190EF3CF8C
:10B57000DBFF1A0EDB6AD0D1E66AB40EE66E3E0E31
:10B58000E66EECEC61F0E552E552E552E66AB30E88
:10B59000E66E200EE66EECEC61F0E552E552E55207
:10B5A000E66AB50EE66E200EE66EECEC61F0E55252
:10B5B000E552E552020EF36E190EF3CFDBFF1A0EC1
:10B5C000DB6AAAD1E66AB50EE66E3E0EE66EECECDC
:10B5D00061F0E552E552E552E66AB40EE66E200EE1
:10B5E000E66EECEC61F0E552E552E552E66AB60E25
:10B5F000E66E200EE66EECEC61F0E552E552E552A7
:10B60000030EF36E190EF3CFDBFF1A0EDB6A84D143
:10B61000E66AB60EE66E3E0EE66EECEC61F0E552C2
:10B62000E552E552E66AB50EE66E200EE66EECECEB
:10B6300061F0E552E552E552E66AB70EE66E200E7D
:10B64000E66EECEC61F0E552E552E552040EF36E65
:10B65000190EF3CFDBFF1A0EDB6A5ED1E66AB70E76
:10B66000E66E3E0EE66EECEC61F0E552E552E55218
:10B67000E66AB60EE66E200EE66EECEC61F0E55280
:10B68000E552E552050EF36E190EF3CFDBFF1A0EED
:10B69000DB6A42D1E66AB20EE66E3E0EE66EECEC76
:10B6A00061F0E552E552E552E66AB70EE66E200E0D
:10B6B000E66EECEC61F0E552E552E5522DD1E66A1A
:10B6C000B30EE66E3E0EE66EECEC61F0E552E5522E
:10B6D000E552E66AB20EE66E200EE66EECEC61F024
:10B6E000E552E552E55218D1E66AB40EE66E3E0E1A
:10B6F000E66EECEC61F0E552E552E552E66AB30E17
:10B70000E66E200EE66EECEC61F0E552E552E55295
:10B71000E66AB50EE66E200EE66EECEC61F0E552E0
:10B72000E552E552F9D0E66AB50EE66E3E0EE66EDB
:10B73000ECEC61F0E552E552E552E66AB40EE66ED5
:10B74000200EE66EECEC61F0E552E552E552E66A59
:10B75000B60EE66E200EE66EECEC61F0E552E552B8
:10B76000E552DAD0E66AB60EE66E3E0EE66EECEC18
:10B7700061F0E552E552E552E66AB50EE66E200E3E
:10B78000E66EECEC61F0E552E552E552E66AB70E82
:10B79000E66E200EE66EECEC61F0E552E552E55205
:10B7A000BBD0E66AB70EE66E3E0EE66EECEC61F0DC
:10B7B000E552E552E552E66AB60EE66E200EE66EFA
:10B7C000ECEC61F0E552E552E552A6D0E66AB20E25
:10B7D000E66E3E0EE66EECEC61F0E552E552E552A7
:10B7E000E66AB30EE66E200EE66EECEC61F0E55212
:10B7F000E552E55291D0E66AB30EE66E3E0EE66E75
:10B80000ECEC61F0E552E552E552E66AB20EE66E06
:10B81000200EE66EECEC61F0E552E552E552E66A88
:10B82000B40EE66E200EE66EECEC61F0E552E552E9
:10B83000E55272D0E66AB40EE66E3E0EE66EECECB1
:10B8400061F0E552E552E552E66AB30EE66E200E6F
:10B85000E66EECEC61F0E552E552E552E66AB50EB3
:10B86000E66E200EE66EECEC61F0E552E552E55234
:10B8700053D0E66AB50EE66E3E0EE66EECEC61F075
:10B88000E552E552E552E66AB40EE66E200EE66E2B
:10B89000ECEC61F0E552E552E552E66AB60EE66E72
:10B8A000200EE66EECEC61F0E552E552E55234D044
:10B8B000E66AB60EE66E3E0EE66EECEC61F0E55220
:10B8C000E552E552E66AB50EE66E200EE66EECEC49
:10B8D00061F0E552E552E552E66AB70EE66E200EDB
:10B8E000E66EECEC61F0E552E552E55215D0E66A01
:10B8F000B70EE66E3E0EE66EECEC61F0E552E552F8
:10B90000E552E66AB60EE66E200EE66EECEC61F0ED
:10B91000E552E552E55200D06BD3D950250FE96EC0
:10B92000DACFEAFF030EEE1801E1ED5001E0F5D2A7
:10B93000190EDBCF08F01A0EDBCF09F0040E081841
:10B9400001E1095001E13AD2030E081801E1095062
:10B9500001E186D1020E081801E1095001E1D2D0BF
:10B96000010E081801E109501FE0085001E10950DB
:10B9700001E0D2D20C0EE66EB70EE66E5E0EE66EFB
:10B98000ECEC61F0E552E552E552010EF36E190E52
:10B99000F3CFDBFF1A0EDB6A010EF36E1F0EF3CF3F
:10B9A000DBFF200EDB6AB8D21F0EDBCF10F0200EBB
:10B9B000DBCF11F0190EDB50101803E11A0EDB502B
:10B9C000111801E19ED0290EDBCF10F02A0EDBCF3B
:10B9D00011F0D890115004E6580E105C020E115868
:10B9E00042E2290EDBCF10F02A0EDBCF11F0D89007
:10B9F000115004E6BC0E105C020E11580CE2030E4E
:10BA0000E66E49EC64F0E552290EF3CFDBFF2A0E17
:10BA1000F4CFDBFFE6D7040EF36E190EF3CFDBFF96
:10BA20001A0EDB6A170EDBCFE6FF180EDBCFE6FF40
:10BA3000F0EC53F0E552E5520C0EE66EB70EE66EF2
:10BA4000200EE66EECEC61F0E552E552E552660E32
:10BA5000E66EB70EE66E5E0EE66EECEC61F0E55259
:10BA6000E552E5524ED02B0EDBCF10F02C0EDBCF83
:10BA700011F0D890115004E6580E105C020E1158C7
:10BA800040E22B0EDBCF10F02C0EDBCF11F0D89064
:10BA9000115004E6BC0E105C020E11580BE2E66A6F
:10BAA00049EC64F0E5522B0EF3CFDBFF2C0EF4CF04
:10BAB000DBFFE7D7020EF36E190EF3CFDBFF1A0E92
:10BAC000DB6A170EDBCFE6FF180EDBCFE6FFF0ECEC
:10BAD00053F0E552E5520C0EE66EB70EE66E200E00
:10BAE000E66EECEC61F0E552E552E5522A0EE66EA8
:10BAF000B70EE66E5E0EE66EECEC61F0E552E552D6
:10BB0000E5520AD21F0EDBCF10F0200EDBCF11F072
:10BB1000190EDB50101803E11A0EDB50111801E169
:10BB20009ED0290EDBCF10F02A0EDBCF11F0D8907B
:10BB3000115004E6580E105C020E115842E2290E14
:10BB4000DBCF10F02A0EDBCF11F0D890115004E6B5
:10BB5000BC0E105C020E11580CE2030EE66E49ECAE
:10BB600064F0E552290EF3CFDBFF2A0EF4CFDBFFA2
:10BB7000E6D7170EDBCFE6FF180EDBCFE6FFF0ECC3
:10BB800053F0E552E5522A0EE66EB70EE66E200E31
:10BB9000E66EECEC61F0E552E552E5520C0EE66E15
:10BBA000B70EE66E5E0EE66EECEC61F0E552E55225
:10BBB000E552010EF36E190EF3CFDBFF1A0EDB6AAE
:10BBC0004ED02B0EDBCF10F02C0EDBCF11F0D89027
:10BBD000115004E6580E105C020E115840E22B0E74
:10BBE000DBCF10F02C0EDBCF11F0D890115004E613
:10BBF000BC0E105C020E11580BE2E66A49EC64F0D0
:10BC0000E5522B0EF3CFDBFF2C0EF4CFDBFFE7D793
:10BC1000030EF36E190EF3CFDBFF1A0EDB6A170E5D
:10BC2000DBCFE6FF180EDBCFE6FFF0EC53F0E5527A
:10BC3000E5522A0EE66EB70EE66E200EE66EECECCE
:10BC400061F0E552E552E552480EE66EB70EE66E3B
:10BC50005E0EE66EECEC61F0E552E552E5525CD129
:10BC60001F0EDBCF10F0200EDBCF11F0190EDB50D2
:10BC7000101803E11A0EDB50111801E19ED0290EB5
:10BC8000DBCF10F02A0EDBCF11F0D890115004E674
:10BC9000580E105C020E115842E2290EDBCF10F054
:10BCA0002A0EDBCF11F0D890115004E6BC0E105CC8
:10BCB000020E11580CE2030EE66E49EC64F0E552F8
:10BCC000290EF3CFDBFF2A0EF4CFDBFFE6D7170EEA
:10BCD000DBCFE6FF180EDBCFE6FFF0EC53F0E552CA
:10BCE000E552020EF36E190EF3CFDBFF1A0EDB6A7C
:10BCF000480EE66EB70EE66E200EE66EECEC61F0D6
:10BD0000E552E552E5522A0EE66EB70EE66E5E0E7D
:10BD1000E66EECEC61F0E552E552E5524ED02B0EAA
:10BD2000DBCF10F02C0EDBCF11F0D890115004E6D1
:10BD3000580E105C020E115840E22B0EDBCF10F0B3
:10BD40002C0EDBCF11F0D890115004E6BC0E105C25
:10BD5000020E11580BE2E66A49EC64F0E5522B0E34
:10BD6000F3CFDBFF2C0EF4CFDBFFE7D7040EF36E2F
:10BD7000190EF3CFDBFF1A0EDB6A170EDBCFE6FFDF
:10BD8000180EDBCFE6FFF0EC53F0E552E552480E1B
:10BD9000E66EB70EE66E200EE66EECEC61F0E55254
:10BDA000E552E552660EE66EB70EE66E5E0EE66E84
:10BDB000ECEC61F0E552E552E552AED01F0EDBCF60
:10BDC00010F0200EDBCF11F0190EDB50101803E13C
:10BDD0001A0EDB50111801E19ED0290EDBCF10F0B6
:10BDE0002A0EDBCF11F0D890115004E6580E105CEB
:10BDF000020E115842E2290EDBCF10F02A0EDBCFE3
:10BE000011F0D890115004E6BC0E105C020E1158CF
:10BE10000CE2030EE66E49EC64F0E552290EF3CF16
:10BE2000DBFF2A0EF4CFDBFFE6D7170EDBCFE6FFF2
:10BE3000180EDBCFE6FFF0EC53F0E552E552030EAF
:10BE4000F36E190EF3CFDBFF1A0EDB6A660EE66E99
:10BE5000B70EE66E200EE66EECEC61F0E552E552B0
:10BE6000E552480EE66EB70EE66E5E0EE66EECEC40
:10BE700061F0E552E552E5524ED02B0EDBCF10F0CB
:10BE80002C0EDBCF11F0D890115004E6580E105C48
:10BE9000020E115840E22B0EDBCF10F02C0EDBCF40
:10BEA00011F0D890115004E6BC0E105C020E11582F
:10BEB0000BE2E66A49EC64F0E5522B0EF3CFDBFFB0
:10BEC0002C0EF4CFDBFFE7D7010EF36E190EF3CF84
:10BED000DBFF1A0EDB6A170EDBCFE6FF180EDBCF97
:10BEE000E6FFF0EC53F0E552E552660EE66EB70E53
:10BEF000E66E200EE66EECEC61F0E552E552E5529E
:10BF00000C0EE66EB70EE66E5E0EE66EECEC61F0C1
:10BF1000E552E552E55200D06BD0D950250FE96EBD
:10BF2000DACFEAFF040EEE1801E1ED5046E1050E0E
:10BF3000E66EF9EC50F0E552040EF3CFDBFF050E90
:10BF4000F4CFDBFF040EDBCF10F0050EDBCF11F0DA
:10BF5000113404E21050F408010E115404E2170EDB
:10BF6000DB6A180EDB6A040EDBCF10F0050EDBCFA8
:10BF700011F0113404E210506408000E11541CE258
:10BF8000040EDBCF12F0050EDBCF13F0D890135068
:10BF900004E6F40E125C010E13580EE21E0EE66E5D
:10BFA000060EE66E9C0EE66E010EE66E52EC62F038
:10BFB000E552E552E552E5521BD0D950250FE96E06
:10BFC000DACFEAFF050EEE1801E1ED5011E1110E96
:10BFD000C26EC4EC50F0000909E1170EDB6A180EBE
:10BFE000DB6A190EDB6A1A0EDB6AF3D7130EC26E18
:10BFF0005CEF54F0310EE15C02E2E16AE552E16E81
:08C00000E552E7CFD9FF120061
:08C00800D9CFE6FFE1CFD9FF1B
:10C01000020EE126FD0EDBCF10F0DB06FE0EDBCFBD
:10C0200011F001E2DB061050111011E0DE6ADD6A4A
:10C03000DECF10F0DDCF11F0E30E105C0D0E1158C5
:10C0400005E2DF2A010E01E3DB2AF2D7E3D7020E75
:10C05000E15C02E2E16AE552E16EE552E7CFD9FF29
:10C060001200D9CFE6FFE1CFD9FF060EE1268D926F
:10C0700096928D9096908D8496948A9A939A8C92AB
:10C08000DE6ADE6ADE6ADD6ADD52DD52D9CFE9FFA3
:10C09000DACFEAFF640EEE5C000EEE58000EEE58AA
:10C0A000000EEE580AE2D9CFE9FFDACFEAFFEE2A16
:10C0B000000EEE22EE22EE22E9D78C82DE6ADE6AE4
:10C0C000DE6ADD6ADD52DD52D9CFE9FFDACFEAFF61
:10C0D000640EEE5C000EEE58000EEE58000EEE58A8
:10C0E0000AE2D9CFE9FFDACFEAFFEE2A000EEE220C
:10C0F000EE22EE22E9D7AE0EE66E70D8E552DB0EE8
:10C10000E66E6CD8E552230EE66E68D8E552D90E7D
:10C11000E66E64D8E552220EE66E60D8E552A10EB6
:10C12000E66E5CD8E552C80EE66E58D8E552DA0ED7
:10C13000E66E54D8E552120EE66E50D8E552A80EBF
:10C14000E66E4CD8E5523F0EE66E48D8E552D50E65
:10C15000E66E44D8E552A00EE66E40D8E552810E58
:10C16000E66E3CD8E552600EE66E38D8E552D30E46
:10C17000E66E34D8E552E66A31D8E552A60EE66E90
:10C180002DD8E552AD0EE66E29D8E5528B0EE66E3F
:10C1900025D8E552AF0EE66E21D8E5520A0EE66EBE
:10C1A000E66A32DFE552E552A40EE66E17D8E55294
:10C1B000400EE66E13D8E552020EE66E0FD8E55239
:10C1C000100EE66E0BD8E552060EE15C02E2E16A63
:10C1D000E552E16EE552E7CFD9FF1200D9CFE6FF75
:10C1E000E1CFD9FF956AFE0EDB508C6E8D808D827B
:10C1F0008A9A8D948D928D828D849568E552E7CFD1
:10C20000D9FF1200D9CFE6FFE1CFD9FF956AFE0E24
:10C21000DB508C6E8D808D828A8A8D948D928D827A
:10C220008D849568E552E7CFD9FF1200D9CFE6FF9C
:10C23000E1CFD9FF020EE126B00EDF6EB80EDF5C53
:10C2400023E2DFCFE6FFCADFE552020EE66EC6DF6D
:10C25000E552100EE66EC2DFE552010EDB6ADB50DE
:10C26000106E116AD890115004E6840E105C000E16
:10C27000115808E2FE0EDBCFE6FFC4DFE552010EE7
:10C28000DB2AEDD7DF2ADAD7020EE15C03E200D029
:10C29000E16AE552E16EE552E7CFD9FF1200D9CF4E
:10C2A000E6FFE1CFD9FF200E106EFE0EDBCFE7FFD9
:10C2B0001050E75EFE0EE7CFDBFFDBCFF6FFF76A3D
:10C2C000F6BEF768050EF702F3CFF7FFF602F3CFDD
:10C2D000F6FFF450F726240EF626CA0EF7220800C1
:10C2E000F550E66E8FDFE552FE0EDBCFF6FFF76A04
:10C2F000F6BEF768050EF702F3CFF7FFF602F3CFAD
:10C30000F6FFF450F726240EF626CA0EF722010E89
:10C31000F626000EF7220800F550E66E73DFE552B0
:10C32000FE0EDBCFF6FFF76AF6BEF768050EF702E2
:10C33000F3CFF7FFF602F3CFF6FFF450F726240E03
:10C34000F626CA0EF722020EF626000EF722080085
:10C35000F550E66E57DFE552FE0EDBCFF6FFF76ACB
:10C36000F6BEF768050EF702F3CFF7FFF602F3CF3C
:10C37000F6FFF450F726240EF626CA0EF722030E17
:10C38000F626000EF7220800F550E66E3BDFE55278
:10C39000FE0EDBCFF6FFF76AF6BEF768050EF70272
:10C3A000F3CFF7FFF602F3CFF6FFF450F726240E93
:10C3B000F626CA0EF722040EF626000EF722080013
:10C3C000F550E66E1FDFE552E66A1CDFE55200D04D
:10C3D000E552E7CFD9FF1200D9CFE6FFE1CFD9FF71
:10C3E000E652FD0EDBCFE6FFF9DEE552020E106EDF
:10C3F000FC0EDBCFE7FF1050E726FC0EE7CFDBFF9C
:10C40000DB500F0BE66EEADEE552FC0EDB380F0B5D
:10C410000F0B100FE66EE2DEE552FE0EDBCFE6FFFD
:10C420003EDFE55200D0E552E552E7CFD9FF1200DA
:10C43000D9CFE6FFE1CFD9FFFC0EDB50B00FE76E9E
:10C44000FC0EE7CFDBFFFB0EDBCFE6FFFC0EDBCF06
:10C45000E6FFFD0EDBCFF6FFFE0EDBCFF7FF080099
:10C46000F550E66EB9DFE552E552E552FD0EDB2AE6
:10C47000DBCFF6FFFE0E01E3DB2ADBCFF7FF080080
:10C48000F5500CE0FD0EDBCFF6FFFE0EDBCFF7FF25
:10C490000800F550E66E03DFE552E8D7E552E7CF36
:10C4A000D9FF1200D9CFE6FFE1CFD9FFFC0EDB5058
:10C4B000B00FE76EFC0EE7CFDBFFFB0EDBCFE6FF36
:10C4C000FC0EDBCFE6FFFD0EDBCFE9FFFE0EDBCF80
:10C4D000EAFFEF50E66E80DFE552E552E552FD0ED1
:10C4E000DB2ADBCFE9FFFE0E01E3DB2ADBCFEAFF2D
:10C4F000EF500BE0FD0EDBCFE9FFFE0EDBCFEAFFD6
:10C50000EF50E66ECCDEE552EAD7E552E7CFD9FF31
:10C510001200D9CFE6FFE1CFD9FF050EE126030EC9
:10C52000DB6A040EDB6A020E106EFA0EDBCFE7FF49
:10C530001050E726FA0EE7CFDBFFF90EDB50B00F05
:10C54000DF6EFB0EDB50B00FDF5C35E2DFCFE6FFC6
:10C5500045DEE552FA0EDB500F0BE66E3FDEE5528C
:10C56000FA0EDB380F0B0F0B1009E66E37DEE552C3
:10C57000010EDB6AFC0EDB50F36E010EDBCFF4FF25
:10C58000F350F45C16E2030EDB2A040E01E3DB2A0F
:10C59000FD0EDBCFF6FFDB2AFE0EDBCFF7FF01E35C
:10C5A000DB2A0800F550E66E2DDEE552010EDB2A8F
:10C5B000E1D7DF2AC6D7050EE15C03E200D0E16ACD
:0CC5C000E552E16EE552E7CFD9FF120012
:04C5CC00D9CFE6FFDE
:10C5D000E1CFD9FF030EE12659D8736A820E726E3D
:10C5E000739C94949396958C7288728A949EE66A52
:10C5F000D0D8E552E76E020EE7CFDBFF0000D9503E
:10C60000020FE96EDACFEAFFEF50070B020801E0F4
:10C610000000140EE66EBDD8E552E76E020EE7CFBD
:10C62000DBFF020EDB96DB88020EDB80DB92DB9405
:10C63000020EDBCFE6FF140EE66E3AD8E552E55265
:10C64000010EE66EA6D8E552DE6EDD6A0000110E20
:10C65000E66E9FD8E552DE6EDD6A0000E66A110ED6
:10C66000E66E26D8E552E5520000110EE66E91D82E
:10C67000E552DE6EDD6A0000030EE15C02E2E16A73
:10C68000E552E16EE552E7CFD9FF1200550EA76ED5
:10C69000AA0EA76E0E01FF91090ECC6F0A0ED36F82
:10C6A000170EFB6F550EA76EAA0EA76EFF81120024
:10C6B000D9CFE6FFE1CFD9FFE652DF6AFE0EDB50AD
:10C6C000140804E0FE0EDB50340806E1140EE66E9A
:10C6D00060D8E552E00BDF6E8B9EA49EFE0EDB5011
:10C6E000756EA4AEFED70000000000000000000040
:10C6F000000000000000000000000000000000003A
:10C700000000000000000000000000000000000029
:10C710000000000000000000000000000000000019
:10C720000000000000000000000000000000000009
:10C7300000000000000000000000000000000000F9
:10C7400000000000000000000000000000000000E9
:10C7500000000000000000000000000000000000D9
:10C76000000000000000A49EFE0EDB500A0805E158
:10C77000FD0EDB507F0B756E04D0FD0EDB50DF101D
:10C78000756EA4AEFED78B8EE552E552E7CFD9FF8A
:10C790001200D9CFE6FFE1CFD9FF8B9EA49EFE0EFB
:10C7A000DB508009756EA4AEFED7000000000000CB
:10C7B0000000000000000000000000000000000079
:10C7C0000000000000000000000000000000000069
:10C7D0000000000000000000000000000000000059
:10C7E0000000000000000000000000000000000049
:10C7F0000000000000000000000000000000000039
:10C800000000000000000000000000000000000028
:10C810000000000000000000000000000000000018
:10C8200000000000000000000000A49E756AA4AE95
:10C83000FED78B8E755000D0E552E7CFD9FF12009E
:10C84000030EB16EB392B390B396B288B28EB2902B
:10C85000B292A494B38E12002F0E926E0F01E00ECE
:10C86000486F1F0E496FC18EC19CC70EC1140809C5
:10C87000C16EF80EC1140209C16E498FC29CC29EDE
:10C88000C30EC2140809C26EC2801200D9DF2CEF99
:10C8900064F0D9CFE6FFE1CFD9FF020EE126FE0E0C
:10C8A000DB500F0BF36EF346F346C30EC214F310C6
:10C8B000C26EFE0EDB50EA6AEB0FE96E010EEA2251
:10C8C000EF503F0BF36EF346F346030EB114F31033
:10C8D000B16EB38EB38200000000000000000000C3
:10C8E0000000000000000000000000000000000048
:10C8F0000000000000000000000000000000B392F3
:10C90000B2800000000000000000000000000000F5
:10C910000000000000000000000000000000000017
:10C9200000000000000000000000B2909E9CC28247
:10C930009EACFED7C3CFDEFFC4CFDDFFDECF10F04D
:10C94000DDCF11F010C0F3FF11C0F4FF00D0020ED4
:10C95000E15C02E2E16AE552E16EE552E7CFD9FF20
:10C960001200D9CFE6FFE1CFD9FF030EE126020E78
:10C97000DB6A040EF36E020EDBCFF4FFF350F45CBF
:10C9800021E22AD8EF6A30D80CE226D8EF501F08EF
:10C9900003E122D8EF6A13D01FD8EF2A25D8F5E398
:10C9A0000ED02CD80CE218D8EF50E10803E114D8CF
:10C9B000EF6A05D011D8EF062BD820D8F4E3020E89
:10C9C000DB2AD7D7030EE15C02E2E16AE552E16EB1
:10C9D000E552E7CFD9FF1200020EDB50EA6AEB0FF7
:10C9E000E96E010EEA22120013D8DECF10F0DDCF7F
:10C9F00011F0200E105C030E11581200D9CFE9FF80
:10CA0000DACFEAFF200ED880EE54030EED54120068
:10CA1000020EDBCFE6FF3DDFE552F3CFDEFFF4CFC2
:04CA2000DDFF120024
:0CCA2400000000000000004F00000007B0
:10CA3000000700147F147F14242A7F2A122313086E
:10CA4000646236495522500005030000001C224153
:10CA5000000041221C0014083E081408083E080883
:10CA6000005030000008080808080060600000203E
:10CA7000100804023E5149453E00427F4000426199
:10CA80005149462141454B311814127F1027454525
:10CA900045393C4A4949300171090503364949493C
:10CAA00036064949291E0036360000005636000079
:10CAB0000814224100141414141400412214080212
:10CAC00001510906324979413E7E1111117E7F499B
:10CAD0004949363E414141227F4141221C7F49491B
:10CAE00049417F090909013E4149497A7F080808FF
:10CAF0007F00417F41002040413F017F08142241D7
:10CB00007F404040407F020C027F7F0408107F3E40
:10CB10004141413E7F090909063E4151215E7F099D
:10CB2000192946464949493101017F01013F4040E9
:10CB3000403F1F2040201F3F4038403F63140814EF
:10CB40006307087008076151494543007F41410070
:10CB500002040810200041417F0004020102044049
:10CB600040404040000102040020545454787F4863
:10CB70004444383844444420384444487F3854546A
:10CB80005418087E0901020C5252523E7F080404D8
:10CB90007800447D40002040443D007F1028440040
:10CBA00000417F40007C041804787C080404783835
:10CBB000444444387C14141408081414187C7C0869
:10CBC0000404084854545420043F4440203C40404E
:10CBD000207C1C2040201C3C4030403C4428102835
:10CBE000440C5050503C4464544C440008364100BE
:0FCBF00000007F0000004136080002010204022D
:01CBFF000035
:10CC00000101EFB122D0EF838B809490550EA76E77
:10CC1000AA0EA76E0E01FF910E0ED16F550EA76ED4
:10CC2000AA0EA76EFF810F0EBA6ECF0EBA140009BE
:10CC3000BA6EBB6A0F01526B800ECB6E040ECA6EC9
:10CC4000A496600E776E7F0E766E12000101EF9152
:10CC5000EF938B80949012000101EFA109D08B50CB
:10CC6000010B04E19450010B01E1010CEF91C8DFCD
:10CC70000101EFA3C5DFA4A63AD0A496BA50300BA9
:10CC8000E842E842E842E842030819E1400EBB5C92
:10CC900010E18B909490BA6ACA6A0E01D16B0F01B1
:10CCA000526BCB68766A7768A4960101EF81EF93A7
:10CCB000010CBB2ACF0EBA140009BA6E000CBA0ED2
:10CCC000E96E0F0EEA6EEF50300BE842E842E842A0
:10CCD000E842E82AE850030BF36EF46EF346F3469D
:10CCE000F346F346CF0EEF14F310EF6EF450000C42
:10CCF0001E0EF66EA00EF76E000EF86E0101090012
:10CD0000F550E06F0900F550E16F03E1E06701D0F5
:10CD10003DD00900F550DB6F0900F550DC6F0900CC
:10CD2000F550DD6F09000900F550E96E0900F55076
:10CD3000EA6E090009000900F550DE6F0900F550A0
:10CD4000DF6F09000900F6CFE2F1F7CFE3F1F8CF8A
:10CD5000E4F1DBC1F6FFDCC1F7FFDDC1F8FF010143
:10CD6000DE5302E1DF5307E00900F550EE6EDE0707
:10CD7000F8E2DF07F9D7E2C1F6FFE3C1F7FFE4C14C
:0ECD8000F8FF0101E007000EE15BBFD71200D3
:02CD8E00006A39
:10CD90000EAED0EF66F00D6C0E1EE86A0E22001E7D
:10CDA00009AED8EF66F0086C091EE86A0922001E79
:10CDB000EDEC66F009BEE8EF66F000AE000C086C22
:10CDC000091EE86A0922046C051EE86A0522000CA7
:0ACDD00000BEDFEF66F00188FF0CE3
:06CDDA00056A046A100E58
:10CDE000E76ED89008360936043605360D50045CD7
:10CDF0000E50055805E30D50045E0E50055A082AE2
:06CE0000E72EF0D712003E
:0ACE0600C00EF36E00EE00F00E0EF9
:10CE100001D81200EA6002D0EE6AFCD7F350E96054
:06CE20001200EE6AFCD7CF
:0ACE26001DEE00F02DEE00F0F86A9A
:10CE3000019C78EC66F003EC50F02CEC54F0FBD73E
:02CE40001200DE
:0ECE4200000000000001014D61696E204D6589
:10CE50006E750055736520546F756368205061646A
:10CE6000005573652054696C740055736520506FCC
:10CE70007400537562204D656E7500557365204CC6
:10CE80006566742026205269676874003E466972A0
:10CE9000737400205365636F6E6400205468697278
:10CEA000640020466F75720020457865637574656F
:10CEB00020416374696F6E203031004578656300EE
:10CEC00031005368616B65204D6520546F205265B9
:10CED000736574005368616B65204E6F770053680B
:10CEE000616B6520486172646572005375622053FE
:10CEF0007562204D656E75004A75737420507265B9
:10CF000073732054686520427574746F6E0001005D
:02CF100001001E
:01FFF800AA5E
:01FFF900F710
:01FFFA001FE7
:01FFFB00FF06
:01FFFC0063A1
:01FFFD00F80B
:01FFFE008181
:01FFFF00F110
:00000001FF
