:020000040000FA
:0600000096EF68F012000B
:0600080004EF50F01200AD
:060018000CEF50F0120095
:06A0000096EF68F012006B
:02A00600120046
:06A008001CEF50F01200F5
:02A00E002564C7
:01A01000004F
:02A0120012003A
:06A0180025EF50F01200DC
:02A01E0002003E
:10A0200075D10000600000006C00000039CC000019
:08A03000FD000000010000002A
:08A03800DACFE4FFE2CFDAFF0A
:10A04000E652E552E5CFDAFF1100D8CFE4FFE0CFCA
:10A05000E4FFE46EDACFE4FFE2CFDAFFE652E55246
:10A06000E5CFDAFFE550E5CFE0FFE5CFD8FF100000
:10A0700063EC64F0CEEC64F003EC63F04EEC60F063
:10A08000E66A33EC61F0E5521200D9CFE6FFE1CF8A
:10A09000D9FF020EE12649EC66F0000901E1FBD789
:10A0A000580EDE6E020EDD6E9B8CDFCF14F0DF06E5
:10A0B000010EDBCF15F001E2DB061450151001E0B4
:10A0C000F4D70F0148694969D3DF020EE15C02E26F
:10A0D000E16AE552E16EE552E7CFD9FF1200110EB9
:10A0E000C26E1200D9CFE6FFE1CFD9FFFD0EDBCF64
:10A0F00014F0FE0EDBCF15F00001800E15145FE0AA
:10A10000FD0EDBCF14F0FE0EDBCF15F0153404E3AB
:10A1100014501808FC0E155444E2FD0EDBCF14F069
:10A12000FE0EDBCF15F0153404E314509C08FF0E2F
:10A13000155429E2FD0EDBCF14F0FE0EDBCF15F037
:10A14000153404E31450F608FF0E15540EE2020E07
:10A15000E76EFB0EDBCFE9FFFC0EDBCFEAFFE7503B
:10A16000E926000EEA22200EEF6E030EE76EFB0ECC
:10A17000DBCFE9FFFC0EDBCFEAFFE750E926000E5C
:10A18000EA22200EEF6E040EE76EFB0EDBCFE9FF36
:10A19000FC0EDBCFEAFFE750E926000EEA22200E94
:10A1A000EF6E050EE76EFB0EDBCFE9FFFC0EDBCF9B
:10A1B000EAFFE750E926000EEA22EF6A61D0FD0EC1
:10A1C000DBCF14F0FE0EDBCF15F0D890155004E66F
:10A1D000E80E145C030E155853E2FD0EDBCF14F0AD
:10A1E000FE0EDBCF15F0D890155004E6640E145C1B
:10A1F000000E15582AE2FD0EDBCF14F0FE0EDBCF69
:10A2000015F0D890155004E60A0E145C000E15588F
:10A210000EE2010EE76EFB0EDBCFE9FFFC0EDBCF9B
:10A22000EAFFE750E926000EEA22200EEF6E020E4A
:10A23000E76EFB0EDBCFE9FFFC0EDBCFEAFFE7505A
:10A24000E926000EEA22200EEF6E030EE76EFB0EEB
:10A25000DBCFE9FFFC0EDBCFEAFFE750E926000E7B
:10A26000EA22200EEF6E040EE76EFB0EDBCFE9FF55
:10A27000FC0EDBCFEAFFE750E926000EEA22EF6A88
:10A28000E552E7CFD9FF1200D9CFE6FFE1CFD9FFE2
:10A29000020EE126FE0EDBCFE6FF3AD8E552F3CF01
:10A2A000DEFFF4CFDDFFDECFE6FFDDCFE6FF0E0EF3
:10A2B000146EA00E156E166A14C0E6FF15C0E6FFF8
:10A2C00016C0E6FFFC0EDBCFE6FFFD0EDBCFE6FFA0
:10A2D00095EC66F0176E070EE15E1750FC0EDBCFB3
:10A2E000E6FFFD0EDBCFE6FFDECFE6FFDDCFE6FFCC
:10A2F000F9DEE552E552E552E552020EE15C03E279
:10A3000000D0E16AE552E16EE552E7CFD9FF1200D5
:10A31000D9CFE6FFE1CFD9FF030EE126020EDF6EB3
:10A32000FE0EDB50C26EDF5004E0DF50C214DF6E61
:10A33000FAD7C450E66ED950010FE96EDACFEAFFC2
:10A34000E552E750EE6EED6A010EDBCF14F0020E1F
:10A35000DBCF15F014C015F0146A010E14C0DBFF3A
:10A36000020E15C0DBFFC350E76E010EDBCF14F009
:10A37000020EDBCF15F0E7501426000E1522010E59
:10A3800014C0DBFF020E15C0DBFF010EDBCF14F0A3
:10A39000020EDBCF15F014C0F3FF15C0F4FF030E5F
:10A3A000E15C03E200D0E16AE552E16EE552E7CFFD
:10A3B000D9FF120081B01FD0000161C014F062C04B
:10A3C00015F063C016F064C017F0612B000E622315
:10A3D00063236423D8800A0E1454000E1554000E13
:10A3E0001654000E175406E2616B626B636B646B6C
:10A3F000010E606F11D0000160050EE16151621124
:10A400006311641104E1606B010E08D005D061078F
:10A41000000E625B635B645B000E00D01200D9CF5C
:10A42000E6FFE1CFD9FF030EE126FE0EDBCFE6FF0C
:10A43000E6EC63F0E552DF6EDF50E66ED950010FB7
:10A44000E96EDACFEAFFE552E750EE6EED6A010EF3
:10A45000DBCF14F0020EDBCF15F014C015F0146A38
:10A46000010E14C0DBFF020E15C0DBFFFE0EDB0485
:10A47000E66EE6EC63F0E552DF6EDF50146E156AAF
:10A48000D950010FE96EDACFEAFF1450EE261550CD
:10A49000ED22010EDBCF14F0020EDBCF15F0060E1D
:10A4A000D89015321432E804FBE1010E14C0DBFF32
:10A4B000020E15C0DBFFFE0EDB5007080BE1010E9C
:10A4C000DBCF14F0020EDBCF15F014C0F3FF15C084
:10A4D000F4FF1AD0010EDBCFE6FF020EDBCFE6FF62
:10A4E0001DD8E552E552DE52F3CFDEFFF4CFDDFF9B
:10A4F000DD52010EDBCF14F0020EDBCF15F014C0DD
:10A50000F3FF15C0F4FF00D0030EE15C02E2E16A44
:10A51000E552E16EE552E7CFD9FF1200D9CFE6FF51
:10A52000E1CFD9FFFD0EDBCF14F0FE0EDBCF15F02F
:10A53000153404E21450FF08010E15541EE2FD0EFE
:10A54000DBCF14F0FE0EDBCF15F01450FC0E15120D
:10A55000FD0E14C0DBFFFE0E15C0DBFFFD0EDBCFD2
:10A56000E6FFFE0EDBCFE6FF17D8E552E552FD0E03
:10A57000F3CFDBFFFE0EF4CFDBFFFD0EDBCF14F0DD
:10A58000FE0EDBCF15F014C0F3FF15C0F4FF00D0B2
:10A59000E552E7CFD9FF1200D9CFE6FFE1CFD9FFCF
:10A5A000FD0EDB1C146EFE0EDB1C156EFD0E14C0C2
:10A5B000DBFFFE0E15C0DBFFD950FD0FE96EFF0E6D
:10A5C000DA20EA6EEE2A000EED22FD0EDBCF14F04B
:10A5D000FE0EDBCF15F0146C151E000E152214C0F4
:10A5E000F3FF15C0F4FF00D0E552E7CFD9FF12000A
:10A5F000D9CFE6FFE1CFD9FF020EE126FD0EDBCF7A
:10A60000E9FFFE0EDBCFEAFF230EEF6E010EDE6EDA
:10A61000DD6ADECF14F0DDCF15F0D890155004E6DA
:10A62000140E145C000E155813E2FD0EDBCF14F06F
:10A63000FE0EDBCF15F0DE501424E96EDD50152040
:10A64000EA6E240EEF6EDF2A010E01E3DB2AE1D76A
:10A65000FD0EDBCF14F0FE0EDBCF15F0DE50142420
:10A66000E96EDD501520EA6E250EEF6E0A0EE76EDC
:10A67000FD0EDBCFE9FFFE0EDBCFEAFFE750E92658
:10A68000000EEA22260EEF6E020EE15C02E2E16AA3
:10A69000E552E16EE552E7CFD9FF1200D9CFE6FFD0
:10A6A000E1CFD9FF270EE1261ADDEFDC110EDB6AC0
:10A6B000120EDB6A010EF36E130EF3CFDBFF220ED8
:10A6C000DB6A230EDB6A0D0EDB6A0E0EDB6A090EF7
:10A6D000DB6A0A0EDB6A0F0EDB6A100EDB6A0B0EFA
:10A6E000DB6A0C0EDB6A240EE66EE66AC00EE66ECE
:10A6F000000EE66E6FEC62F0E552E552E552E5526F
:10A70000E66A010EE66E720EE66E000EE66E6FEC05
:10A7100062F0E552E552E552E552E66A030EE66E56
:10A72000880EE66E000EE66E6FEC62F0E552E552C2
:10A73000E552E552E66A050EE66E9E0EE66E000EE6
:10A74000E66E6FEC62F0E552E552E552E552E66ADC
:10A75000070EE66E6B0EE66E000EE66E6FEC62F0B4
:10A76000E552E552E552E552300EE66E020EE66E17
:10A77000BA0EE66E000EE66E6FEC62F0E552E55240
:10A78000E552E552300EE66E040EE66EB40EE66E4D
:10A79000000EE66E6FEC62F0E552E552E552E552CE
:10A7A0006C0EE66EE66ACA0EE66E000EE66E6FECA2
:10A7B00062F0E552E552E552E552130EC26EFADD43
:10A7C00000094AE0130EDB501AE0130EDB6A0001A9
:10A7D0007D0ECA6F6C0EE66EE66ACA0EE66E000E5D
:10A7E000E66E6FEC62F0E552E552E552E552010E7D
:10A7F000F36E110EF3CFDBFF120EDB6A29D0D950B6
:10A80000110FE96EDACFEAFFEE50ED1002E0000E14
:10A8100001D0010E146E130EDB5002E0000E01D0C9
:10A82000010E141415E0010EF36E130EF3CFDBFFCF
:10A8300000017E0ECA6F6C0EE66EE66ACA0EE66E08
:10A84000000EE66E6FEC62F0E552E552E552E5521D
:10A85000110EDB6A120EDB6A110EC26ECC0EE66EB2
:10A86000000EE66E130EE66E0FDDE552E552E55280
:10A87000130EE66E4DDDE5521E0EF3CFDBFF1F0E0D
:10A88000F4CFDBFFE66AE66ACC0EE66E000EE66EFB
:10A890006FEC62F0E552E552E552E552320E146E6D
:10A8A000156A1E0EDBCF08F01F0EDBCF09F014C0B7
:10A8B0000DF015C00EF0EBEC66F0200E08C0DBFFCB
:10A8C000210E09C0DBFF220EDBCF14F0230EDBCFFD
:10A8D00015F0153404E214500008000E155410E26F
:10A8E000220EDBCFE9FFDB06230EDBCFEAFF01E21E
:10A8F000DB06720EE926000EEA22240EEF6EE3D785
:10A90000220EDB6A230EDB6A200EDBCF14F0210E51
:10A91000DBCF15F0153404E214500008000E155476
:10A9200017E2220EDBCFE9FF230EDBCFEAFF720E28
:10A93000E926000EEA22260EEF6E200EDB06210E1F
:10A9400001E2DB06220EDB2A230E01E3DB2ADCD741
:10A95000E66A010EE66E720EE66E000EE66E6FECB3
:10A9600062F0E552E552E552E5520F0EE66ED0DC9C
:10A97000E552140EF3CFDBFF150EF4CFDBFF140E00
:10A98000DBCF14F0150EDBCF15F0D890155004E690
:10A99000A80E145C020E155812E200017B0E656FC2
:10A9A000360EE66E070EE66E650EE66E000EE66E7D
:10A9B0006FEC62F0E552E552E552E55211D000012C
:10A9C000200E656F360EE66E070EE66E650EE66EBD
:10A9D000000EE66E6FEC62F0E552E552E552E5528C
:10A9E000030EE66E95DCE552160EF3CFDBFF170E75
:10A9F000F4CFDBFF160EDBCF14F0170EDBCF15F014
:10AA0000D890155004E6A80E145C020E155812E2F8
:10AA100000017C0E676F420EE66E070EE66E670E53
:10AA2000E66E000EE66E6FEC62F0E552E552E5521E
:10AA3000E55211D00001200E676F420EE66E070E40
:10AA4000E66E670EE66E000EE66E6FEC62F0E552A3
:10AA5000E552E552E552070EE66E5ADCE552180E55
:10AA6000F3CFDBFF190EF4CFDBFF0B0EE66E50DCED
:10AA7000E5521A0EF3CFDBFF1B0EF4CFDBFF180EEF
:10AA8000DBCF16F0190EDBCF17F01A0EDB50165C79
:10AA9000146E1B0EDB501758156E1C0E14C0DBFF16
:10AAA0001D0E15C0DBFF1C0EDBCF14F01D0EDBCF1F
:10AAB00015F0153404E214500008000E15542BE272
:10AAC0001A0EDBCF14F01B0EDBCF15F0D89015500B
:10AAD00004E6200E145C030E15581CE20001280E3B
:10AAE000696F3C0EE66E070EE66E690EE66E000EAE
:10AAF000E66E6FEC62F0E552E552E552E5520B0E60
:10AB0000E66E06DCE5521A0EF3CFDBFF1B0EF4CF28
:10AB1000DBFFD6D747D01C0EDBCF14F01D0EDBCFEA
:10AB200015F00001800E15142CE0180EDBCF14F088
:10AB3000190EDBCF15F0D890155004E6200E145CEA
:10AB4000030E15581DE20001270E696F3C0EE66EDC
:10AB5000070EE66E690EE66E000EE66E6FEC62F0B2
:10AB6000E552E552E552E552070EE66E88EC51F0EB
:10AB7000E552180EF3CFDBFF190EF4CFDBFFD5D76C
:10AB800011D00001200E696F3C0EE66E070EE66ED6
:10AB9000690EE66E000EE66E6FEC62F0E552E5526D
:10ABA000E552E552080EE66EE6EC63F0E552E66E1D
:10ABB000D950250FE96EDACFEAFFE552E750EE6E85
:10ABC000ED6AD950250FE96EDACFEAFF340EEE5E5A
:10ABD000000EED5AD950250FE96EDACFEAFF050EC7
:10ABE000EC02F3CFEDFFEF02F3CFEEFFF450ED26D2
:10ABF000D950250FE96EDACFEAFF090E0D6E0E6A05
:10AC0000EECF08F0EDCF09F0EBEC66F008C0EEFFF8
:10AC100009C0EDFF250EDBCFE6FF260EDBCFE6FFFA
:10AC20000E0E146EA00E156E166A14C0E6FF15C047
:10AC3000E6FF16C0E6FFE40EE66E000EE66E95EC4B
:10AC400066F0176E070EE15E17500001540EE26FBA
:10AC50003A0EE36F600EE66FE76BE66E070EE66E88
:10AC6000E20EE66E000EE66E6FEC62F0E552E55223
:10AC7000E552E552030EE66E0FEC52F0E552030E7C
:10AC8000F3CFDBFF040EF4CFDBFF030EDBCF14F0BA
:10AC9000040EDBCF15F0090EDBCF16F00A0EDBCF6A
:10ACA00017F017501518E8AE02D0153404D0145020
:10ACB000165C1550175801E393D0030EDBCFE6FF67
:10ACC000040EDBCFE6FF0E0E146EA00E156E166A94
:10ACD00014C0E6FF15C0E6FF16C0E6FFD10EE66E13
:10ACE000000EE66E95EC66F0176E070EE15E1750EB
:10ACF000D10EE66E000EE66E030EDBCFE6FF040E0D
:10AD0000DBCFE6FF72EC50F0E552E552E552E5523A
:10AD10006C0EE66E020EE66ED10EE66E000EE66E6C
:10AD20006FEC62F0E552E552E552E552030EDBCFDF
:10AD300008F0040EDBCF09F0090E08C0DBFF0A0E95
:10AD400009C0DBFF320E146E156A090EDBCF08F066
:10AD50000A0EDBCF09F014C00DF015C00EF0EBECBD
:10AD600066F0200E08C0DBFF210E09C0DBFF0B0ED2
:10AD7000F36E220EF3CFDBFF230EDB6A200EDBCF58
:10AD800014F0210EDBCF15F0153404E21450000846
:10AD9000000E155417E2220EDBCFE9FF230EDBCFA6
:10ADA000EAFF880EE926000EEA22260EEF6E200E3C
:10ADB000DB06210E01E2DB06220EDB2A230E01E375
:10ADC000DB2ADCD7E66A030EE66E880EE66E000E1E
:10ADD000E66E6FEC62F0E552E552E552E552B1D015
:10ADE000030EDBCF14F0040EDBCF15F00D0EDBCF1E
:10ADF00016F00E0EDBCF17F015501718E8AE02D084
:10AE0000173404D01650145C1750155801E399D02C
:10AE1000030EDBCFE6FF040EDBCFE6FF0E0E146E53
:10AE2000A00E156E166A14C0E6FF15C0E6FF16C028
:10AE3000E6FFD10EE66E000EE66E95EC66F0176E3C
:10AE4000070EE15E1750D10EE66E000EE66E030EA1
:10AE5000DBCFE6FF040EDBCFE6FF72EC50F0E552ED
:10AE6000E552E552E552E66A020EE66ED10EE66E56
:10AE7000000EE66E6FEC62F0E552E552E552E552E7
:10AE8000030EDBCF08F0040EDBCF09F00D0E08C077
:10AE9000DBFF0E0E09C0DBFF0D0EDBCF14F00E0E34
:10AEA000DBCF15F0146C151E000E1522320E0D6E40
:10AEB0000E6A14C008F015C009F0EBEC66F008C08B
:10AEC00014F009C015F0200E14C0DBFF210E15C0D0
:10AED000DBFF090EF36E220EF3CFDBFF230EDB6ADE
:10AEE000200EDBCF14F0210EDBCF15F0153404E279
:10AEF00014500008000E155417E2220EDBCFE9FFB4
:10AF0000230EDBCFEAFF880EE926000EEA22260E8A
:10AF1000EF6E200EDB06210E01E2DB06220EDB06C1
:10AF2000230E01E2DB06DCD7E66A030EE66E880E2E
:10AF3000E66E000EE66E6FEC62F0E552E552E55209
:10AF4000E552050EE66E0FEC52F0E552050EF3CF1A
:10AF5000DBFF060EF4CFDBFF050EDBCF14F0060E91
:10AF6000DBCF15F00B0EDBCF16F00C0EDBCF17F09E
:10AF700017501518E8AE02D0153404D01450165CE2
:10AF80001550175801E393D0050EDBCFE6FF060EF0
:10AF9000DBCFE6FF0E0E146EA00E156E166A14C0FF
:10AFA000E6FF15C0E6FF16C0E6FFD70EE66E000E00
:10AFB000E66E95EC66F0176E070EE15E1750D70E41
:10AFC000E66E000EE66E050EDBCFE6FF060EDBCF6B
:10AFD000E6FF72EC50F0E552E552E552E5526C0E98
:10AFE000E66E040EE66ED70EE66E000EE66E6FECB1
:10AFF00062F0E552E552E552E552050EDBCF08F06E
:10B00000060EDBCF09F00B0E08C0DBFF0C0E09C0EB
:10B01000DBFF320E146E156A0B0EDBCF08F00C0E40
:10B02000DBCF09F014C00DF015C00EF0EBEC66F0AC
:10B03000200E08C0DBFF210E09C0DBFF0B0EF36EF4
:10B04000220EF3CFDBFF230EDB6A200EDBCF14F0E2
:10B05000210EDBCF15F0153404E214500008000E69
:10B06000155417E2220EDBCFE9FF230EDBCFEAFFF8
:10B070009E0EE926000EEA22260EEF6E200EDB065B
:10B08000210E01E2DB06220EDB2A230E01E3DB2A7E
:10B09000DCD7E66A050EE66E9E0EE66E000EE66EE4
:10B0A0006FEC62F0E552E552E552E552B1D0050E83
:10B0B000DBCF14F0060EDBCF15F00F0EDBCF16F052
:10B0C000100EDBCF17F015501718E8AE02D017346A
:10B0D00004D01650145C1750155801E399D0050E92
:10B0E000DBCFE6FF060EDBCFE6FF0E0E146EA00EE2
:10B0F000156E166A14C0E6FF15C0E6FF16C0E6FF1F
:10B10000D70EE66E000EE66E95EC66F0176E070E33
:10B11000E15E1750D70EE66E000EE66E050EDBCF31
:10B12000E6FF060EDBCFE6FF72EC50F0E552E5528B
:10B13000E552E552E66A040EE66ED70EE66E000EA4
:10B14000E66E6FEC62F0E552E552E552E552050E0F
:10B15000DBCF08F0060EDBCF09F00F0E08C0DBFFD7
:10B16000100E09C0DBFF0F0EDBCF14F0100EDBCF8B
:10B1700015F0146C151E000E1522320E0D6E0E6A9F
:10B1800014C008F015C009F0EBEC66F008C014F02C
:10B1900009C015F0200E14C0DBFF210E15C0DBFF27
:10B1A000090EF36E220EF3CFDBFF230EDB6A200EB7
:10B1B000DBCF14F0210EDBCF15F0153404E2145070
:10B1C0000008000E155417E2220EDBCFE9FF230E14
:10B1D000DBCFEAFF9E0EE926000EEA22260EEF6E76
:10B1E000200EDB06210E01E2DB06220EDB06230E1B
:10B1F00001E2DB06DCD7E66A050EE66E9E0EE66E21
:10B20000000EE66E6FEC62F0E552E552E552E55253
:10B21000070EE66E0FEC52F0E552070EF3CFDBFFA0
:10B22000080EF4CFDBFFD950070FE96EDACFEAFF43
:10B23000C00EEE1802E1030EED1801E0E5D0D95082
:10B24000070FE96EDACFEAFF400EEE1801E1ED508C
:10B2500001E1DAD0070EE66E0FEC52F0E552070E70
:10B26000F3CFDBFF080EF4CFDBFF030EDB6A040E27
:10B27000DB6A050EDB6A060EDB6A0D0EDB6A0E0E5C
:10B28000DB6A090EDB6A0A0EDB6A0F0EDB6A100E40
:10B29000DB6A0B0EDB6A0C0EDB6A030EDBCFE6FF0C
:10B2A000040EDBCFE6FF0E0E146EA00E156E166AAE
:10B2B00014C0E6FF15C0E6FF16C0E6FFD10EE66E2D
:10B2C000000EE66E95EC66F0176E070EE15E175005
:10B2D000050EDBCFE6FF060EDBCFE6FF0E0E146E8B
:10B2E000A00E156E166A14C0E6FF15C0E6FF16C064
:10B2F000E6FFD70EE66E000EE66E95EC66F0176E72
:10B30000070EE15E1750D10EE66E000EE66E030EDC
:10B31000DBCFE6FF040EDBCFE6FF72EC50F0E55228
:10B32000E552E552E552D70EE66E000EE66E050ECA
:10B33000DBCFE6FF060EDBCFE6FF72EC50F0E55206
:10B34000E552E552E552E66A020EE66ED10EE66E71
:10B35000000EE66E6FEC62F0E552E552E552E55202
:10B360006C0EE66E020EE66ED10EE66E000EE66E16
:10B370006FEC62F0E552E552E552E5526C0EE66E76
:10B38000040EE66ED70EE66E000EE66E6FEC62F00F
:10B39000E552E552E552E552E66A040EE66ED70E36
:10B3A000E66E000EE66E6FEC62F0E552E552E55295
:10B3B000E552880EE66E000EE66EF8EC52F0E552AD
:10B3C000E5529E0EE66E000EE66EF8EC52F0E55287
:10B3D000E552E66A030EE66E880EE66E000EE66E35
:10B3E0006FEC62F0E552E552E552E552E66A050E71
:10B3F000E66E9E0EE66E000EE66E6FEC62F0E552B3
:10B40000E552E552E5521BD7DDEF53F0270EE15C24
:10B4100002E2E16AE552E16EE552E7CFD9FF1200A0
:10B420004CEC5FF0FB0EDBCFF3FFDB06F3500009C3
:10B430000AE09AEC5FF0FA0E05EC60F0F3E1151CFF
:10B44000F1E1010E01D0000E7BEF5FF04CEC5FF0FC
:10B450003B0EE12402E3E168E652E16E010EDB6A95
:10B46000020EDB6AF90EDBCFF6FFFA0EDBCFF7FF39
:10B47000FB0EDBCFF8FF0800F550DF6EDF5002E176
:10B480009FEF5EF0250EDF5C02E092EF5EF0030EB0
:10B49000DB6A040EDB6A050EDB6A060EDB6A070E4A
:10B4A000DB6AB4EC5EF02D0EDF5C0CE02B0EDF5C93
:10B4B00009E0200EDF5C06E0230EDF5C03E0300EC7
:10B4C000DF5C1AE1DF50300A14E0130A0FE0030AD0
:10B4D0000AE00B0A05E0060AE4E1030EDB80E1D78F
:10B4E000030EDB82DED7030EDB84DBD7030EDB86A5
:10B4F000D8D7030EDB88D5D72A0EDF5C1BE1B0EC72
:10B500005EF0FEEC5EF010E0030EDB800868096878
:10B51000130EDBCF0DF0140EDBCF0EF011EC67F045
:10B52000040E06C0DBFF03D0130EE7EC5EF0B4ECB4
:10B530005EF00BD0090EDB6A55EC5FF003E0C9EC5E
:10B540005FF0FAD7090EE7EC5EF0030EDBB0DB9894
:10B550002E0EDF5C1BE1B4EC5EF02A0EDF5C0BE12B
:10B56000B0EC5EF0FEEC5EF003E1130E39EC5FF040
:10B57000B4EC5EF00BD0090EDB6A55EC5FF003E033
:10B58000C9EC5FF0FAD7090E39EC5FF0680EDF5CAA
:10B5900007E1B4EC5EF0680EDF5C1DE1030E18D02D
:10B5A000740EDF5C17E07A0EDF5C14E0480EDF5C9F
:10B5B00006E0540EDF5C03E05A0EDF5C02E1020E8F
:10B5C00007D06C0EDF5C03E06A0EDF5C04E1010E65
:10B5D0008CEC5FF0C9DBDF506E0A01E17FD31E0AFD
:10B5E00001E192D1200A01E18FD13F0A01E149D165
:10B5F0001A0A01E146D10D0A01E143D1200A01E115
:10B6000040D13A0A01E13DD1200A01E13AD1260AAE
:10B6100001E135D10D0A01E132D11A0A01E1D9D097
:10B62000200A4AE0300A1FE0460A0EE0250A01E03F
:10B6300083D3D950F90FE96EFF0EDA20EA6E010EBE
:10B64000EE5E000EEE5AEE5A9AEC5FF0250EE66EB4
:10B6500095DB03E1151C01E169D396EC5FF001E293
:10B660006BD3DB2A69D3080EDB6A040EDB500108BA
:10B6700006E2040EDB045EEC5FF0DB508BDB080EB1
:10B68000DB5009E0030EDB50010B05E172DB01E04A
:10B690004DD3080EDB6A64DBEFCFDFFF0EEC60F00A
:10B6A00003E1151C01E142D396EC5FF001E3DB2AD4
:10B6B00060DB01E141D33AD3070EDB5002080FE112
:10B6C000DAEC5FF0030EA1EC5FF00E0EEECFDBFFC5
:10B6D0000F0EEECFDBFF100EEECFDBFF20D0F70E0C
:10B6E000DBCF17F0F80EDBCF18F0020E175E000E5E
:10B6F000185AF70E17C0DBFFF80E18C0DBFF17C093
:10B70000E9FF18C0EAFF91EC5FF0166A0E0E14C054
:10B71000DBFF0F0E15C0DBFF100E16C0DBFF0E0E99
:10B72000DBCFE6FF0F0EDBCFE6FF100EDBCFE6FF31
:10B7300015EC68F0E552E552E552130E07C0DBFF49
:10B74000140E08C0DBFF060EDB5005E0130ED5EC2F
:10B750005FF001E26ADBF9EC5FF002E2130E37DB27
:10B76000BCEC5FF006E0040ED5EC5FF002E2050EE3
:10B770002EDB030EDBB005D0FCDA01E0D7D2080ED9
:10B78000DB6A090EDB6A0E0EDBCFF6FF0F0EDBCF96
:10B79000F7FF100EDBCFF8FF0800F550DF6EDF502B
:10B7A00014E0FFEC5FF011E20EEC60F003E1151C19
:10B7B00001E1BCD2BBDB01E3DB2A090EDB2AD95055
:10B7C0000E0FE96E000ECBDBE7D7D3DA01E1B4D27E
:10B7D000ADD2C6DA110EEECFDBFF120EEDCFDBFFDE
:10B7E000110EDBCFE6FF120EDBCFE6FF07EC68F0B1
:10B7F000E552E552130EF3CFDBFF140EF4CFDBFF5F
:10B80000060EDB5004E0130ED0DB01E20EDBF9EC98
:10B810005FF002E2130EDBDAAFDB05E0040EC5DBFE
:10B8200002E2050ED4DA030EDBB005D0A2DA01E0A5
:10B830007DD2080EDB6A090EDB6A110EDBCFE9FF51
:10B84000120EDBCFEAFFEFCFDFFFDF5014E0D7DBD4
:10B8500012E2E4DB03E1151C01E168D267DB01E3DE
:10B86000DB2A090EDB2A110EDB2ADBCFE9FF120EE1
:10B87000E8E3DB2AE6D77DDA01E15ED257D2030E98
:10B88000DB8E070EDB0410E195DB040E5ADB0A0E9B
:10B89000EECFDBFF0B0EEECFDBFF0C0EEECFDBFFB0
:10B8A0000D0EEECFDBFF6CD0070EDB5003082CE152
:10B8B000030EDBAE0DD0B2DA020E76DAEFCF14F063
:10B8C000156A166A176A14AE39D01568166835D02D
:10B8D000F70EDBCF15F0F80EDBCF16F0020E155E7B
:10B8E000000E165AF70E15C0DBFFF80E16C0DBFF70
:10B8F00015C0E9FF16C0EAFFEFCF14F00A0E14C01E
:10B90000DBFF0B0EDB6A38D0070EDB50020809E1C3
:10B91000030EDBAE04D059DB16AE10D00ED055DBD3
:10B920000DD0030EDBAE12D079DA020E3DDAF9DA71
:10B93000166A176A15AE02D016681768E2DA0C0E9E
:10B9400016C0DBFF0D0E17C0DBFF1AD0F70EDBCFE2
:10B9500016F0F80EDBCF17F0020E165E000E175A27
:10B96000F70E16C0DBFFF80E17C0DBFF16C0E9FFAD
:10B9700017C0EAFFD6DAC5DA0C0EDB6A0D0EDB6AF9
:10B98000060EDB5005E1010EF36E050EF3CFDBFF73
:10B99000150EDB6A160EDB6AD950370F146E000ED7
:10B9A000DA20156E390E14C0DBFF3A0E15C0DBFF2E
:10B9B000380EDB6A080EDB6A0A0EAEDADF50780A50
:10B9C00012E0200A10E0280A0CE0200A0AE03F0AF0
:10B9D00006E00D0A02E0200A08E1020E05D0080E7A
:10B9E00003D0080EDF26100E97DA030EDBBE02D05E
:10B9F000DB92DB94DB50800B24E08ADAD890030ED4
:10BA0000EB50000A08E6000EEE5C000EEE58000E49
:10BA1000EE58000EEE5815E213DA0B680C680D684C
:10BA20000E68CFEC67F00A0E02C0DBFF0B0E03C0FE
:10BA3000DBFF0C0E04C0DBFF0D0E05C0DBFF2D0E7F
:10BA400008D0030EDBA202D02B0E03D0DBA408D05B
:10BA5000200EF36E170EF3CFDBFF150EDB2A02D09C
:10BA6000170EDB6A050EDB5003E1B7D901E189D07F
:10BA7000640E146ED10E156E000E166E070EDBCF1F
:10BA800017F0186A196A1A6A17C00BF018C00CF080
:10BA900019C00DF01AC00EF0D3D93AEC68F014506A
:10BAA0000224F36E15500320F46E16500420F86E35
:10BAB000F4CFF7FFF3CFF6FF0800090EF5CFDBFF59
:10BAC000580EDF5C0FE1610EF36E090E7BD90AE3BD
:10BAD000200E146E090EDBCFE7FF1450E75E090E4F
:10BAE000E7CFDBFF070EDBCF14F0156A166A176A83
:10BAF0000FDA14C00BF015C00CF016C00DF017C013
:10BB00000EF0EECF06F0EECF07F0EECF08F0EFCF5D
:10BB100009F03AEC68F009C0EDFF08C0EDFF07C07E
:10BB2000EDFF06C0EFFF390EDBCFE9FFDB063A0E73
:10BB3000DBCFEAFF01E2DB06090EDBCFEFFF150EDC
:10BB4000DB2A4BD995E1030EDBA61DD06F0EDF5C1F
:10BB500006E1C1D918E3150EDB285BDA14D0780EA4
:10BB6000DF5C09E0580EDF5C06E0620EDF5C03E09C
:10BB7000420EDF5C08E1020EF36E160EF3CFDBFF20
:10BB800002D0150EDB6A030EDB50100B0EE0040E24
:10BB9000DBCF14F0050EDB50D880145406E2060EFD
:10BBA000DB5003E1040EDB5034DA95D90AE2050ECE
:10BBB000DBCFE7FF150EDB50E75E050EE7CFDBFFBF
:10BBC00002D0050EDB6A040EDBCF14F0160E45D949
:10BBD000D880145414E2160EDBCFE6FF150EDBCF2F
:10BBE000E6FF040EDBCFE6FF050EDB50E552E75C17
:10BBF000E552D880E754E552D880E7545FD9030E68
:10BC0000DB50010B0BE1080EDB5008E0B2D801E07D
:10BC10008DD0080EDB50BED8080EDB6A170EDB5045
:10BC200007E088D9170EF1D903E1151C01E17ED098
:10BC3000160EDB5016E07ED9300EE66E9FD802E17C
:10BC4000151C74E077D9DFCFE6FF8DEC67F0E55285
:10BC5000E552E552F4CF15F00001F31C02E1151C8A
:10BC600065E0050EDBCF14F0160EDB50D8801454BF
:10BC700009E2050EDBCFE7FF160EDB50E75E050E8F
:10BC8000E7CFDBFF300EE66E050ECBD94FE1390E64
:10BC9000DB2ADBCFE9FF3A0E01E3DB2ADBCFEAFF49
:10BCA000090EEFCFDBFFDB500EE044D9090EADD912
:10BCB00002E1151C3BE0390EDB2ADBCFE9FF3A0E2F
:10BCC000EDE3DB2AEBD755D831E1160EDBCFE6FFEB
:10BCD000080EC3D8E552E7245DD82ED0070EDB50FE
:10BCE000030A1CE0010A14E0030A07E07BD9DBCF5A
:10BCF000EEFF020EDBCFEDFF1FD0F5D8196A17AEAD
:10BD000002D0186819682CD8BCD819C0EEFF14D01E
:10BD1000EAD817BE186824D8B4D80ED063D9DBCFC0
:10BD2000EFFF0AD07BD905E1151C03E1F368F46845
:10BD300010D0FCD801E3DB2A79D93BEF5AF0010E91
:10BD4000DBCF14F0020EDBCF15F014C0F3FF15C0EB
:10BD5000F4FF3B0EE15C02E2E16AE552E16ECBD01A
:10BD600029D9020EA1EF5FF061D90800F550DF6E0E
:10BD70001200200EE66E080E11EF60F08DEC67F0F9
:10BD8000E552E552E552F3CF14F0F4CF15F000017F
:10BD9000F31C1200146E156AD950010F4DD91450BE
:10BDA000EE261550ED221200185E000E195AF70EFD
:10BDB00018C0DBFFF80E19C0DBFF18C0E9FF19C07F
:10BDC000EAFF1200DBCFF4FFF350F45C1200DB500B
:10BDD000E76E040EE7CFDBFF12000A0EDBCF14F094
:10BDE0000B0EDBCF15F00C0EDBCF16F00D0EDBCFFC
:10BDF00017F014501510161017101200130EEECF76
:10BE0000DBFF140EEDCFDBFF130EDBCF14F0140EAF
:10BE1000DBCF15F00001800E15141200F70EDBCFFA
:10BE200018F0F80EDBCF19F01200050EDB50E66EAD
:10BE3000D950130F01D9E552E750EE6EED6A1200AA
:10BE40000A0EDBCF06F00B0EDBCF07F00C0EDBCFBC
:10BE500008F00D0EDBCF09F01200DBCFE6FF150E68
:10BE6000DBCFE6FF050EDB50E552E724E552E72481
:10BE70001200DB50CED8010EF36E060EF3CFDBFFBF
:10BE80001200EE50EFCFEAFFE96E16C0EEFF17C0CA
:10BE9000EEFF18C0EEFF1200D9CFE6FFDACFE6FFC3
:10BEA000E1CFD9FFE2CFDAFF1200DFCFE6FFE66A8B
:10BEB00074EC68F0E552E552F3501200E76E080E9C
:10BEC000E7CFDBFF1200EECF14F0EECF15F0EFCF8F
:10BED00016F0176A1200050EDBCF14F0150EDB50BA
:10BEE000D88014541200010EDBCF16F0020EDBCF07
:10BEF00017F0186A1200E552E5CFDAFFE7CFD9FF55
:10BF000012000A0E14C0DBFF0B0E15C0DBFF12007F
:10BF1000D9500A0F1CEF60F0F36E070EF3CFDBFF72
:10BF20001200EECF14F0EFCF15F01200010EDB2A55
:10BF3000020E1200FC0EDBCFE6FFFD0EDBCFE6FFAC
:10BF40001200145E000E155AF70E14C0DBFFF80E37
:10BF500015C0DBFF14C0E9FF15C0EAFF1200DA20AC
:10BF6000EA6EEF2AEECFF6FF000EEF22EECFF7FFDC
:10BF7000EF22EECFF8FF1200040EDBCFE6FF130E28
:10BF8000DB50E552E75C9ADFDB5004DF060EDB5046
:10BF90001200090EDB500A0DF350DF24D00FE76EBC
:10BFA000090EE7CFDBFFB4EF5EF0DB50F36E050E5A
:10BFB000E2EF5EF0F70EDBCF14F0F80EDBCF15F0FA
:10BFC0001200DFCFE6FFBEEF5EF028DF030EECDEEF
:10BFD00063EF5FF010EC5AF0E552E552E552E5529E
:10BFE00000091200BDDEEE50EFCFEAFFE96E010E50
:10BFF0001200130EDB50F36E040EE2EF5EF0040E3F
:10C00000DB50F36E090EE2EF5EF0DBCFE6FFBEEF32
:10C010005EF0E76E050EE7CFDBFF12008BDFE1EF8E
:10C020005FF0DBCFE6FF86DFEAEF5FF0D950F90F74
:10C03000E96EFF0EAFEF5FF0E96E000EDA20EA6EF8
:02C040001200EC
:0EC04200D9CFE6FFE1CFD9FF020EE126FD0EB9
:10C05000DBCF14F0DB06FE0EDBCF15F001E2DB06D2
:10C060001450151011E0DE6ADD6ADECF14F0DDCF6A
:10C0700015F0E30E145C0D0E155805E2DF2A010ED3
:10C0800001E3DB2AF2D7E3D7020EE15C02E2E16AC8
:10C09000E552E16EE552E7CFD9FF1200D9CFE6FFB6
:10C0A000E1CFD9FF060EE1268D9296928D90969063
:10C0B0008D8496948A9A939A8C92DE6ADE6ADE6AFE
:10C0C000DD6ADD52DD52D9CFE9FFDACFEAFF640E37
:10C0D000EE5C000EEE58000EEE58000EEE580AE22E
:10C0E000D9CFE9FFDACFEAFFEE2A000EEE22EE22E8
:10C0F000EE22E9D78C82DE6ADE6ADE6ADD6ADD5214
:10C10000DD52D9CFE9FFDACFEAFF640EEE5C000E14
:10C11000EE58000EEE58000EEE580AE2D9CFE9FFB5
:10C12000DACFEAFFEE2A000EEE22EE22EE22E9D767
:10C13000AE0EE66E70D8E552DB0EE66E6CD8E552B8
:10C14000230EE66E68D8E552D90EE66E64D8E55245
:10C15000220EE66E60D8E552A10EE66E5CD8E5527E
:10C16000C80EE66E58D8E552DA0EE66E54D8E5529F
:10C17000120EE66E50D8E552A80EE66E4CD8E55287
:10C180003F0EE66E48D8E552D50EE66E44D8E5522D
:10C19000A00EE66E40D8E552810EE66E3CD8E55220
:10C1A000600EE66E38D8E552D30EE66E34D8E5520E
:10C1B000E66A31D8E552A60EE66E2DD8E552AD0EF0
:10C1C000E66E29D8E5528B0EE66E25D8E552AF0E05
:10C1D000E66E21D8E5520A0EE66EE66A32DFE552D7
:10C1E000E552A40EE66E17D8E552400EE66E13D85F
:10C1F000E552020EE66E0FD8E552100EE66E0BD831
:10C20000E552060EE15C02E2E16AE552E16EE552BA
:10C21000E7CFD9FF1200D9CFE6FFE1CFD9FF956A6A
:10C22000FE0EDB508C6E8D808D828A9A8D948D925D
:10C230008D828D849568E552E7CFD9FF1200D9CF62
:10C24000E6FFE1CFD9FF956AFE0EDB508C6E8D8044
:10C250008D828A8A8D948D928D828D849568E55227
:10C26000E7CFD9FF1200D9CFE6FFE1CFD9FF020E09
:10C27000E126B00EDF6EB80EDF5C23E2DFCFE6FF13
:10C28000CADFE552020EE66EC6DFE552100EE66E1C
:10C29000C2DFE552010EDB6ADB50146E156AD890DE
:10C2A000155004E6840E145C000E155808E2FE0ECC
:10C2B000DBCFE6FFC4DFE552010EDB2AEDD7DF2A34
:10C2C000DAD7020EE15C03E200D0E16AE552E16EEA
:10C2D000E552E7CFD9FF1200D9CFE6FFE1CFD9FF72
:10C2E000200E146EFE0EDBCFE7FF1450E75EFE0E4D
:10C2F000E7CFDBFFDBCFF6FFF76AF6BEF768050E88
:10C30000F702F3CFF7FFF602F3CFF6FFF450F7266C
:10C310005E0EF626CA0EF7220800F550E66E8FDF95
:10C32000E552FE0EDBCFF6FFF76AF6BEF768050EA4
:10C33000F702F3CFF7FFF602F3CFF6FFF450F7263C
:10C340005E0EF626CA0EF722010EF626000EF72222
:10C350000800F550E66E73DFE552FE0EDBCFF6FF08
:10C36000F76AF6BEF768050EF702F3CFF7FFF6029D
:10C37000F3CFF6FFF450F7265E0EF626CA0EF7222C
:10C38000020EF626000EF7220800F550E66E57DF83
:10C39000E552FE0EDBCFF6FFF76AF6BEF768050E34
:10C3A000F702F3CFF7FFF602F3CFF6FFF450F726CC
:10C3B0005E0EF626CA0EF722030EF626000EF722B0
:10C3C0000800F550E66E3BDFE552FE0EDBCFF6FFD0
:10C3D000F76AF6BEF768050EF702F3CFF7FFF6022D
:10C3E000F3CFF6FFF450F7265E0EF626CA0EF722BC
:10C3F000040EF626000EF7220800F550E66E1FDF49
:10C40000E552E66A1CDFE55200D0E552E7CFD9FFDE
:10C410001200D9CFE6FFE1CFD9FFE652FD0EDBCF08
:10C42000E6FFF9DEE552020E146EFC0EDBCFE7FFED
:10C430001450E726FC0EE7CFDBFFDB500F0BE66E58
:10C44000EADEE552FC0EDB380F0B0F0B100FE66E29
:10C45000E2DEE552FE0EDBCFE6FF3EDFE55200D026
:10C46000E552E552E7CFD9FF1200D9CFE6FFE1CF81
:10C47000D9FFFC0EDB50B00FE76EFC0EE7CFDBFF01
:10C48000FB0EDBCFE6FFFC0EDBCFE6FFFD0EDBCFC6
:10C49000F6FFFE0EDBCFF7FF0800F550E66EB9DFC2
:10C4A000E552E552E552FD0EDB2ADBCFF6FFFE0E2C
:10C4B00001E3DB2ADBCFF7FF0800F5500CE0FD0EAF
:10C4C000DBCFF6FFFE0EDBCFF7FF0800F550E66E80
:10C4D00003DFE552E8D7E552E7CFD9FF1200D9CF05
:10C4E000E6FFE1CFD9FFFC0EDB50B00FE76EFC0E8C
:10C4F000E7CFDBFFFB0EDBCFE6FFFC0EDBCFE6FF7B
:10C50000FD0EDBCFE9FFFE0EDBCFEAFFEF50E66E5C
:10C5100080DFE552E552E552FD0EDB2ADBCFE9FF75
:10C52000FE0E01E3DB2ADBCFEAFFEF500BE0FD0E4E
:10C53000DBCFE9FFFE0EDBCFEAFFEF50E66ECCDE8D
:10C54000E552EAD7E552E7CFD9FF1200D9CFE6FF8F
:10C55000E1CFD9FF050EE126030EDB6A040EDB6A8C
:10C56000020E146EFA0EDBCFE7FF1450E726FA0E28
:10C57000E7CFDBFFF90EDB50B00FDF6EFB0EDB50B9
:10C58000B00FDF5C35E2DFCFE6FF45DEE552FA0EA5
:10C59000DB500F0BE66E3FDEE552FA0EDB380F0B79
:10C5A0000F0B1009E66E37DEE552010EDB6AFC0E5A
:10C5B000DB50F36E010EDBCFF4FFF350F45C16E2B8
:10C5C000030EDB2A040E01E3DB2AFD0EDBCFF6FFB0
:10C5D000DB2AFE0EDBCFF7FF01E3DB2A0800F55074
:10C5E000E66E2DDEE552010EDB2AE1D7DF2AC6D743
:10C5F000050EE15C03E200D0E16AE552E16EE5522E
:06C60000E7CFD9FF120094
:0AC60600D9CFE6FFE1CFD9FF030E04
:10C61000E12659D8736A820E726E739C9494939635
:10C62000958C7288728A949EE66AD0D8E552E76E3D
:10C63000020EE7CFDBFF0000D950020FE96EDACF20
:10C64000EAFFEF50070B020801E00000140EE66E4F
:10C65000BDD8E552E76E020EE7CFDBFF020EDB9698
:10C66000DB88020EDB80DB92DB94020EDBCFE6FF81
:10C67000140EE66E3AD8E552E552010EE66EA6D8E3
:10C68000E552DE6EDD6A0000110EE66E9FD8E552BF
:10C69000DE6EDD6A0000E66A110EE66E26D8E5520F
:10C6A000E5520000110EE66E91D8E552DE6EDD6AAD
:10C6B0000000030EE15C02E2E16AE552E16EE55240
:10C6C000E7CFD9FF1200550EA76EAA0EA76E0E0176
:10C6D000FF91090ECC6F0A0ED36F170EFB6F550E2C
:10C6E000A76EAA0EA76EFF811200D9CFE6FFE1CF99
:10C6F000D9FFE652DF6AFE0EDB50140804E0FE0E9E
:10C70000DB50340806E1140EE66E60D8E552E00B0B
:10C71000DF6E8B9EA49EFE0EDB50756EA4AEFED720
:10C720000000000000000000000000000000000009
:10C7300000000000000000000000000000000000F9
:10C7400000000000000000000000000000000000E9
:10C7500000000000000000000000000000000000D9
:10C7600000000000000000000000000000000000C9
:10C7700000000000000000000000000000000000B9
:10C7800000000000000000000000000000000000A9
:10C790000000000000000000000000000000000099
:10C7A000A49EFE0EDB500A0805E1FD0EDB507F0B58
:10C7B000756E04D0FD0EDB50DF10756EA4AEFED793
:10C7C0008B8EE552E552E7CFD9FF1200D9CFE6FFB5
:10C7D000E1CFD9FF8B9EA49EFE0EDB508009756EC3
:10C7E000A4AEFED700000000000000000000000022
:10C7F0000000000000000000000000000000000039
:10C800000000000000000000000000000000000028
:10C810000000000000000000000000000000000018
:10C820000000000000000000000000000000000008
:10C8300000000000000000000000000000000000F8
:10C8400000000000000000000000000000000000E8
:10C8500000000000000000000000000000000000D8
:10C8600000000000A49E756AA4AEFED78B8E7550A2
:0AC8700000D0E552E7CFD9FF120017
:06C87A00030EB16EB39243
:10C88000B390B396B288B28EB290B292A494B38EA3
:10C8900012002F0E926E0F01E00E486F1F0E496FAF
:10C8A000C18EC19CC70EC1140809C16EF80EC11417
:10C8B0000209C16E498FC29CC29EC30EC2140809F0
:10C8C000C26EC2801200D9DF49EF64F0D9CFE6FF13
:10C8D000E1CFD9FF020EE126FE0EDB500F0BF36E07
:10C8E000F346F346C30EC214F310C26EFE0EDB50C5
:10C8F000EA6A060FE96E0E0EEA22EF503F0BF36E66
:10C90000F346F346030EB114F310B16EB38EB38247
:10C910000000000000000000000000000000000017
:10C920000000000000000000000000000000000007
:10C930000000000000000000B392B2800000000080
:10C9400000000000000000000000000000000000E7
:10C9500000000000000000000000000000000000D7
:10C9600000000000B2909E9CC2829EACFED7C3CF56
:10C97000DEFFC4CFDDFFDECF14F0DDCF15F014C035
:10C98000F3FF15C0F4FF00D0020EE15C02E2E16AA1
:10C99000E552E16EE552E7CFD9FF1200D9CFE6FFAD
:10C9A000E1CFD9FF030EE126020EDB6A040EF36E1F
:10C9B000020EDBCFF4FFF350F45C21E22AD8EF6AD9
:10C9C00030D80CE226D8EF501F0803E122D8EF6AD6
:10C9D00013D01FD8EF2A25D8F5E30ED02CD80CE2BF
:10C9E00018D8EF50E10803E114D8EF6A05D011D848
:10C9F000EF062BD820D8F4E3020EDB2AD7D7030E9C
:10CA0000E15C02E2E16AE552E16EE552E7CFD9FF6F
:10CA10001200020EDB50EA6A060FE96E0E0EEA22E1
:10CA2000120013D8DECF14F0DDCF15F0200E145C09
:10CA3000030E15581200D9CFE9FFDACFEAFF200E16
:10CA4000D880EE54030EED541200020EDBCFE6FF49
:0ECA50003DDFE552F3CFDEFFF4CFDDFF120035
:02CA5E000000D6
:10CA600000000000004F00000007000700FF818168
:10CA70008181818181818181818181FFBDBDBDBD38
:10CA8000BD0CFEFFFE0C307FFF7F300041221C00FA
:10CA900014083E081408083E08080050300000083A
:10CAA00008080808006060000020100804023E51D9
:10CAB00049453E00427F400042615149462141457F
:10CAC0004B311814127F1027454545393C4A4949D6
:10CAD0003001710905033649494936064949291E7D
:10CAE00000363600000056360000081422410014BB
:10CAF0001414141400412214080201510906324989
:10CB000079413E7E1111117E7F494949363E4141AE
:10CB100041227F4141221C7F494949417F0909093E
:10CB2000013E4149497A7F0808087F00417F410062
:10CB30002040413F017F081422417F404040407F18
:10CB4000020C027F7F0408107F3E4141413E7F0975
:10CB50000909063E4151215E7F0919294646494986
:10CB6000493101017F01013F4040403F1F204020EB
:10CB70001F3F4038403F63140814630708700807DC
:10CB80006151494543007F414100020408102000E3
:10CB900041417F0004020102044040404040060938
:10CBA00009060020545454787F484444383844449B
:10CBB0004420384444487F3854545418087E0901AE
:10CBC000020C5252523E7F0804047800447D40001B
:10CBD0002040443D007F1028440000417F40007CFD
:10CBE000041804787C0804047838444444387C14DD
:10CBF000141408081414187C7C08040408485454BD
:10CC00005420043F4440203C4040207C1C204020D5
:10CC10001C3C4030403C44281028440C5050503CB0
:10CC20004464544C44183C7E181818187E3C1880F4
:09CC3000E0A0E08080FC84FC809F
:01CC390000FA
:06CC3A000001FDB122D053
:10CC4000FD838B809490550EA76EAA0EA76E0E01E1
:10CC5000FF910E0ED16F550EA76EAA0EA76EFF8123
:10CC60000F0EBA6ECF0EBA140009BA6EBB6A0F016E
:10CC7000526B800ECB6E040ECA6EA496600E776E59
:10CC80007F0E766E12000001FD91FD938B809490D3
:10CC900012000001FDA109D08B50010B04E194505A
:10CCA000010B01E1010CFD91C8DF0001FDA3C5DF0F
:10CCB000A4A63AD0A496BA50300BE842E842E84223
:10CCC000E842030819E1400EBB5C10E18B909490A0
:10CCD000BA6ACA6A0E01D16B0F01526BCB68766AD1
:10CCE0007768A4960001FD81FD93010CBB2ACF0E4D
:10CCF000BA140009BA6E000CBA0EE96E0F0EEA6E95
:10CD0000EF50300BE842E842E842E842E82AE850B7
:10CD1000030BF36EF46EF346F346F346F346CF0E81
:0ACD2000EF14F310EF6EF450000C56
:06CD2A00D9CFE6FFDACFCD
:10CD3000E6FFE1CFD9FFE2CFDAFFE652E652E65254
:10CD4000E652D950F90F146EFF0EDA20156E020E5E
:10CD500014C0DBFF030E15C0DBFF020EDBCFE6FFC6
:10CD6000030EDBCFE6FFF90EDBCFE6FFFA0EDBCFDB
:10CD7000E6FFFB0EDBCFE6FFD950FC0FE66EFF0EA1
:10CD8000DA20E66E26EC5AF0146E070EE15C02E241
:10CD9000E16AE552E16E1450F3CFDEFFF4CFDDFF20
:10CDA000FC0EDBCFE9FFFD0EDBCFEAFFEF6ADECF43
:10CDB00014F0DDCF15F014C0F3FF15C0F4FF040E1E
:10CDC000E15C02E2E16AE552E16EE552E5CFDAFFAD
:06CDD000E7CFD9FF1200BD
:0ACDD600006A0EAEF4EF66F00D6C7B
:10CDE0000E1EE86A0E22001E09AEFCEF66F0086C0B
:10CDF000091EE86A0922001E5EEC68F009BE0CEF0D
:10CE000067F000AE000C086C091EE86A0922046C89
:10CE1000051EE86A0522000C00BE03EF67F00188DA
:10CE2000FF0C09C013F008C012F008500D02F4CF37
:10CE300007F0F3CF06F009500E02F4CF09F0F3CF5C
:10CE400008F00D02F3500726F4500822E86A092280
:10CE500012500E02F3500726F4500822E86A092205
:10CE60000EAE37EF67F01250085E1350095A13AE3A
:0CCE7000000C0D50085E0E50095A000C1A
:04CE7C001E0EF66E22
:10CE8000A00EF76E000EF86E00010900F550F86F65
:10CE90000900F550F96F03E1F86701D03DD00900B2
:10CEA000F550F36F0900F550F46F0900F550F56F78
:10CEB00009000900F550E96E0900F550EA6E090015
:10CEC00009000900F550F66F0900F550F76F0900E9
:10CED0000900F6CFFAF0F7CFFBF0F8CFFCF0F3C083
:10CEE000F6FFF4C0F7FFF5C0F8FF0001F65302E1CA
:10CEF000F75307E00900F550EE6EF607F8E2F70782
:10CF0000F9D7FAC0F6FFFBC0F7FFFCC0F8FF00013D
:0ACF1000F807000EF95BBFD712000E
:06CF1A00D9CFE6FFDACFDB
:10CF2000E6FFE1CFD9FFE2CFDAFFFB0EDBCF14F053
:10CF3000FC0EDBCF15F00001800E15141AE1FB0E7C
:10CF4000DBCFE9FFFC0EDBCFEAFFEECFF3FFEDCF47
:10CF5000F4FFEE2A000EEF22F3CFE9FFF4CFEAFF51
:10CF6000FD0EDBCFEFFFEF50156AF36E15C0F4FF37
:10CF700010D0FB0EDB50FE0806E1FD0EDBCFE6FF16
:10CF8000A4EC68F005D0FD0EDBCFE6FF03EC50F01B
:0ECF9000E552E552E5CFDAFFE7CFD9FF1200F8
:02CF9E0006503B
:10CFA0000B02F3CF02F0F4CF03F00C02F350032690
:10CFB000000EF420046E06500D02F3500426000EFD
:10CFC000F420056E06500E02F350052607500B02A2
:10CFD000F3500326F4500422000E052207500C02E1
:10CFE000F3500426F450052207500D02F350052695
:10CFF00008500B02F3500426F450052208500C028E
:0ED00000F350052609500B02F35005261200CE
:02D00E00FE0E14
:10D01000E3CFE9FFFF0EE3CFEAFFF36AF46AEE52D3
:10D0200003E0F34AF42AFBD71200FF0EE3CFF8FF28
:10D03000E552FF0EE3CFF7FFE552FF0EE3CFF6FF19
:10D04000E552E66AE66AE66A0900F55209E0FD0E75
:10D05000E32A05E1FE0EE32A02E1FF0EE32AF4D7FC
:10D06000FD0EE3CF07F0FE0EE3CF08F0FF0EE3CF97
:04D0700009F01200B1
:0CD07400056A046A036A026A200EE76E77
:10D08000D890063607360836093602360336043697
:10D0900005360B50025C0C5003580D5004580E50CE
:10D0A000055809E30B50025E0C50035A0D50045A08
:0CD0B0000E50055A062AE72EE4D71200A5
:04D0BC00056A046A93
:10D0C000100EE76ED89008360936043605360D5036
:10D0D000045C0E50055805E30D50045E0E50055AD1
:08D0E000082AE72EF0D7120028
:08D0E800F36AF46AFF0EE12473
:10D0F000E96EFF0EE220EA6EED6607D02F0EEF64B8
:0CD1000004D03A0EEF6001D0F32A1200B8
:04D10C00C00EF36EF0
:10D1100000EE00F00E0E01D81200EA6002D0EE6AB6
:0CD12000FCD7F350E9601200EE6AFCD767
:04D12C001DEE00F004
:10D130002DEE00F0F86A019C3EEC67F009EC50F02F
:08D140004EEC53F0FBD7120086
:08D14800FF0EE350ADBA04D064
:10D15000B06AAC8EAD8A949CADA2FED7AE6EF36E73
:04D16000F46A12005B
:0CD16400303132333435363738396162EF
:05D17000636465660028
:0BD1750000000000002000200020004F
:10D180006D6F76653A20002324242424242424244B
:10D190002424242424242424242424250023242473
:10D1A000242424242424242624242424242424243D
:10D1B0002425002324242424242424242426242451
:10D1C00024242424242424250079206261720078F8
:10D1D0002062617200706F74206D65746572007EEC
:01D1E000004E
:01FFF800AA5E
:01FFF900F710
:01FFFA001FE7
:01FFFB00FF06
:01FFFC0063A1
:01FFFD00F80B
:01FFFE008181
:01FFFF00F110
:00000001FF
