:020000040000FA
:0600000043EF68F012005E
:0600080004EF50F01200AD
:060018000CEF50F0120095
:06A0000043EF68F01200BE
:02A00600120046
:06A008001CEF50F01200F5
:02A00E0012003E
:06A0180025EF50F01200DC
:02A01E0002003E
:10A02000DBD00000600000006C00000093CB00005B
:08A03000FD000000010000002A
:08A03800DACFE4FFE2CFDAFF0A
:10A04000E652E552E5CFDAFF1100D8CFE4FFE0CFCA
:10A05000E4FFE46EDACFE4FFE2CFDAFFE652E55246
:10A06000E5CFDAFFE550E5CFE0FFE5CFD8FF100000
:10A0700010EC64F07BEC64F0B0EC62F0FBEC5FF0B1
:10A08000E66AE0EC60F0E5521200D9CFE6FFE1CFDE
:10A09000D9FF020EE126F6EC65F0000901E1FBD7DD
:10A0A000580EDE6E020EDD6E9B8CDFCF14F0DF06E5
:10A0B000010EDBCF15F001E2DB061450151001E0B4
:10A0C000F4D70F0148694969D3DF020EE15C02E26F
:10A0D000E16AE552E16EE552E7CFD9FF1200110EB9
:10A0E000C26E1200D9CFE6FFE1CFD9FFFD0EDBCF64
:10A0F00014F0FE0EDBCF15F00001800E15145FE0AA
:10A10000FD0EDBCF14F0FE0EDBCF15F0153404E3AB
:10A1100014501808FC0E155444E2FD0EDBCF14F069
:10A12000FE0EDBCF15F0153404E314509C08FF0E2F
:10A13000155429E2FD0EDBCF14F0FE0EDBCF15F037
:10A14000153404E31450F608FF0E15540EE2020E07
:10A15000E76EFB0EDBCFE9FFFC0EDBCFEAFFE7503B
:10A16000E926000EEA22200EEF6E030EE76EFB0ECC
:10A17000DBCFE9FFFC0EDBCFEAFFE750E926000E5C
:10A18000EA22200EEF6E040EE76EFB0EDBCFE9FF36
:10A19000FC0EDBCFEAFFE750E926000EEA22200E94
:10A1A000EF6E050EE76EFB0EDBCFE9FFFC0EDBCF9B
:10A1B000EAFFE750E926000EEA22EF6A61D0FD0EC1
:10A1C000DBCF14F0FE0EDBCF15F0D890155004E66F
:10A1D000E80E145C030E155853E2FD0EDBCF14F0AD
:10A1E000FE0EDBCF15F0D890155004E6640E145C1B
:10A1F000000E15582AE2FD0EDBCF14F0FE0EDBCF69
:10A2000015F0D890155004E60A0E145C000E15588F
:10A210000EE2010EE76EFB0EDBCFE9FFFC0EDBCF9B
:10A22000EAFFE750E926000EEA22200EEF6E020E4A
:10A23000E76EFB0EDBCFE9FFFC0EDBCFEAFFE7505A
:10A24000E926000EEA22200EEF6E030EE76EFB0EEB
:10A25000DBCFE9FFFC0EDBCFEAFFE750E926000E7B
:10A26000EA22200EEF6E040EE76EFB0EDBCFE9FF55
:10A27000FC0EDBCFEAFFE750E926000EEA22EF6A88
:10A28000E552E7CFD9FF1200D9CFE6FFE1CFD9FFE2
:10A29000020EE126FE0EDBCFE6FF3AD8E552F3CF01
:10A2A000DEFFF4CFDDFFDECFE6FFDDCFE6FFD80E29
:10A2B000146ED00E156E166A14C0E6FF15C0E6FFC8
:10A2C00016C0E6FFFC0EDBCFE6FFFD0EDBCFE6FFA0
:10A2D00042EC66F0176E070EE15E1750FC0EDBCF06
:10A2E000E6FFFD0EDBCFE6FFDECFE6FFDDCFE6FFCC
:10A2F000F9DEE552E552E552E552020EE15C03E279
:10A3000000D0E16AE552E16EE552E7CFD9FF1200D5
:10A31000D9CFE6FFE1CFD9FF030EE126020EDF6EB3
:10A32000FE0EDB50C26EDF5004E0DF50C214DF6E61
:10A33000FAD7C450E66ED950010FE96EDACFEAFFC2
:10A34000E552E750EE6EED6A010EDBCF14F0020E1F
:10A35000DBCF15F014C015F0146A010E14C0DBFF3A
:10A36000020E15C0DBFFC350E76E010EDBCF14F009
:10A37000020EDBCF15F0E7501426000E1522010E59
:10A3800014C0DBFF020E15C0DBFF010EDBCF14F0A3
:10A39000020EDBCF15F014C0F3FF15C0F4FF030E5F
:10A3A000E15C03E200D0E16AE552E16EE552E7CFFD
:10A3B000D9FF120081B01FD0000161C014F062C04B
:10A3C00015F063C016F064C017F0612B000E622315
:10A3D00063236423D8800A0E1454000E1554000E13
:10A3E0001654000E175406E2616B626B636B646B6C
:10A3F000010E606F11D0000160050EE16151621124
:10A400006311641104E1606B010E08D005D061078F
:10A41000000E625B635B645B000E00D01200D9CF5C
:10A42000E6FFE1CFD9FF030EE126FE0EDBCFE6FF0C
:10A4300093EC63F0E552DF6EDF50E66ED950010F0A
:10A44000E96EDACFEAFFE552E750EE6EED6A010EF3
:10A45000DBCF14F0020EDBCF15F014C015F0146A38
:10A46000010E14C0DBFF020E15C0DBFFFE0EDB0485
:10A47000E66E93EC63F0E552DF6EDF50146E156A02
:10A48000D950010FE96EDACFEAFF1450EE261550CD
:10A49000ED22010EDBCF14F0020EDBCF15F0060E1D
:10A4A000D89015321432E804FBE1010E14C0DBFF32
:10A4B000020E15C0DBFFFE0EDB5007080BE1010E9C
:10A4C000DBCF14F0020EDBCF15F014C0F3FF15C084
:10A4D000F4FF1AD0010EDBCFE6FF020EDBCFE6FF62
:10A4E0001DD8E552E552DE52F3CFDEFFF4CFDDFF9B
:10A4F000DD52010EDBCF14F0020EDBCF15F014C0DD
:10A50000F3FF15C0F4FF00D0030EE15C02E2E16A44
:10A51000E552E16EE552E7CFD9FF1200D9CFE6FF51
:10A52000E1CFD9FFFD0EDBCF14F0FE0EDBCF15F02F
:10A53000153404E21450FF08010E15541EE2FD0EFE
:10A54000DBCF14F0FE0EDBCF15F01450FC0E15120D
:10A55000FD0E14C0DBFFFE0E15C0DBFFFD0EDBCFD2
:10A56000E6FFFE0EDBCFE6FF17D8E552E552FD0E03
:10A57000F3CFDBFFFE0EF4CFDBFFFD0EDBCF14F0DD
:10A58000FE0EDBCF15F014C0F3FF15C0F4FF00D0B2
:10A59000E552E7CFD9FF1200D9CFE6FFE1CFD9FFCF
:10A5A000FD0EDB1C146EFE0EDB1C156EFD0E14C0C2
:10A5B000DBFFFE0E15C0DBFFD950FD0FE96EFF0E6D
:10A5C000DA20EA6EEE2A000EED22FD0EDBCF14F04B
:10A5D000FE0EDBCF15F0146C151E000E152214C0F4
:10A5E000F3FF15C0F4FF00D0E552E7CFD9FF12000A
:10A5F000D9CFE6FFE1CFD9FF020EE126FD0EDBCF7A
:10A60000E9FFFE0EDBCFEAFF230EEF6E010EDE6EDA
:10A61000DD6ADECF14F0DDCF15F0D890155004E6DA
:10A62000140E145C000E155813E2FD0EDBCF14F06F
:10A63000FE0EDBCF15F0DE501424E96EDD50152040
:10A64000EA6E240EEF6EDF2A010E01E3DB2AE1D76A
:10A65000FD0EDBCF14F0FE0EDBCF15F0DE50142420
:10A66000E96EDD501520EA6E250EEF6E0A0EE76EDC
:10A67000FD0EDBCFE9FFFE0EDBCFEAFFE750E92658
:10A68000000EEA22260EEF6E020EE15C02E2E16AA3
:10A69000E552E16EE552E7CFD9FF1200D9CFE6FFD0
:10A6A000E1CFD9FF160EE126E66AE0EC60F0E55254
:10A6B000D950FD0FE96EFF0EDA20EA6EEE50ED1074
:10A6C0002CE1CF0EE66ED00EE66ED50E146ED00ED7
:10A6D000156E166A14C0E6FF15C0E6FF16C0E6FF49
:10A6E000D950020FE66E000EDA20E66E42EC66F0FC
:10A6F000176E070EE15E17500A0EE66E010EE66E4B
:10A70000D950020FE66E000EDA20E66E1CEC62F005
:10A71000E552E552E552E55200D0160EE15C02E248
:10A72000E16AE552E16EE552E7CFD9FF1200D9CFD9
:10A73000E6FFE1CFD9FF3B0EE126D1DCA6DC110E0E
:10A74000DB6A120EDB6A010EF36E130EF3CFDBFF32
:10A75000220EDB6A230EDB6A0D0EDB6A0E0EDB6A4D
:10A76000090EDB6A0A0EDB6A0F0EDB6A100EDB6A6B
:10A770000B0EDB6A0C0EDB6AE66A030EE66E880ED1
:10A78000E66E000EE66E1CEC62F0E552E552E55214
:10A79000E552E66A050EE66E9E0EE66E000EE66E69
:10A7A0001CEC62F0E552E552E552E552E66A070E0E
:10A7B000E66E6B0EE66E000EE66E1CEC62F0E55285
:10A7C000E552E552E552300EE66E020EE66EBA0E26
:10A7D000E66E000EE66E1CEC62F0E552E552E552C4
:10A7E000E552300EE66E040EE66EB40EE66E000E16
:10A7F000E66E1CEC62F0E552E552E552E5526C0E55
:10A80000E66EE66ACA0EE66E000EE66E1CEC62F0BC
:10A81000E552E552E552E552130EC26ECBDD00095A
:10A820004AE0130EDB501AE0130EDB6A00017D0EC6
:10A83000CA6F6C0EE66EE66ACA0EE66E000EE66E33
:10A840001CEC62F0E552E552E552E552010EF36E62
:10A85000110EF3CFDBFF120EDB6A29D0D950110F96
:10A86000E96EDACFEAFFEE50ED1002E0000E01D003
:10A87000010E146E130EDB5002E0000E01D0010E2B
:10A88000141415E0010EF36E130EF3CFDBFF00017D
:10A890007E0ECA6F6C0EE66EE66ACA0EE66E000E9B
:10A8A000E66E1CEC62F0E552E552E552E552110EFF
:10A8B000DB6A120EDB6A110EC26E0F0EE66E28DD29
:10A8C000E552140EF3CFDBFF150EF4CFDBFF140EB1
:10A8D000DBCF14F0150EDBCF15F0D890155004E641
:10A8E000A80E145C020E155812E200017B0E656F73
:10A8F000360EE66E070EE66E650EE66E000EE66E2E
:10A900001CEC62F0E552E552E552E55211D000012F
:10A91000200E656F360EE66E070EE66E650EE66E6D
:10A92000000EE66E1CEC62F0E552E552E552E5528F
:10A93000030EE66EEDDCE552160EF3CFDBFF170ECD
:10A94000F4CFDBFF160EDBCF14F0170EDBCF15F0C4
:10A95000D890155004E6A80E145C020E155812E2A9
:10A9600000017C0E676F420EE66E070EE66E670E04
:10A97000E66E000EE66E1CEC62F0E552E552E55222
:10A98000E55211D00001200E676F420EE66E070EF1
:10A99000E66E670EE66E000EE66E1CEC62F0E552A7
:10A9A000E552E552E552070EE66EB2DCE552180EAE
:10A9B000F3CFDBFF190EF4CFDBFF0B0EE66EA8DC46
:10A9C000E5521A0EF3CFDBFF1B0EF4CFDBFF180EA0
:10A9D000DBCF16F0190EDBCF17F01A0EDB50165C2A
:10A9E000146E1B0EDB501758156E1C0E14C0DBFFC7
:10A9F0001D0E15C0DBFF1C0EDBCF14F01D0EDBCFD0
:10AA000015F0153404E214500008000E15542BE222
:10AA10001A0EDBCF14F01B0EDBCF15F0D8901550BB
:10AA200004E6200E145C030E15581CE20001280EEB
:10AA3000696F3C0EE66E070EE66E690EE66E000E5E
:10AA4000E66E1CEC62F0E552E552E552E5520B0E63
:10AA5000E66E5EDCE5521A0EF3CFDBFF1B0EF4CF81
:10AA6000DBFFD6D746D01C0EDBCF14F01D0EDBCF9C
:10AA700015F00001800E15142BE0180EDBCF14F03A
:10AA8000190EDBCF15F0D890155004E6200E145C9B
:10AA9000030E15581CE20001270E696F3C0EE66E8E
:10AAA000070EE66E690EE66E000EE66E1CEC62F0B6
:10AAB000E552E552E552E552070EE66E29DCE55215
:10AAC000180EF3CFDBFF190EF4CFDBFFD6D711D072
:10AAD0000001200E696F3C0EE66E070EE66E690EF1
:10AAE000E66E000EE66E1CEC62F0E552E552E552B1
:10AAF000E552080EE66E93EC63F0E552E66ED9502F
:10AB0000250FE96EDACFEAFFE552E750EE6EED6A07
:10AB1000D950250FE96EDACFEAFF340EEE5E000E53
:10AB2000ED5AD950250FE96EDACFEAFF050EEC0297
:10AB3000F3CFEDFFEF02F3CFEEFFF450ED26D95047
:10AB4000250FE96EDACFEAFF090E0D6E0E6AEECF21
:10AB500008F0EDCF09F098EC66F008C0EEFF09C0F0
:10AB6000EDFF250EDBCFE6FF260EDBCFE6FFD80E8E
:10AB7000146ED00E156E166A14C0E6FF15C0E6FFFF
:10AB800016C0E6FFE40EE66E000EE66E42EC66F0DE
:10AB9000176E070EE15E17500001540EE26F3A0E79
:10ABA000E36F600EE66FE76BE66E070EE66EE20E91
:10ABB000E66E000EE66E1CEC62F0E552E552E552E0
:10ABC000E552030EE66E2BDCE552030EF3CFDBFFFE
:10ABD000040EF4CFDBFF030EDBCF14F0040EDBCF4B
:10ABE00015F0090EDBCF16F00A0EDBCF17F0175069
:10ABF0001518E8AE02D0153404D01450165C155068
:10AC0000175801E393D0030EDBCFE6FF040EDBCF32
:10AC1000E6FFD80E146ED00E156E166A14C0E6FF4D
:10AC200015C0E6FF16C0E6FFD10EE66E000EE66E1A
:10AC300042EC66F0176E070EE15E1750D10EE66E1D
:10AC4000000EE66E030EDBCFE6FF040EDBCFE6FF61
:10AC500072EC50F0E552E552E552E5526C0EE66EAC
:10AC6000020EE66ED10EE66E000EE66E1CEC62F091
:10AC7000E552E552E552E552030EDBCF08F0040E33
:10AC8000DBCF09F0090E08C0DBFF0A0E09C0DBFFAD
:10AC9000320E146E156A090EDBCF08F00A0EDBCFF8
:10ACA00009F014C00DF015C00EF098EC66F0200EFF
:10ACB00008C0DBFF210E09C0DBFF0B0EF36E220E76
:10ACC000F3CFDBFF230EDB6A200EDBCF14F0210E67
:10ACD000DBCF15F0153404E214500008000E1554B3
:10ACE00017E2220EDBCFE9FF230EDBCFEAFF880E4F
:10ACF000E926000EEA22260EEF6E200EDB06210E5C
:10AD000001E2DB06220EDB2A230E01E3DB2ADCD77D
:10AD1000E66A030EE66E880EE66E000EE66E1CEC2A
:10AD200062F0E552E552E552E552B1D0030EDBCFB9
:10AD300014F0040EDBCF15F00D0EDBCF16F00E0E67
:10AD4000DBCF17F015501718E8AE02D0173404D037
:10AD50001650145C1750155801E399D0030EDBCF41
:10AD6000E6FF040EDBCFE6FFD80E146ED00E156E94
:10AD7000166A14C0E6FF15C0E6FF16C0E6FFD10E46
:10AD8000E66E000EE66E42EC66F0176E070EE15EB0
:10AD90001750D10EE66E000EE66E030EDBCFE6FF17
:10ADA000040EDBCFE6FF72EC50F0E552E552E552BF
:10ADB000E552E66A020EE66ED10EE66E000EE66E13
:10ADC0001CEC62F0E552E552E552E552030EDBCF92
:10ADD00008F0040EDBCF09F00D0E08C0DBFF0E0EED
:10ADE00009C0DBFF0D0EDBCF14F00E0EDBCF15F02C
:10ADF000146C151E000E1522320E0D6E0E6A14C054
:10AE000008F015C009F098EC66F008C014F009C00D
:10AE100015F0200E14C0DBFF210E15C0DBFF090E5C
:10AE2000F36E220EF3CFDBFF230EDB6A200EDBCFA7
:10AE300014F0210EDBCF15F0153404E21450000895
:10AE4000000E155417E2220EDBCFE9FF230EDBCFF5
:10AE5000EAFF880EE926000EEA22260EEF6E200E8B
:10AE6000DB06210E01E2DB06220EDB06230E01E2E9
:10AE7000DB06DCD7E66A030EE66E880EE66E000E91
:10AE8000E66E1CEC62F0E552E552E552E552050E25
:10AE9000E66E0FEC52F0E552050EF3CFDBFF060E27
:10AEA000F4CFDBFF050EDBCF14F0060EDBCF15F081
:10AEB0000B0EDBCF16F00C0EDBCF17F0175015186A
:10AEC000E8AE02D0153404D01450165C1550175853
:10AED00001E393D0050EDBCFE6FF060EDBCFE6FFE6
:10AEE000D80E146ED00E156E166A14C0E6FF15C08B
:10AEF000E6FF16C0E6FFD70EE66E000EE66E42ECE9
:10AF000066F0176E070EE15E1750D70EE66E000E64
:10AF1000E66E050EDBCFE6FF060EDBCFE6FF72EC3A
:10AF200050F0E552E552E552E5526C0EE66E040E25
:10AF3000E66ED70EE66E000EE66E1CEC62F0E55291
:10AF4000E552E552E552050EDBCF08F0060EDBCFE9
:10AF500009F00B0E08C0DBFF0C0E09C0DBFF320E40
:10AF6000146E156A0B0EDBCF08F00C0EDBCF09F068
:10AF700014C00DF015C00EF098EC66F0200E08C05D
:10AF8000DBFF210E09C0DBFF0B0EF36E220EF3CFA9
:10AF9000DBFF230EDB6A200EDBCF14F0210EDBCFAC
:10AFA00015F0153404E214500008000E155417E291
:10AFB000220EDBCFE9FF230EDBCFEAFF9E0EE92650
:10AFC000000EEA22260EEF6E200EDB06210E01E2B5
:10AFD000DB06220EDB2A230E01E3DB2ADCD7E66A3E
:10AFE000050EE66E9E0EE66E000EE66E1CEC62F03E
:10AFF000E552E552E552E552B1D0050EDBCF14F033
:10B00000060EDBCF15F00F0EDBCF16F0100EDBCFE8
:10B0100017F015501718E8AE02D0173404D01650A8
:10B02000145C1750155801E399D0050EDBCFE6FFED
:10B03000060EDBCFE6FFD80E146ED00E156E166A24
:10B0400014C0E6FF15C0E6FF16C0E6FFD70EE66E99
:10B05000000EE66E42EC66F0176E070EE15E1750CA
:10B06000D70EE66E000EE66E050EDBCFE6FF060E8F
:10B07000DBCFE6FF72EC50F0E552E552E552E552C7
:10B08000E66A040EE66ED70EE66E000EE66E1CEC67
:10B0900062F0E552E552E552E552050EDBCF08F0CD
:10B0A000060EDBCF09F00F0E08C0DBFF100E09C043
:10B0B000DBFF0F0EDBCF14F0100EDBCF15F0146C9E
:10B0C000151E000E1522320E0D6E0E6A14C008F009
:10B0D00015C009F098EC66F008C014F009C015F02E
:10B0E000200E14C0DBFF210E15C0DBFF090EF36E2E
:10B0F000220EF3CFDBFF230EDB6A200EDBCF14F032
:10B10000210EDBCF15F0153404E214500008000EB8
:10B11000155417E2220EDBCFE9FF230EDBCFEAFF47
:10B120009E0EE926000EEA22260EEF6E200EDB06AA
:10B13000210E01E2DB06220EDB06230E01E2DB0616
:10B14000DCD7E66A050EE66E9E0EE66E000EE66E33
:10B150001CEC62F0E552E552E552E552070EE66E50
:10B160000FEC52F0E552070EF3CFDBFF080EF4CFE1
:10B17000DBFFD950070FE96EDACFEAFFC00EEE18F9
:10B1800002E1030EED1801E0E5D0D950070FE96E9A
:10B19000DACFEAFF400EEE1801E1ED5001E1DAD01E
:10B1A000070EE66E0FEC52F0E552070EF3CFDBFF11
:10B1B000080EF4CFDBFF030EDB6A040EDB6A050E1C
:10B1C000DB6A060EDB6A0D0EDB6A0E0EDB6A090E09
:10B1D000DB6A0A0EDB6A0F0EDB6A100EDB6A0B0EEF
:10B1E000DB6A0C0EDB6A030EDBCFE6FF040EDBCF5F
:10B1F000E6FFD80E146ED00E156E166A14C0E6FF68
:10B2000015C0E6FF16C0E6FFD10EE66E000EE66E34
:10B2100042EC66F0176E070EE15E1750050EDBCFAD
:10B22000E6FF060EDBCFE6FFD80E146ED00E156ECD
:10B23000166A14C0E6FF15C0E6FF16C0E6FFD70E7B
:10B24000E66E000EE66E42EC66F0176E070EE15EEB
:10B250001750D10EE66E000EE66E030EDBCFE6FF52
:10B26000040EDBCFE6FF72EC50F0E552E552E552FA
:10B27000E552D70EE66E000EE66E050EDBCFE6FF5A
:10B28000060EDBCFE6FF72EC50F0E552E552E552D8
:10B29000E552E66A020EE66ED10EE66E000EE66E2E
:10B2A0001CEC62F0E552E552E552E5526C0EE66E9A
:10B2B000020EE66ED10EE66E000EE66E1CEC62F03B
:10B2C000E552E552E552E5526C0EE66E040EE66E6E
:10B2D000D70EE66E000EE66E1CEC62F0E552E5520B
:10B2E000E552E552E66A040EE66ED70EE66E000EF3
:10B2F000E66E1CEC62F0E552E552E552E552880E2E
:10B30000E66E000EE66EF8EC52F0E552E5529E0E47
:10B31000E66E000EE66EF8EC52F0E552E552E66A93
:10B32000030EE66E880EE66E000EE66E1CEC62F012
:10B33000E552E552E552E552E66A050EE66E9E0ECE
:10B34000E66E000EE66E1CEC62F0E552E552E55248
:10B35000E5521BD7000EE66EE66A4EEC53F0E5525E
:10B36000E5520CEF54F03B0EE15C02E2E16AE5527B
:0AB37000E16EE552E7CFD9FF1200AD
:06B37A00F9EC5EF0FB0E91
:10B38000DBCFF3FFDB06F35000090AE047EC5FF088
:10B39000FA0EB2EC5FF0F3E1151CF1E1010E01D001
:10B3A000000E28EF5FF0F9EC5EF03B0EE12402E3C3
:10B3B000E168E652E16E010EDB6A020EDB6AF90E0D
:10B3C000DBCFF6FFFA0EDBCFF7FFFB0EDBCFF8FF8C
:10B3D0000800F550DF6EDF5002E14CEF5EF0250E05
:10B3E000DF5C02E03FEF5EF0030EDB6A040EDB6A17
:10B3F000050EDB6A060EDB6A070EDB6A61EC5EF0A7
:10B400002D0EDF5C0CE02B0EDF5C09E0200EDF5C14
:10B4100006E0230EDF5C03E0300EDF5C1AE1DF5054
:10B42000300A14E0130A0FE0030A0AE00B0A05E0F1
:10B43000060AE4E1030EDB80E1D7030EDB82DED7F0
:10B44000030EDB84DBD7030EDB86D8D7030EDB8845
:10B45000D5D72A0EDF5C1BE15DEC5EF0ABEC5EF055
:10B4600010E0030EDB8008680968130EDBCF0DF0D7
:10B47000140EDBCF0EF0BEEC66F0040E06C0DBFF50
:10B4800003D0130E94EC5EF061EC5EF00BD0090E6D
:10B49000DB6A02EC5FF003E076EC5FF0FAD7090EAE
:10B4A00094EC5EF0030EDBB0DB982E0EDF5C1BE14C
:10B4B00061EC5EF02A0EDF5C0BE15DEC5EF0ABEC64
:10B4C0005EF003E1130EE6EC5EF061EC5EF00BD093
:10B4D000090EDB6A02EC5FF003E076EC5FF0FAD76E
:10B4E000090EE6EC5EF0680EDF5C07E161EC5EF0F1
:10B4F000680EDF5C1DE1030E18D0740EDF5C17E0F0
:10B500007A0EDF5C14E0480EDF5C06E0540EDF5C70
:10B5100003E05A0EDF5C02E1020E07D06C0EDF5C26
:10B5200003E06A0EDF5C04E1010E39EC5FF0C9DB79
:10B53000DF506E0A01E17FD31E0A01E192D1200A99
:10B5400001E18FD13F0A01E149D11A0A01E146D157
:10B550000D0A01E143D1200A01E140D13A0A01E19B
:10B560003DD1200A01E13AD1260A01E135D10D0A87
:10B5700001E132D11A0A01E1D9D0200A4AE0300AA9
:10B580001FE0460A0EE0250A01E083D3D950F90FE7
:10B59000E96EFF0EDA20EA6E010EEE5E000EEE5A44
:10B5A000EE5A47EC5FF0250EE66E95DB03E1151CC5
:10B5B00001E169D343EC5FF001E26BD3DB2A69D38D
:10B5C000080EDB6A040EDB50010806E2040EDB0401
:10B5D0000BEC5FF0DB508BDB080EDB5009E0030E59
:10B5E000DB50010B05E172DB01E04DD3080EDB6A95
:10B5F00064DBEFCFDFFFBBEC5FF003E1151C01E183
:10B6000042D343EC5FF001E3DB2A60DB01E141D38D
:10B610003AD3070EDB5002080FE187EC5FF0030E10
:10B620004EEC5FF00E0EEECFDBFF0F0EEECFDBFF2A
:10B63000100EEECFDBFF20D0F70EDBCF17F0F80EA9
:10B64000DBCF18F0020E175E000E185AF70E17C067
:10B65000DBFFF80E18C0DBFF17C0E9FF18C0EAFFD8
:10B660003EEC5FF0166A0E0E14C0DBFF0F0E15C025
:10B67000DBFF100E16C0DBFF0E0EDBCFE6FF0F0E5A
:10B68000DBCFE6FF100EDBCFE6FFC2EC67F0E55242
:10B69000E552E552130E07C0DBFF140E08C0DBFFB6
:10B6A000060EDB5005E0130E82EC5FF001E26ADB70
:10B6B000A6EC5FF002E2130E37DB69EC5FF006E008
:10B6C000040E82EC5FF002E2050E2EDB030EDBB00F
:10B6D00005D0FCDA01E0D7D2080EDB6A090EDB6A7E
:10B6E0000E0EDBCFF6FF0F0EDBCFF7FF100EDBCF1A
:10B6F000F8FF0800F550DF6EDF5014E0ACEC5FF0AF
:10B7000011E2BBEC5FF003E1151C01E1BCD2BBDB35
:10B7100001E3DB2A090EDB2AD9500E0FE96E000E79
:10B72000CBDBE7D7D3DA01E1B4D2ADD2C6DA110E62
:10B73000EECFDBFF120EEDCFDBFF110EDBCFE6FF0E
:10B74000120EDBCFE6FFB4EC67F0E552E552130EC4
:10B75000F3CFDBFF140EF4CFDBFF060EDB5004E06B
:10B76000130ED0DB01E20EDBA6EC5FF002E2130E5B
:10B77000DBDAAFDB05E0040EC5DB02E2050ED4DA4E
:10B78000030EDBB005D0A2DA01E07DD2080EDB6A41
:10B79000090EDB6A110EDBCFE9FF120EDBCFEAFFE9
:10B7A000EFCFDFFFDF5014E0D7DB12E2E4DB03E191
:10B7B000151C01E168D267DB01E3DB2A090EDB2AF5
:10B7C000110EDB2ADBCFE9FF120EE8E3DB2AE6D716
:10B7D0007DDA01E15ED257D2030EDB8E070EDB0469
:10B7E00010E195DB040E5ADB0A0EEECFDBFF0B0EE9
:10B7F000EECFDBFF0C0EEECFDBFF0D0EEECFDBFF4F
:10B800006CD0070EDB5003082CE1030EDBAE0DD02D
:10B81000B2DA020E76DAEFCF14F0156A166A176AFA
:10B8200014AE39D01568166835D0F70EDBCF15F099
:10B83000F80EDBCF16F0020E155E000E165AF70E4C
:10B8400015C0DBFFF80E16C0DBFF15C0E9FF16C000
:10B85000EAFFEFCF14F00A0E14C0DBFF0B0EDB6A19
:10B8600038D0070EDB50020809E1030EDBAE04D02E
:10B8700059DB16AE10D00ED055DB0DD0030EDBAE6B
:10B8800012D079DA020E3DDAF9DA166A176A15AEC5
:10B8900002D016681768E2DA0C0E16C0DBFF0D0E38
:10B8A00017C0DBFF1AD0F70EDBCF16F0F80EDBCF98
:10B8B00017F0020E165E000E175AF70E16C0DBFFC9
:10B8C000F80E17C0DBFF16C0E9FF17C0EAFFD6DA93
:10B8D000C5DA0C0EDB6A0D0EDB6A060EDB5005E1E5
:10B8E000010EF36E050EF3CFDBFF150EDB6A160EAD
:10B8F000DB6AD950370F146E000EDA20156E390E40
:10B9000014C0DBFF3A0E15C0DBFF380EDB6A080EF1
:10B91000DB6A0A0EAEDADF50780A12E0200A10E085
:10B92000280A0CE0200A0AE03F0A06E00D0A02E0BD
:10B93000200A08E1020E05D0080E03D0080EDF260B
:10B94000100E97DA030EDBBE02D0DB92DB94DB50E5
:10B95000800B24E08ADAD890030EEB50000A08E648
:10B96000000EEE5C000EEE58000EEE58000EEE5883
:10B9700015E213DA0B680C680D680E687CEC67F052
:10B980000A0E02C0DBFF0B0E03C0DBFF0C0E04C06F
:10B99000DBFF0D0E05C0DBFF2D0E08D0030EDBA272
:10B9A00002D02B0E03D0DBA408D0200EF36E170EAE
:10B9B000F3CFDBFF150EDB2A02D0170EDB6A050E74
:10B9C000DB5003E1B7D901E189D0BE0E146ED00E71
:10B9D000156E000E166E070EDBCF17F0186A196A87
:10B9E0001A6A17C00BF018C00CF019C00DF01AC07D
:10B9F0000EF0D3D9E7EC67F014500224F36E155023
:10BA00000320F46E16500420F86EF4CFF7FFF3CF46
:10BA1000F6FF0800090EF5CFDBFF580EDF5C0FE1E3
:10BA2000610EF36E090E7BD90AE3200E146E090E27
:10BA3000DBCFE7FF1450E75E090EE7CFDBFF070E11
:10BA4000DBCF14F0156A166A176A0FDA14C00BF010
:10BA500015C00CF016C00DF017C00EF0EECF06F0BA
:10BA6000EECF07F0EECF08F0EFCF09F0E7EC67F08C
:10BA700009C0EDFF08C0EDFF07C0EDFF06C0EFFFF6
:10BA8000390EDBCFE9FFDB063A0EDBCFEAFF01E23E
:10BA9000DB06090EDBCFEFFF150EDB2A4BD995E154
:10BAA000030EDBA61DD06F0EDF5C06E1C1D918E3E3
:10BAB000150EDB285BDA14D0780EDF5C09E0580E37
:10BAC000DF5C06E0620EDF5C03E0420EDF5C08E153
:10BAD000020EF36E160EF3CFDBFF02D0150EDB6AFB
:10BAE000030EDB50100B0EE0040EDBCF14F0050E3E
:10BAF000DB50D880145406E2060EDB5003E1040E3E
:10BB0000DB5034DA95D90AE2050EDBCFE7FF150EDC
:10BB1000DB50E75E050EE7CFDBFF02D0050EDB6AE8
:10BB2000040EDBCF14F0160E45D9D880145414E25D
:10BB3000160EDBCFE6FF150EDBCFE6FF040EDBCFE4
:10BB4000E6FF050EDB50E552E75CE552D880E7548E
:10BB5000E552D880E7545FD9030EDB50010B0BE1AF
:10BB6000080EDB5008E0B2D801E08DD0080EDB50A3
:10BB7000BED8080EDB6A170EDB5007E088D9170E17
:10BB8000F1D903E1151C01E17ED0160EDB5016E061
:10BB90007ED9300EE66E9FD802E1151C74E077D98D
:10BBA000DFCFE6FF3AEC67F0E552E552E552F4CF1D
:10BBB00015F00001F31C02E1151C65E0050EDBCF5A
:10BBC00014F0160EDB50D880145409E2050EDBCFBA
:10BBD000E7FF160EDB50E75E050EE7CFDBFF300E0A
:10BBE000E66E050ECBD94FE1390EDB2ADBCFE9FF3C
:10BBF0003A0E01E3DB2ADBCFEAFF090EEFCFDBFFD2
:10BC0000DB500EE044D9090EADD902E1151C3BE032
:10BC1000390EDB2ADBCFE9FF3A0EEDE3DB2AEBD767
:10BC200055D831E1160EDBCFE6FF080EC3D8E5523A
:10BC3000E7245DD82ED0070EDB50030A1CE0010A72
:10BC400014E0030A07E07BD9DBCFEEFF020EDBCF67
:10BC5000EDFF1FD0F5D8196A17AE02D01868196821
:10BC60002CD8BCD819C0EEFF14D0EAD817BE18687B
:10BC700024D8B4D80ED063D9DBCFEFFF0AD07BD95C
:10BC800005E1151C03E1F368F46810D0FCD801E36A
:10BC9000DB2A79D9E8EF59F0010EDBCF14F0020E60
:10BCA000DBCF15F014C0F3FF15C0F4FF3B0EE15CD1
:10BCB00002E2E16AE552E16ECBD029D9020E4EEFE5
:10BCC0005FF061D90800F550DF6E1200200EE66EBD
:10BCD000080EBEEF5FF03AEC67F0E552E552E55230
:10BCE000F3CF14F0F4CF15F00001F31C1200146E22
:10BCF000156AD950010F4DD91450EE261550ED227A
:10BD00001200185E000E195AF70E18C0DBFFF80E6D
:10BD100019C0DBFF18C0E9FF19C0EAFF1200DBCF32
:10BD2000F4FFF350F45C1200DB50E76E040EE7CF33
:10BD3000DBFF12000A0EDBCF14F00B0EDBCF15F089
:10BD40000C0EDBCF16F00D0EDBCF17F014501510D4
:10BD5000161017101200130EEECFDBFF140EEDCFEE
:10BD6000DBFF130EDBCF14F0140EDBCF15F0000158
:10BD7000800E15141200F70EDBCF18F0F80EDBCF93
:10BD800019F01200050EDB50E66ED950130F01D9E1
:10BD9000E552E750EE6EED6A12000A0EDBCF06F0B8
:10BDA0000B0EDBCF07F00C0EDBCF08F00D0EDBCF58
:10BDB00009F01200DBCFE6FF150EDBCFE6FF050E24
:10BDC000DB50E552E724E552E7241200DB50CED8E1
:10BDD000010EF36E060EF3CFDBFF1200EE50EFCF35
:10BDE000EAFFE96E16C0EEFF17C0EEFF18C0EEFFC7
:10BDF0001200D9CFE6FFDACFE6FFE1CFD9FFE2CFDD
:10BE0000DAFF1200DFCFE6FFE66A21EC68F0E552C8
:10BE1000E552F3501200E76E080EE7CFDBFF120089
:10BE2000EECF14F0EECF15F0EFCF16F0176A120038
:10BE3000050EDBCF14F0150EDB50D8801454120021
:10BE4000010EDBCF16F0020EDBCF17F0186A1200DE
:10BE5000E552E5CFDAFFE7CFD9FF12000A0E14C092
:10BE6000DBFF0B0E15C0DBFF1200D9500A0FC9EF24
:10BE70005FF0F36E070EF3CFDBFF1200EECF14F08E
:10BE8000EFCF15F01200010EDB2A020E1200FC0E9D
:10BE9000DBCFE6FFFD0EDBCFE6FF1200145E000EE7
:10BEA000155AF70E14C0DBFFF80E15C0DBFF14C0E7
:10BEB000E9FF15C0EAFF1200DA20EA6EEF2AEECFA2
:10BEC000F6FF000EEF22EECFF7FFEF22EECFF8FFE6
:10BED0001200040EDBCFE6FF130EDB50E552E75CE9
:10BEE0009ADFDB5004DF060EDB501200090EDB5038
:10BEF0000A0DF350DF24D00FE76E090EE7CFDBFF0A
:10BF000061EF5EF0DB50F36E050E8FEF5EF0F70E23
:10BF1000DBCF14F0F80EDBCF15F01200DFCFE6FF19
:10BF20006BEF5EF028DF030EECDE10EF5FF0BDEC90
:10BF300059F0E552E552E552E55200091200BDDE26
:10BF4000EE50EFCFEAFFE96E010E1200130EDB5048
:10BF5000F36E040E8FEF5EF0040EDB50F36E090EED
:10BF60008FEF5EF0DBCFE6FF6BEF5EF0E76E050E66
:10BF7000E7CFDBFF12008BDF8EEF5FF0DBCFE6FF5A
:10BF800086DF97EF5FF0D950F90FE96EFF0E5CEF97
:0CBF90005FF0E96E000EDA20EA6E12008D
:04BF9C00D9CFE6FF14
:10BFA000E1CFD9FF020EE126FD0EDBCF14F0DB0658
:10BFB000FE0EDBCF15F001E2DB061450151011E088
:10BFC000DE6ADD6ADECF14F0DDCF15F0E30E145C1F
:10BFD0000D0E155805E2DF2A010E01E3DB2AF2D728
:10BFE000E3D7020EE15C02E2E16AE552E16EE5525E
:10BFF000E7CFD9FF1200D9CFE6FFE1CFD9FF060E78
:10C00000E1268D9296928D9096908D8496948A9A40
:10C01000939A8C92DE6ADE6ADE6ADD6ADD52DD5258
:10C02000D9CFE9FFDACFEAFF640EEE5C000EEE58DE
:10C03000000EEE58000EEE580AE2D9CFE9FFDACF33
:10C04000EAFFEE2A000EEE22EE22EE22E9D78C82E3
:10C05000DE6ADE6ADE6ADD6ADD52DD52D9CFE9FFD3
:10C06000DACFEAFF640EEE5C000EEE58000EEE58DA
:10C07000000EEE580AE2D9CFE9FFDACFEAFFEE2A46
:10C08000000EEE22EE22EE22E9D7AE0EE66E70D85A
:10C09000E552DB0EE66E6CD8E552230EE66E68D8EC
:10C0A000E552D90EE66E64D8E552220EE66E60D8EF
:10C0B000E552A10EE66E5CD8E552C80EE66E58D881
:10C0C000E552DA0EE66E54D8E552120EE66E50D8FE
:10C0D000E552A80EE66E4CD8E5523F0EE66E48D803
:10C0E000E552D50EE66E44D8E552A00EE66E40D875
:10C0F000E552810EE66E3CD8E552600EE66E38D809
:10C10000E552D30EE66E34D8E552E66A31D8E552F0
:10C11000A60EE66E2DD8E552AD0EE66E29D8E55294
:10C120008B0EE66E25D8E552AF0EE66E21D8E552AD
:10C130000A0EE66EE66A32DFE552E552A40EE66EBE
:10C1400017D8E552400EE66E13D8E552020EE66EA1
:10C150000FD8E552100EE66E0BD8E552060EE15CE4
:10C1600002E2E16AE552E16EE552E7CFD9FF120043
:10C17000D9CFE6FFE1CFD9FF956AFE0EDB508C6E7A
:10C180008D808D828A9A8D948D928D828D84956812
:10C19000E552E7CFD9FF1200D9CFE6FFE1CFD9FFB3
:10C1A000956AFE0EDB508C6E8D808D828A8A8D940E
:10C1B0008D928D828D849568E552E7CFD9FF12006C
:10C1C000D9CFE6FFE1CFD9FF020EE126B00EDF6E38
:10C1D000B80EDF5C23E2DFCFE6FFCADFE552020ED6
:10C1E000E66EC6DFE552100EE66EC2DFE552010EC6
:10C1F000DB6ADB50146E156AD890155004E6840E85
:10C20000145C000E155808E2FE0EDBCFE6FFC4DF1B
:10C21000E552010EDB2AEDD7DF2ADAD7020EE15C08
:10C2200003E200D0E16AE552E16EE552E7CFD9FFC3
:10C230001200D9CFE6FFE1CFD9FF200E146EFE0E1B
:10C24000DBCFE7FF1450E75EFE0EE7CFDBFFDBCF6F
:10C25000F6FFF76AF6BEF768050EF702F3CFF7FFB1
:10C26000F602F3CFF6FFF450F726B80EF626C90E05
:10C27000F7220800F550E66E8FDFE552FE0EDBCFA9
:10C28000F6FFF76AF6BEF768050EF702F3CFF7FF81
:10C29000F602F3CFF6FFF450F726B80EF626C90ED5
:10C2A000F722010EF626000EF7220800F550E66E82
:10C2B00073DFE552FE0EDBCFF6FFF76AF6BEF768D6
:10C2C000050EF702F3CFF7FFF602F3CFF6FFF450B7
:10C2D000F726B80EF626C90EF722020EF626000E35
:10C2E000F7220800F550E66E57DFE552FE0EDBCF71
:10C2F000F6FFF76AF6BEF768050EF702F3CFF7FF11
:10C30000F602F3CFF6FFF450F726B80EF626C90E64
:10C31000F722030EF626000EF7220800F550E66E0F
:10C320003BDFE552FE0EDBCFF6FFF76AF6BEF7689D
:10C33000050EF702F3CFF7FFF602F3CFF6FFF45046
:10C34000F726B80EF626C90EF722040EF626000EC2
:10C35000F7220800F550E66E1FDFE552E66A1CDFA3
:10C36000E55200D0E552E7CFD9FF1200D9CFE6FF62
:10C37000E1CFD9FFE652FD0EDBCFE6FFF9DEE55255
:10C38000020E146EFC0EDBCFE7FF1450E726FC0E06
:10C39000E7CFDBFFDB500F0BE66EEADEE552FC0E6B
:10C3A000DB380F0B0F0B100FE66EE2DEE552FE0ED0
:10C3B000DBCFE6FF3EDFE55200D0E552E552E7CFA6
:10C3C000D9FF1200D9CFE6FFE1CFD9FFFC0EDB5039
:10C3D000B00FE76EFC0EE7CFDBFFFB0EDBCFE6FF17
:10C3E000FC0EDBCFE6FFFD0EDBCFF6FFFE0EDBCF54
:10C3F000F7FF0800F550E66EB9DFE552E552E55269
:10C40000FD0EDB2ADBCFF6FFFE0E01E3DB2ADBCFDE
:10C41000F7FF0800F5500CE0FD0EDBCFF6FFFE0E37
:10C42000DBCFF7FF0800F550E66E03DFE552E8D7F3
:10C43000E552E7CFD9FF1200D9CFE6FFE1CFD9FF10
:10C44000FC0EDB50B00FE76EFC0EE7CFDBFFFB0E00
:10C45000DBCFE6FFFC0EDBCFE6FFFD0EDBCFE9FF17
:10C46000FE0EDBCFEAFFEF50E66E80DFE552E552CD
:10C47000E552FD0EDB2ADBCFE9FFFE0E01E3DB2AEE
:10C48000DBCFEAFFEF500BE0FD0EDBCFE9FFFE0E46
:10C49000DBCFEAFFEF50E66ECCDEE552EAD7E5529D
:10C4A000E7CFD9FF1200D9CFE6FFE1CFD9FF050EC4
:10C4B000E126030EDB6A040EDB6A020E146EFA0E2E
:10C4C000DBCFE7FF1450E726FA0EE7CFDBFFF90ECC
:10C4D000DB50B00FDF6EFB0EDB50B00FDF5C35E2E0
:10C4E000DFCFE6FF45DEE552FA0EDB500F0BE66EBE
:10C4F0003FDEE552FA0EDB380F0B0F0B1009E66E2C
:10C5000037DEE552010EDB6AFC0EDB50F36E010EE6
:10C51000DBCFF4FFF350F45C16E2030EDB2A040ECB
:10C5200001E3DB2AFD0EDBCFF6FFDB2AFE0EDBCFBD
:10C53000F7FF01E3DB2A0800F550E66E2DDEE55239
:10C54000010EDB2AE1D7DF2AC6D7050EE15C03E244
:10C5500000D0E16AE552E16EE552E7CFD9FF120063
:10C56000D9CFE6FFE1CFD9FF030EE12659D8736A90
:10C57000820E726E739C94949396958C7288728AD4
:10C58000949EE66AD0D8E552E76E020EE7CFDBFF55
:10C590000000D950020FE96EDACFEAFFEF50070B27
:10C5A000020801E00000140EE66EBDD8E552E76E09
:10C5B000020EE7CFDBFF020EDB96DB88020EDB808C
:10C5C000DB92DB94020EDBCFE6FF140EE66E3AD868
:10C5D000E552E552010EE66EA6D8E552DE6EDD6A42
:10C5E0000000110EE66E9FD8E552DE6EDD6A000097
:10C5F000E66A110EE66E26D8E552E5520000110EED
:10C60000E66E91D8E552DE6EDD6A0000030EE15C55
:10C6100002E2E16AE552E16EE552E7CFD9FF12008E
:10C62000550EA76EAA0EA76E0E01FF91090ECC6FD4
:10C630000A0ED36F170EFB6F550EA76EAA0EA76ECC
:10C64000FF811200D9CFE6FFE1CFD9FFE652DF6AC2
:10C65000FE0EDB50140804E0FE0EDB50340806E149
:10C66000140EE66E60D8E552E00BDF6E8B9EA49E42
:10C67000FE0EDB50756EA4AEFED700000000000079
:10C6800000000000000000000000000000000000AA
:10C69000000000000000000000000000000000009A
:10C6A000000000000000000000000000000000008A
:10C6B000000000000000000000000000000000007A
:10C6C000000000000000000000000000000000006A
:10C6D000000000000000000000000000000000005A
:10C6E000000000000000000000000000000000004A
:10C6F00000000000000000000000A49EFE0EDB50C1
:10C700000A0805E1FD0EDB507F0B756E04D0FD0EAF
:10C71000DB50DF10756EA4AEFED78B8EE552E5526E
:10C72000E7CFD9FF1200D9CFE6FFE1CFD9FF8B9E2B
:10C73000A49EFE0EDB508009756EA4AEFED70000ED
:10C7400000000000000000000000000000000000E9
:10C7500000000000000000000000000000000000D9
:10C7600000000000000000000000000000000000C9
:10C7700000000000000000000000000000000000B9
:10C7800000000000000000000000000000000000A9
:10C790000000000000000000000000000000000099
:10C7A0000000000000000000000000000000000089
:10C7B0000000000000000000000000000000A49E37
:10C7C000756AA4AEFED78B8E755000D0E552E7CFC8
:04C7D000D9FF12007B
:0CC7D400030EB16EB392B390B396B2881E
:10C7E000B28EB290B292A494B38E12002F0E926EBB
:10C7F0000F01E00E486F1F0E496FC18EC19CC70E1E
:10C80000C1140809C16EF80EC1140209C16E498F26
:10C81000C29CC29EC30EC2140809C26EC28012001E
:10C82000D9DFF6EF63F0D9CFE6FFE1CFD9FF020EF3
:10C83000E126FE0EDB500F0BF36EF346F346C30EFC
:10C84000C214F310C26EFE0EDB50EA6A060FE96EE8
:10C850000E0EEA22EF503F0BF36EF346F346030E43
:10C86000B114F310B16EB38EB3820000000000006B
:10C8700000000000000000000000000000000000B8
:10C8800000000000000000000000000000000000A8
:10C890000000B392B2800000000000000000000021
:10C8A0000000000000000000000000000000000088
:10C8B0000000000000000000000000000000B29036
:10C8C0009E9CC2829EACFED7C3CFDEFFC4CFDDFFED
:10C8D000DECF14F0DDCF15F014C0F3FF15C0F4FF68
:10C8E00000D0020EE15C02E2E16AE552E16EE5523F
:10C8F000E7CFD9FF1200D9CFE6FFE1CFD9FF030E72
:10C90000E126020EDB6A040EF36E020EDBCFF4FFAB
:10C91000F350F45C21E22AD8EF6A30D80CE226D832
:10C92000EF501F0803E122D8EF6A13D01FD8EF2A77
:10C9300025D8F5E30ED02CD80CE218D8EF50E1083A
:10C9400003E114D8EF6A05D011D8EF062BD820D810
:10C95000F4E3020EDB2AD7D7030EE15C02E2E16AC0
:10C96000E552E16EE552E7CFD9FF1200020EDB502F
:10C97000EA6A060FE96E0E0EEA22120013D8DECF25
:10C9800014F0DDCF15F0200E145C030E15581200C4
:10C99000D9CFE9FFDACFEAFF200ED880EE54030E9C
:10C9A000ED541200020EDBCFE6FF3DDFE552F3CF80
:08C9B000DEFFF4CFDDFF1200F1
:08C9B800000000000000004F28
:10C9C00000000007000700FF818181818181818152
:10C9D0008181818181FFBDBDBDBDBD0CFEFFFE0C0F
:10C9E000307FFF7F300041221C0014083E081408ED
:10C9F000083E0808005030000008080808080060D9
:10CA000060000020100804023E5149453E00427F6C
:10CA1000400042615149462141454B311814127F73
:10CA20001027454545393C4A4949300171090503FC
:10CA30003649494936064949291E00363600000064
:10CA40005636000008142241001414141414004136
:10CA50002214080201510906324979413E7E111122
:10CA6000117E7F494949363E414141227F41412261
:10CA70001C7F494949417F090909013E4149497AD9
:10CA80007F0808087F00417F41002040413F017F2F
:10CA9000081422417F404040407F020C027F7F0407
:10CAA00008107F3E4141413E7F090909063E415140
:10CAB000215E7F09192946464949493101017F0113
:10CAC000013F4040403F1F2040201F3F4038403F33
:10CAD000631408146307087008076151494543004F
:10CAE0007F41410002040810200041417F00040200
:10CAF0000102044040404040060909060020545409
:10CB000054787F48444438384444442038444448A6
:10CB10007F3854545418087E0901020C5252523E78
:10CB20007F0804047800447D40002040443D007F9D
:10CB30001028440000417F40007C041804787C08E1
:10CB400004047838444444387C1414140808141439
:10CB5000187C7C080404084854545420043F444082
:10CB6000203C4040207C1C2040201C3C4030403C6D
:10CB700044281028440C5050503C4464544C4418F1
:10CB80003C7E181818187E3C1880E0A0E08080FCDD
:03CB900084FC80A2
:01CB930000A1
:0CCB94000001FDB122D0FD838B80949045
:10CBA000550EA76EAA0EA76E0E01FF910E0ED16F45
:10CBB000550EA76EAA0EA76EFF810F0EBA6ECF0E8E
:10CBC000BA140009BA6EBB6A0F01526B800ECB6EAD
:10CBD000040ECA6EA496600E776E7F0E766E1200FB
:10CBE0000001FD91FD938B80949012000001FDA146
:10CBF00009D08B50010B04E19450010B01E1010CB1
:10CC0000FD91C8DF0001FDA3C5DFA4A63AD0A4961C
:10CC1000BA50300BE842E842E842E842030819E122
:10CC2000400EBB5C10E18B909490BA6ACA6A0E0108
:10CC3000D16B0F01526BCB68766A7768A4960001BE
:10CC4000FD81FD93010CBB2ACF0EBA140009BA6E08
:10CC5000000CBA0EE96E0F0EEA6EEF50300BE84290
:10CC6000E842E842E842E82AE850030BF36EF46E2B
:10CC7000F346F346F346F346CF0EEF14F310EF6E90
:04CC8000F450000C60
:0CCC8400D9CFE6FFDACFE6FFE1CFD9FF01
:10CC9000E2CFDAFFE652E652E652E652D950F90FF9
:10CCA000146EFF0EDA20156E020E14C0DBFF030EA9
:10CCB00015C0DBFF020EDBCFE6FF030EDBCFE6FF86
:10CCC000F90EDBCFE6FFFA0EDBCFE6FFFB0EDBCF84
:10CCD000E6FFD950FC0FE66EFF0EDA20E66ED3ECCD
:10CCE00059F0146E070EE15C02E2E16AE552E16E72
:10CCF0001450F3CFDEFFF4CFDDFFFC0EDBCFE9FFF6
:10CD0000FD0EDBCFEAFFEF6ADECF14F0DDCF15F0CA
:10CD100014C0F3FF15C0F4FF040EE15C02E2E16A07
:10CD2000E552E16EE552E5CFDAFFE7CFD9FF120019
:10CD3000006A0EAEA1EF66F00D6C0E1EE86A0E22C0
:10CD4000001E09AEA9EF66F0086C091EE86A092208
:10CD5000001E0BEC68F009BEB9EF66F000AE000CE7
:10CD6000086C091EE86A0922046C051EE86A05229F
:10CD7000000C00BEB0EF66F00188FF0C09C013F094
:10CD800008C012F008500D02F4CF07F0F3CF06F000
:10CD900009500E02F4CF09F0F3CF08F00D02F35062
:10CDA0000726F4500822E86A092212500E02F350B6
:10CDB0000726F4500822E86A09220EAEE4EF66F076
:10CDC0001250085E1350095A13AE000C0D50085E45
:06CDD0000E50095A000C90
:0ACDD6001E0EF66EA00EF76E000EA2
:10CDE000F86E00010900F550F86F0900F550F96F71
:10CDF00003E1F86701D03DD00900F550F36F090059
:10CE0000F550F46F0900F550F56F09000900F55071
:10CE1000E96E0900F550EA6E090009000900F550B5
:10CE2000F66F0900F550F76F09000900F6CFFAF028
:10CE3000F7CFFBF0F8CFFCF0F3C0F6FFF4C0F7FF3C
:10CE4000F5C0F8FF0001F65302E1F75307E00900CF
:10CE5000F550EE6EF607F8E2F707F9D7FAC0F6FFDD
:10CE6000FBC0F7FFFCC0F8FF0001F807000EF95BFC
:04CE7000BFD7120016
:0CCE7400D9CFE6FFDACFE6FFE1CFD9FF0F
:10CE8000E2CFDAFFFB0EDBCF14F0FC0EDBCF15F0A8
:10CE90000001800E15141AE1FB0EDBCFE9FFFC0E3A
:10CEA000DBCFEAFFEECFF3FFEDCFF4FFEE2A000E6B
:10CEB000EF22F3CFE9FFF4CFEAFFFD0EDBCFEFFF68
:10CEC000EF50156AF36E15C0F4FF10D0FB0EDB5067
:10CED000FE0806E1FD0EDBCFE6FF51EC68F005D061
:10CEE000FD0EDBCFE6FF03EC50F0E552E552E5CF57
:08CEF000DAFFE7CFD9FF1200C1
:08CEF80006500B02F3CF02F01B
:10CF0000F4CF03F00C02F3500326000EF420046E5D
:10CF100006500D02F3500426000EF420056E065054
:10CF20000E02F350052607500B02F3500326F4506F
:10CF30000422000E052207500C02F3500426F45080
:10CF4000052207500D02F350052608500B02F3503E
:10CF50000426F450052208500C02F350052609500F
:08CF60000B02F350052612003C
:08CF6800FE0EE3CFE9FFFF0E0E
:10CF7000E3CFEAFFF36AF46AEE5203E0F34AF42ADD
:10CF8000FBD71200FF0EE3CFF8FFE552FF0EE3CF11
:10CF9000F7FFE552FF0EE3CFF6FFE552E66AE66AD9
:10CFA000E66A0900F55209E0FD0EE32A05E1FE0EEE
:10CFB000E32A02E1FF0EE32AF4D7FD0EE3CF07F0E8
:0ECFC000FE0EE3CF08F0FF0EE3CF09F01200E3
:02CFCE00056AF2
:10CFD000046A036A026A200EE76ED89006360736A6
:10CFE0000836093602360336043605360B50025C25
:10CFF0000C5003580D5004580E50055809E30B50BF
:10D00000025E0C50035A0D50045A0E50055A062A5F
:06D01000E72EE4D7120038
:0AD01600056A046A100EE76ED89058
:10D0200008360936043605360D50045C0E50055896
:10D0300005E30D50045E0E50055A082AE72EF0D77E
:02D040001200DC
:0ED04200F36AF46AFF0EE124E96EFF0EE220AD
:10D05000EA6EED6607D02F0EEF6404D03A0EEF6053
:06D0600001D0F32A1200CA
:0AD06600C00EF36E00EE00F00E0E97
:10D0700001D81200EA6002D0EE6AFCD7F350E960F2
:06D080001200EE6AFCD76D
:0AD086001DEE00F02DEE00F0F86A38
:10D09000019CEBEC66F007EC50F097EC53F0FBD7FB
:02D0A00012007C
:0ED0A200FF0EE350ADBA04D0B06AAC8EAD8A7A
:0ED0B000949CADA2FED7AE6EF36EF46A120031
:02D0BE0030310F
:0FD0C00032333435363738396162636465660060
:01D0CF004818
:0BD0D000656C6C6F0025730025640088
:05D0DB00000000000050
:10D0E0002000200020006D6F76653A200023242464
:10D0F00024242424242424242424242424242424F0
:10D100002425002324242424242424242426242401
:10D1100024242424242424250023242424242424F3
:10D12000242424262424242424242424242500798B
:10D130002062617200782062617200706F74206DED
:07D1400065746572007E00BA
:01FFF800AA5E
:01FFF900F710
:01FFFA001FE7
:01FFFB00FF06
:01FFFC0063A1
:01FFFD00F80B
:01FFFE008181
:01FFFF00F110
:00000001FF
